{"abi":[{"type":"constructor","inputs":[],"stateMutability":"nonpayable"},{"type":"function","name":"DEFAULT_ADMIN_ROLE","inputs":[],"outputs":[{"name":"","type":"bytes32","internalType":"bytes32"}],"stateMutability":"view"},{"type":"function","name":"DOMAIN_SEPARATOR","inputs":[],"outputs":[{"name":"","type":"bytes32","internalType":"bytes32"}],"stateMutability":"view"},{"type":"function","name":"FAUCET_AMOUNT","inputs":[],"outputs":[{"name":"","type":"uint256","internalType":"uint256"}],"stateMutability":"view"},{"type":"function","name":"FAUCET_COOLDOWN","inputs":[],"outputs":[{"name":"","type":"uint256","internalType":"uint256"}],"stateMutability":"view"},{"type":"function","name":"FAUCET_ROLE","inputs":[],"outputs":[{"name":"","type":"bytes32","internalType":"bytes32"}],"stateMutability":"view"},{"type":"function","name":"INITIAL_SUPPLY","inputs":[],"outputs":[{"name":"","type":"uint256","internalType":"uint256"}],"stateMutability":"view"},{"type":"function","name":"MINTER_ROLE","inputs":[],"outputs":[{"name":"","type":"bytes32","internalType":"bytes32"}],"stateMutability":"view"},{"type":"function","name":"allowance","inputs":[{"name":"owner","type":"address","internalType":"address"},{"name":"spender","type":"address","internalType":"address"}],"outputs":[{"name":"","type":"uint256","internalType":"uint256"}],"stateMutability":"view"},{"type":"function","name":"approve","inputs":[{"name":"spender","type":"address","internalType":"address"},{"name":"value","type":"uint256","internalType":"uint256"}],"outputs":[{"name":"","type":"bool","internalType":"bool"}],"stateMutability":"nonpayable"},{"type":"function","name":"balanceOf","inputs":[{"name":"account","type":"address","internalType":"address"}],"outputs":[{"name":"","type":"uint256","internalType":"uint256"}],"stateMutability":"view"},{"type":"function","name":"batchMint","inputs":[{"name":"recipients","type":"address[]","internalType":"address[]"},{"name":"amounts","type":"uint256[]","internalType":"uint256[]"}],"outputs":[],"stateMutability":"nonpayable"},{"type":"function","name":"burn","inputs":[{"name":"value","type":"uint256","internalType":"uint256"}],"outputs":[],"stateMutability":"nonpayable"},{"type":"function","name":"burnFrom","inputs":[{"name":"account","type":"address","internalType":"address"},{"name":"value","type":"uint256","internalType":"uint256"}],"outputs":[],"stateMutability":"nonpayable"},{"type":"function","name":"canClaimFaucet","inputs":[{"name":"account","type":"address","internalType":"address"}],"outputs":[{"name":"canClaim","type":"bool","internalType":"bool"},{"name":"timeUntilClaim","type":"uint256","internalType":"uint256"}],"stateMutability":"view"},{"type":"function","name":"claimFaucet","inputs":[],"outputs":[],"stateMutability":"nonpayable"},{"type":"function","name":"claimFaucetWithBiometric","inputs":[{"name":"r","type":"bytes32","internalType":"bytes32"},{"name":"s","type":"bytes32","internalType":"bytes32"},{"name":"publicKeyX","type":"bytes32","internalType":"bytes32"},{"name":"publicKeyY","type":"bytes32","internalType":"bytes32"}],"outputs":[],"stateMutability":"nonpayable"},{"type":"function","name":"decimals","inputs":[],"outputs":[{"name":"","type":"uint8","internalType":"uint8"}],"stateMutability":"view"},{"type":"function","name":"eip712Domain","inputs":[],"outputs":[{"name":"fields","type":"bytes1","internalType":"bytes1"},{"name":"name","type":"string","internalType":"string"},{"name":"version","type":"string","internalType":"string"},{"name":"chainId","type":"uint256","internalType":"uint256"},{"name":"verifyingContract","type":"address","internalType":"address"},{"name":"salt","type":"bytes32","internalType":"bytes32"},{"name":"extensions","type":"uint256[]","internalType":"uint256[]"}],"stateMutability":"view"},{"type":"function","name":"getRoleAdmin","inputs":[{"name":"role","type":"bytes32","internalType":"bytes32"}],"outputs":[{"name":"","type":"bytes32","internalType":"bytes32"}],"stateMutability":"view"},{"type":"function","name":"grantRole","inputs":[{"name":"role","type":"bytes32","internalType":"bytes32"},{"name":"account","type":"address","internalType":"address"}],"outputs":[],"stateMutability":"nonpayable"},{"type":"function","name":"hasClaimedFaucet","inputs":[{"name":"","type":"address","internalType":"address"}],"outputs":[{"name":"","type":"bool","internalType":"bool"}],"stateMutability":"view"},{"type":"function","name":"hasRole","inputs":[{"name":"role","type":"bytes32","internalType":"bytes32"},{"name":"account","type":"address","internalType":"address"}],"outputs":[{"name":"","type":"bool","internalType":"bool"}],"stateMutability":"view"},{"type":"function","name":"lastFaucetClaim","inputs":[{"name":"","type":"address","internalType":"address"}],"outputs":[{"name":"","type":"uint256","internalType":"uint256"}],"stateMutability":"view"},{"type":"function","name":"maxSupply","inputs":[],"outputs":[{"name":"","type":"uint256","internalType":"uint256"}],"stateMutability":"view"},{"type":"function","name":"mint","inputs":[{"name":"to","type":"address","internalType":"address"},{"name":"amount","type":"uint256","internalType":"uint256"}],"outputs":[],"stateMutability":"nonpayable"},{"type":"function","name":"name","inputs":[],"outputs":[{"name":"","type":"string","internalType":"string"}],"stateMutability":"view"},{"type":"function","name":"nonces","inputs":[{"name":"owner","type":"address","internalType":"address"}],"outputs":[{"name":"","type":"uint256","internalType":"uint256"}],"stateMutability":"view"},{"type":"function","name":"pause","inputs":[],"outputs":[],"stateMutability":"nonpayable"},{"type":"function","name":"paused","inputs":[],"outputs":[{"name":"","type":"bool","internalType":"bool"}],"stateMutability":"view"},{"type":"function","name":"permit","inputs":[{"name":"owner","type":"address","internalType":"address"},{"name":"spender","type":"address","internalType":"address"},{"name":"value","type":"uint256","internalType":"uint256"},{"name":"deadline","type":"uint256","internalType":"uint256"},{"name":"v","type":"uint8","internalType":"uint8"},{"name":"r","type":"bytes32","internalType":"bytes32"},{"name":"s","type":"bytes32","internalType":"bytes32"}],"outputs":[],"stateMutability":"nonpayable"},{"type":"function","name":"registerSecp256r1Key","inputs":[{"name":"publicKeyX","type":"bytes32","internalType":"bytes32"},{"name":"publicKeyY","type":"bytes32","internalType":"bytes32"}],"outputs":[],"stateMutability":"nonpayable"},{"type":"function","name":"renounceRole","inputs":[{"name":"role","type":"bytes32","internalType":"bytes32"},{"name":"callerConfirmation","type":"address","internalType":"address"}],"outputs":[],"stateMutability":"nonpayable"},{"type":"function","name":"revokeRole","inputs":[{"name":"role","type":"bytes32","internalType":"bytes32"},{"name":"account","type":"address","internalType":"address"}],"outputs":[],"stateMutability":"nonpayable"},{"type":"function","name":"secp256r1ToAddress","inputs":[{"name":"","type":"bytes32","internalType":"bytes32"}],"outputs":[{"name":"","type":"address","internalType":"address"}],"stateMutability":"view"},{"type":"function","name":"setMaxSupply","inputs":[{"name":"newMaxSupply","type":"uint256","internalType":"uint256"}],"outputs":[],"stateMutability":"nonpayable"},{"type":"function","name":"supportsInterface","inputs":[{"name":"interfaceId","type":"bytes4","internalType":"bytes4"}],"outputs":[{"name":"","type":"bool","internalType":"bool"}],"stateMutability":"view"},{"type":"function","name":"symbol","inputs":[],"outputs":[{"name":"","type":"string","internalType":"string"}],"stateMutability":"view"},{"type":"function","name":"totalSupply","inputs":[],"outputs":[{"name":"","type":"uint256","internalType":"uint256"}],"stateMutability":"view"},{"type":"function","name":"transfer","inputs":[{"name":"to","type":"address","internalType":"address"},{"name":"value","type":"uint256","internalType":"uint256"}],"outputs":[{"name":"","type":"bool","internalType":"bool"}],"stateMutability":"nonpayable"},{"type":"function","name":"transferFrom","inputs":[{"name":"from","type":"address","internalType":"address"},{"name":"to","type":"address","internalType":"address"},{"name":"value","type":"uint256","internalType":"uint256"}],"outputs":[{"name":"","type":"bool","internalType":"bool"}],"stateMutability":"nonpayable"},{"type":"function","name":"unpause","inputs":[],"outputs":[],"stateMutability":"nonpayable"},{"type":"event","name":"Approval","inputs":[{"name":"owner","type":"address","indexed":true,"internalType":"address"},{"name":"spender","type":"address","indexed":true,"internalType":"address"},{"name":"value","type":"uint256","indexed":false,"internalType":"uint256"}],"anonymous":false},{"type":"event","name":"BiometricKeyRegistered","inputs":[{"name":"user","type":"address","indexed":true,"internalType":"address"},{"name":"publicKeyX","type":"bytes32","indexed":false,"internalType":"bytes32"},{"name":"publicKeyY","type":"bytes32","indexed":false,"internalType":"bytes32"}],"anonymous":false},{"type":"event","name":"EIP712DomainChanged","inputs":[],"anonymous":false},{"type":"event","name":"FaucetClaimed","inputs":[{"name":"recipient","type":"address","indexed":true,"internalType":"address"},{"name":"amount","type":"uint256","indexed":false,"internalType":"uint256"}],"anonymous":false},{"type":"event","name":"MaxSupplyUpdated","inputs":[{"name":"oldMax","type":"uint256","indexed":false,"internalType":"uint256"},{"name":"newMax","type":"uint256","indexed":false,"internalType":"uint256"}],"anonymous":false},{"type":"event","name":"Paused","inputs":[{"name":"account","type":"address","indexed":false,"internalType":"address"}],"anonymous":false},{"type":"event","name":"RoleAdminChanged","inputs":[{"name":"role","type":"bytes32","indexed":true,"internalType":"bytes32"},{"name":"previousAdminRole","type":"bytes32","indexed":true,"internalType":"bytes32"},{"name":"newAdminRole","type":"bytes32","indexed":true,"internalType":"bytes32"}],"anonymous":false},{"type":"event","name":"RoleGranted","inputs":[{"name":"role","type":"bytes32","indexed":true,"internalType":"bytes32"},{"name":"account","type":"address","indexed":true,"internalType":"address"},{"name":"sender","type":"address","indexed":true,"internalType":"address"}],"anonymous":false},{"type":"event","name":"RoleRevoked","inputs":[{"name":"role","type":"bytes32","indexed":true,"internalType":"bytes32"},{"name":"account","type":"address","indexed":true,"internalType":"address"},{"name":"sender","type":"address","indexed":true,"internalType":"address"}],"anonymous":false},{"type":"event","name":"TokensMinted","inputs":[{"name":"to","type":"address","indexed":true,"internalType":"address"},{"name":"amount","type":"uint256","indexed":false,"internalType":"uint256"}],"anonymous":false},{"type":"event","name":"Transfer","inputs":[{"name":"from","type":"address","indexed":true,"internalType":"address"},{"name":"to","type":"address","indexed":true,"internalType":"address"},{"name":"value","type":"uint256","indexed":false,"internalType":"uint256"}],"anonymous":false},{"type":"event","name":"Unpaused","inputs":[{"name":"account","type":"address","indexed":false,"internalType":"address"}],"anonymous":false},{"type":"error","name":"AccessControlBadConfirmation","inputs":[]},{"type":"error","name":"AccessControlUnauthorizedAccount","inputs":[{"name":"account","type":"address","internalType":"address"},{"name":"neededRole","type":"bytes32","internalType":"bytes32"}]},{"type":"error","name":"ECDSAInvalidSignature","inputs":[]},{"type":"error","name":"ECDSAInvalidSignatureLength","inputs":[{"name":"length","type":"uint256","internalType":"uint256"}]},{"type":"error","name":"ECDSAInvalidSignatureS","inputs":[{"name":"s","type":"bytes32","internalType":"bytes32"}]},{"type":"error","name":"ERC20InsufficientAllowance","inputs":[{"name":"spender","type":"address","internalType":"address"},{"name":"allowance","type":"uint256","internalType":"uint256"},{"name":"needed","type":"uint256","internalType":"uint256"}]},{"type":"error","name":"ERC20InsufficientBalance","inputs":[{"name":"sender","type":"address","internalType":"address"},{"name":"balance","type":"uint256","internalType":"uint256"},{"name":"needed","type":"uint256","internalType":"uint256"}]},{"type":"error","name":"ERC20InvalidApprover","inputs":[{"name":"approver","type":"address","internalType":"address"}]},{"type":"error","name":"ERC20InvalidReceiver","inputs":[{"name":"receiver","type":"address","internalType":"address"}]},{"type":"error","name":"ERC20InvalidSender","inputs":[{"name":"sender","type":"address","internalType":"address"}]},{"type":"error","name":"ERC20InvalidSpender","inputs":[{"name":"spender","type":"address","internalType":"address"}]},{"type":"error","name":"ERC2612ExpiredSignature","inputs":[{"name":"deadline","type":"uint256","internalType":"uint256"}]},{"type":"error","name":"ERC2612InvalidSigner","inputs":[{"name":"signer","type":"address","internalType":"address"},{"name":"owner","type":"address","internalType":"address"}]},{"type":"error","name":"EnforcedPause","inputs":[]},{"type":"error","name":"ExpectedPause","inputs":[]},{"type":"error","name":"InvalidAccountNonce","inputs":[{"name":"account","type":"address","internalType":"address"},{"name":"currentNonce","type":"uint256","internalType":"uint256"}]},{"type":"error","name":"InvalidShortString","inputs":[]},{"type":"error","name":"ReentrancyGuardReentrantCall","inputs":[]},{"type":"error","name":"StringTooLong","inputs":[{"name":"str","type":"string","internalType":"string"}]}],"bytecode":{"object":"0x6101606040526a084595161401484a000000600c5534801561001f575f80fd5b506040518060400160405280601881526020017f506f7274666f6c696f2050726f746f636f6c20546f6b656e000000000000000081525080604051806040016040528060018152602001603160f81b8152506040518060400160405280601881526020017f506f7274666f6c696f2050726f746f636f6c20546f6b656e00000000000000008152506040518060400160405280600381526020016214141560ea1b81525081600390816100d2919061058f565b5060046100df828261058f565b506100ef91508390506005610232565b610120526100fe816006610232565b61014052815160208084019190912060e052815190820120610100524660a05261018a60e05161010051604080517f8b73c3c69bb8fe3d512ecc4cf759cc79239f7b179b0ffacaa9a75d522b39400f60208201529081019290925260608201524660808201523060a08201525f9060c00160405160208183030381529060405280519060200120905090565b60805250503060c0525060017f9b779b17422d0df92223018b32b4d1fa46e071723d6817e2486d003becc55f00556101c25f33610264565b506101ed7f9f2df0fed2c77648de5860a4cc508cd0818c85b8b8a1ab4ceeef8d981c8956a633610264565b506102187faecf5761d3ba769b4631978eb26cb84eae66bcaca9c3f0f4ecde3feb2f4cf14433610264565b5061022d3369d3c21bcecceda100000061030f565b6106c5565b5f60208351101561024d576102468361034c565b905061025e565b81610258848261058f565b5060ff90505b92915050565b5f8281526009602090815260408083206001600160a01b038516845290915281205460ff16610308575f8381526009602090815260408083206001600160a01b03861684529091529020805460ff191660011790556102c03390565b6001600160a01b0316826001600160a01b0316847f2f8788117e7eff1d82e926ec794901d17c78024a50270940304540a733656f0d60405160405180910390a450600161025e565b505f61025e565b6001600160a01b03821661033d5760405163ec442f0560e01b81525f60048201526024015b60405180910390fd5b6103485f8383610389565b5050565b5f80829050601f81511115610376578260405163305a27a960e01b8152600401610334919061064e565b805161038182610683565b179392505050565b610394838383610399565b505050565b6103a16103ac565b6103948383836103d2565b60085460ff16156103d05760405163d93c066560e01b815260040160405180910390fd5b565b6001600160a01b0383166103fc578060025f8282546103f191906106a6565b9091555061046c9050565b6001600160a01b0383165f908152602081905260409020548181101561044e5760405163391434e360e21b81526001600160a01b03851660048201526024810182905260448101839052606401610334565b6001600160a01b0384165f9081526020819052604090209082900390555b6001600160a01b038216610488576002805482900390556104a6565b6001600160a01b0382165f9081526020819052604090208054820190555b816001600160a01b0316836001600160a01b03167fddf252ad1be2c89b69c2b068fc378daa952ba7f163c4a11628f55a4df523b3ef836040516104eb91815260200190565b60405180910390a3505050565b634e487b7160e01b5f52604160045260245ffd5b600181811c9082168061052057607f821691505b60208210810361053e57634e487b7160e01b5f52602260045260245ffd5b50919050565b601f82111561039457805f5260205f20601f840160051c810160208510156105695750805b601f840160051c820191505b81811015610588575f8155600101610575565b5050505050565b81516001600160401b038111156105a8576105a86104f8565b6105bc816105b6845461050c565b84610544565b602080601f8311600181146105ef575f84156105d85750858301515b5f19600386901b1c1916600185901b178555610646565b5f85815260208120601f198616915b8281101561061d578886015182559484019460019091019084016105fe565b508582101561063a57878501515f19600388901b60f8161c191681555b505060018460011b0185555b505050505050565b602081525f82518060208401528060208501604085015e5f604082850101526040601f19601f83011684010191505092915050565b8051602080830151919081101561053e575f1960209190910360031b1b16919050565b8082018082111561025e57634e487b7160e01b5f52601160045260245ffd5b60805160a05160c05160e051610100516101205161014051612b9b6107165f395f6117fc01525f6117cf01525f61164a01525f61162201525f61157d01525f6115a701525f6115d10152612b9b5ff3fe608060405234801561000f575f80fd5b506004361061024a575f3560e01c806368573107116101405780638a877205116100bf578063d505accf11610084578063d505accf14610541578063d539139314610554578063d547741f1461057b578063d5abeb011461058e578063dd62ed3e14610597578063f35c220b146105cf575f80fd5b80638a877205146104ed57806391d148541461050c57806395d89b411461051f578063a217fddf14610527578063a9059cbb1461052e575f80fd5b806379cc67901161010557806379cc67901461049a5780637d1d5d19146104ad5780637ecebe00146104b75780638456cb59146104ca57806384b0196e146104d2575f80fd5b8063685731071461041a5780636db7494a1461042d5780636f8b44b01461044f57806370a0823114610462578063766976401461048a575f80fd5b80632ff2e9dc116101cc57806340c10f191161019157806340c10f19146103ba57806342966c68146103cd57806345c7c793146103e05780634fe15335146104075780635c975abb1461040f575f80fd5b80632ff2e9dc14610377578063313ce567146103885780633644e5151461039757806336568abe1461039f5780633f4ba83a146103b2575f80fd5b806318160ddd1161021257806318160ddd1461030857806323b872dd1461031a578063248a9ca31461032d57806329a24cd71461034f5780632f2ff15d14610364575f80fd5b806301d8a2961461024e57806301ffc9a71461027d57806306fdde03146102a0578063090955b2146102b5578063095ea7b3146102f5575b5f80fd5b61026161025c3660046126f3565b6105e2565b6040805192151583526020830191909152015b60405180910390f35b61029061028b36600461270c565b61065e565b6040519015158152602001610274565b6102a8610694565b6040516102749190612761565b6102dd6102c3366004612773565b600d6020525f90815260409020546001600160a01b031681565b6040516001600160a01b039091168152602001610274565b61029061030336600461278a565b610724565b6002545b604051908152602001610274565b6102906103283660046127b2565b61073b565b61030c61033b366004612773565b5f9081526009602052604090206001015490565b61036261035d3660046127eb565b61075e565b005b61036261037236600461281a565b610a28565b61030c69d3c21bcecceda100000081565b60405160128152602001610274565b61030c610a4c565b6103626103ad36600461281a565b610a5a565b610362610a92565b6103626103c836600461278a565b610aa7565b6103626103db366004612773565b610bb6565b61030c7faecf5761d3ba769b4631978eb26cb84eae66bcaca9c3f0f4ecde3feb2f4cf14481565b610362610bc0565b60085460ff16610290565b61036261042836600461288c565b610d1c565b61029061043b3660046126f3565b600a6020525f908152604090205460ff1681565b61036261045d366004612773565b610f56565b61030c6104703660046126f3565b6001600160a01b03165f9081526020819052604090205490565b61030c68056bc75e2d6310000081565b6103626104a836600461278a565b610fed565b61030c6201518081565b61030c6104c53660046126f3565b611006565b610362611023565b6104da611035565b60405161027497969594939291906128f3565b61030c6104fb3660046126f3565b600b6020525f908152604090205481565b61029061051a36600461281a565b611077565b6102a86110a1565b61030c5f81565b61029061053c36600461278a565b6110b0565b61036261054f36600461298a565b6110bd565b61030c7f9f2df0fed2c77648de5860a4cc508cd0818c85b8b8a1ab4ceeef8d981c8956a681565b61036261058936600461281a565b6111f3565b61030c600c5481565b61030c6105a53660046129f7565b6001600160a01b039182165f90815260016020908152604080832093909416825291909152205490565b6103626105dd366004612a1f565b611217565b6001600160a01b0381165f908152600a6020526040812054819060ff1661060e57506001925f92509050565b6001600160a01b0383165f908152600b6020526040812054610634906201518090612a53565b905080421061064957506001935f9350915050565b5f6106544283612a66565b9250925050915091565b5f6001600160e01b03198216637965db0b60e01b148061068e57506301ffc9a760e01b6001600160e01b03198316145b92915050565b6060600380546106a390612a79565b80601f01602080910402602001604051908101604052809291908181526020018280546106cf90612a79565b801561071a5780601f106106f15761010080835404028352916020019161071a565b820191905f5260205f20905b8154815290600101906020018083116106fd57829003601f168201915b5050505050905090565b5f33610731818585611348565b5060019392505050565b5f33610748858285611355565b6107538585856113cb565b506001949350505050565b610766611428565b61076e61144c565b604080516020808201859052818301849052825180830384018152606090920183528151918101919091205f818152600d909252919020546001600160a01b0316806108015760405162461bcd60e51b815260206004820152601960248201527f5075626c6963206b6579206e6f7420726567697374657265640000000000000060448201526064015b60405180910390fd5b6040516a18db185a5b51985d58d95d60aa1b602082015246602b8201526bffffffffffffffffffffffff1930606090811b8216604b84015283901b16605f8201525f9060730160405160208183030381529060405280519060200120905061086c8188888888611467565b6108ac5760405162461bcd60e51b8152602060048201526011602482015270496e76616c6964207369676e617475726560781b60448201526064016107f8565b6001600160a01b0382165f908152600a602052604090205460ff1615806108f857506001600160a01b0382165f908152600b60205260409020546108f4906201518090612a53565b4210155b61093d5760405162461bcd60e51b815260206004820152601660248201527546617563657420636f6f6c646f776e2061637469766560501b60448201526064016107f8565b600c5468056bc75e2d6310000061095360025490565b61095d9190612a53565b111561097b5760405162461bcd60e51b81526004016107f890612ab1565b6001600160a01b0382165f908152600a60209081526040808320805460ff19166001179055600b90915290204290556109bd8268056bc75e2d631000006114a2565b816001600160a01b03167f5d4f415c63cd8a5874d9d291cdd64cec37e5dc236d90d659c958d109d78074b368056bc75e2d63100000604051610a0191815260200190565b60405180910390a2505050610a2260015f80516020612b4683398151915255565b50505050565b5f82815260096020526040902060010154610a42816114d6565b610a2283836114e0565b5f610a55611571565b905090565b6001600160a01b0381163314610a835760405163334bd91960e11b815260040160405180910390fd5b610a8d828261169a565b505050565b5f610a9c816114d6565b610aa4611705565b50565b7f9f2df0fed2c77648de5860a4cc508cd0818c85b8b8a1ab4ceeef8d981c8956a6610ad1816114d6565b610ad9611428565b6001600160a01b038316610b2f5760405162461bcd60e51b815260206004820152601b60248201527f43616e6e6f74206d696e7420746f207a65726f2061646472657373000000000060448201526064016107f8565b600c5482610b3c60025490565b610b469190612a53565b1115610b645760405162461bcd60e51b81526004016107f890612ab1565b610b6e83836114a2565b826001600160a01b03167f3f2c9d57c068687834f0de942a9babb9e5acab57d516d3480a3c16ee165a427383604051610ba991815260200190565b60405180910390a2505050565b610aa43382611757565b610bc8611428565b610bd061144c565b335f908152600a602052604090205460ff161580610c0a5750335f908152600b6020526040902054610c06906201518090612a53565b4210155b610c4f5760405162461bcd60e51b815260206004820152601660248201527546617563657420636f6f6c646f776e2061637469766560501b60448201526064016107f8565b600c5468056bc75e2d63100000610c6560025490565b610c6f9190612a53565b1115610c8d5760405162461bcd60e51b81526004016107f890612ab1565b335f818152600a60209081526040808320805460ff19166001179055600b9091529020429055610cc69068056bc75e2d631000006114a2565b60405168056bc75e2d63100000815233907f5d4f415c63cd8a5874d9d291cdd64cec37e5dc236d90d659c958d109d78074b39060200160405180910390a2610d1a60015f80516020612b4683398151915255565b565b7f9f2df0fed2c77648de5860a4cc508cd0818c85b8b8a1ab4ceeef8d981c8956a6610d46816114d6565b610d4e611428565b838214610d965760405162461bcd60e51b8152602060048201526016602482015275082e4e4c2f2e640d8cadccee8d040dad2e6dac2e8c6d60531b60448201526064016107f8565b5f805b83811015610dcf57848482818110610db357610db3612ade565b9050602002013582610dc59190612a53565b9150600101610d99565b50600c5481610ddd60025490565b610de79190612a53565b1115610e055760405162461bcd60e51b81526004016107f890612ab1565b5f5b85811015610f4d575f878783818110610e2257610e22612ade565b9050602002016020810190610e3791906126f3565b6001600160a01b031603610e7c5760405162461bcd60e51b815260206004820152600c60248201526b5a65726f206164647265737360a01b60448201526064016107f8565b610ec4878783818110610e9157610e91612ade565b9050602002016020810190610ea691906126f3565b868684818110610eb857610eb8612ade565b905060200201356114a2565b868682818110610ed657610ed6612ade565b9050602002016020810190610eeb91906126f3565b6001600160a01b03167f3f2c9d57c068687834f0de942a9babb9e5acab57d516d3480a3c16ee165a4273868684818110610f2757610f27612ade565b90506020020135604051610f3d91815260200190565b60405180910390a2600101610e07565b50505050505050565b5f610f60816114d6565b600254821015610fa75760405162461bcd60e51b81526020600482015260126024820152714d617820737570706c7920746f6f206c6f7760701b60448201526064016107f8565b600c80549083905560408051828152602081018590527f44ecfc706d63e347851cfd40acfa6cf2e3a41faa3e8b460210c03938e84a91ad910160405180910390a1505050565b610ff8823383611355565b6110028282611757565b5050565b6001600160a01b0381165f9081526007602052604081205461068e565b5f61102d816114d6565b610aa461178b565b5f6060805f805f60606110466117c8565b61104e6117f5565b604080515f80825260208201909252600f60f81b9b939a50919850469750309650945092509050565b5f9182526009602090815260408084206001600160a01b0393909316845291905290205460ff1690565b6060600480546106a390612a79565b5f336107318185856113cb565b834211156110e15760405163313c898160e11b8152600481018590526024016107f8565b5f7f6e71edae12b1b97f4d1f60370fef10105fa2faae0126114a169c64845d6126c988888861112c8c6001600160a01b03165f90815260076020526040902080546001810190915590565b6040805160208101969096526001600160a01b0394851690860152929091166060840152608083015260a082015260c0810186905260e0016040516020818303038152906040528051906020012090505f61118682611822565b90505f6111958287878761184e565b9050896001600160a01b0316816001600160a01b0316146111dc576040516325c0072360e11b81526001600160a01b0380831660048301528b1660248201526044016107f8565b6111e78a8a8a611348565b50505050505050505050565b5f8281526009602052604090206001015461120d816114d6565b610a22838361169a565b611221828261187a565b6112625760405162461bcd60e51b8152602060048201526012602482015271496e76616c6964207075626c6963206b657960701b60448201526064016107f8565b604080516020808201859052818301849052825180830384018152606090920183528151918101919091205f818152600d909252919020546001600160a01b0316156112f05760405162461bcd60e51b815260206004820152601d60248201527f5075626c6963206b657920616c7265616479207265676973746572656400000060448201526064016107f8565b5f818152600d602090815260409182902080546001600160a01b031916339081179091558251868152918201859052917f31f399053bf9abf743a1c140700cb461b32859b3ea33d3b89b3d472c42dc18479101610ba9565b610a8d83838360016118de565b6001600160a01b038381165f908152600160209081526040808320938616835292905220545f19811015610a2257818110156113bd57604051637dc7a0d960e11b81526001600160a01b038416600482015260248101829052604481018390526064016107f8565b610a2284848484035f6118de565b6001600160a01b0383166113f457604051634b637e8f60e11b81525f60048201526024016107f8565b6001600160a01b03821661141d5760405163ec442f0560e01b81525f60048201526024016107f8565b610a8d8383836119b0565b60085460ff1615610d1a5760405163d93c066560e01b815260040160405180910390fd5b6114546119bb565b60025f80516020612b4683398151915255565b5f805f61147788888888886119ea565b91509150806114925761148d8888888888611ac5565b611494565b815b925050505b95945050505050565b6001600160a01b0382166114cb5760405163ec442f0560e01b81525f60048201526024016107f8565b6110025f83836119b0565b610aa48133611b75565b5f6114eb8383611077565b61156a575f8381526009602090815260408083206001600160a01b03861684529091529020805460ff191660011790556115223390565b6001600160a01b0316826001600160a01b0316847f2f8788117e7eff1d82e926ec794901d17c78024a50270940304540a733656f0d60405160405180910390a450600161068e565b505f61068e565b5f306001600160a01b037f0000000000000000000000000000000000000000000000000000000000000000161480156115c957507f000000000000000000000000000000000000000000000000000000000000000046145b156115f357507f000000000000000000000000000000000000000000000000000000000000000090565b610a55604080517f8b73c3c69bb8fe3d512ecc4cf759cc79239f7b179b0ffacaa9a75d522b39400f60208201527f0000000000000000000000000000000000000000000000000000000000000000918101919091527f000000000000000000000000000000000000000000000000000000000000000060608201524660808201523060a08201525f9060c00160405160208183030381529060405280519060200120905090565b5f6116a58383611077565b1561156a575f8381526009602090815260408083206001600160a01b0386168085529252808320805460ff1916905551339286917ff6391f5c32d9c69d2a47ea670b442974b53935d1edc7fd64eb21e047a839171b9190a450600161068e565b61170d611bae565b6008805460ff191690557f5db9ee0a495bf2e6ff9c91a7834c1ba4fdd244a5e8aa4e537bd38aeae4b073aa335b6040516001600160a01b03909116815260200160405180910390a1565b6001600160a01b03821661178057604051634b637e8f60e11b81525f60048201526024016107f8565b611002825f836119b0565b611793611428565b6008805460ff191660011790557f62e78cea01bee320cd4e420270b5ea74000d11b0c9f74754ebdbfc544b05a25861173a3390565b6060610a557f00000000000000000000000000000000000000000000000000000000000000006005611bd1565b6060610a557f00000000000000000000000000000000000000000000000000000000000000006006611bd1565b5f61068e61182e611571565b8360405161190160f01b8152600281019290925260228201526042902090565b5f805f8061185e88888888611c7a565b92509250925061186e8282611d42565b50909695505050505050565b5f600160601b63ffffffff60c01b031980838409817f5ac635d8aa3a93e7b3ebbd55769886bc651d06b0cc53b0f63bce3c3e27d2604b8387856003600160601b0363ffffffff60c01b0319878b8c0908090894821191909310169190921416919050565b6001600160a01b0384166119075760405163e602df0560e01b81525f60048201526024016107f8565b6001600160a01b03831661193057604051634a1406b160e11b81525f60048201526024016107f8565b6001600160a01b038085165f9081526001602090815260408083209387168352929052208290558015610a2257826001600160a01b0316846001600160a01b03167f8c5be1e5ebec7d5bd14f71427d1e84f3dd0314c0f7b2291e5b200ac8c7c3b925846040516119a291815260200190565b60405180910390a350505050565b610a8d838383611dfa565b5f80516020612b4683398151915254600203610d1a57604051633ee5aeb560e01b815260040160405180910390fd5b5f806119f68686611e0d565b1580611a095750611a07848461187a565b155b15611a1957505f90506001611abb565b611a268787878787611e67565b15611a3657506001905080611abb565b611aa57fbb5a52f42f9c9261ed4361f59422a1e30036e7c32b270c8807a419feca605023600560017fa71af64de5126a4a4e02b7922d66ce9415ce88a4c9d25514d91082c8725ac9577f5d47723c8fbe580bb369fec9c2665d8e30a435b9932645482e7c9f11e872296b611e67565b15611ab557505f90506001611abb565b505f9050805b9550959350505050565b5f611ad08585611e0d565b1580611ae35750611ae1838361187a565b155b15611aef57505f611499565b5f611afa8484611ea7565b90505f611b14865f80516020612b2683398151915261209a565b90505f5f80516020612b26833981519152828a0990505f5f80516020612b26833981519152838a0990505f611b4a8584846120a9565b50905089611b655f80516020612b2683398151915283612af2565b149b9a5050505050505050505050565b611b7f8282611077565b6110025760405163e2517d3f60e01b81526001600160a01b0382166004820152602481018390526044016107f8565b60085460ff16610d1a57604051638dfc202b60e01b815260040160405180910390fd5b606060ff8314611beb57611be4836121cd565b905061068e565b818054611bf790612a79565b80601f0160208091040260200160405190810160405280929190818152602001828054611c2390612a79565b8015611c6e5780601f10611c4557610100808354040283529160200191611c6e565b820191905f5260205f20905b815481529060010190602001808311611c5157829003601f168201915b5050505050905061068e565b5f80807f7fffffffffffffffffffffffffffffff5d576e7357a4501ddfe92f46681b20a0841115611cb357505f91506003905082611d38565b604080515f808252602082018084528a905260ff891692820192909252606081018790526080810186905260019060a0016020604051602081039080840390855afa158015611d04573d5f803e3d5ffd5b5050604051601f1901519150506001600160a01b038116611d2f57505f925060019150829050611d38565b92505f91508190505b9450945094915050565b5f826003811115611d5557611d55612b11565b03611d5e575050565b6001826003811115611d7257611d72612b11565b03611d905760405163f645eedf60e01b815260040160405180910390fd5b6002826003811115611da457611da4612b11565b03611dc55760405163fce698f760e01b8152600481018290526024016107f8565b6003826003811115611dd957611dd9612b11565b03611002576040516335e2f38360e21b8152600481018290526024016107f8565b611e02611428565b610a8d83838361220a565b5f8215801590611e2957505f80516020612b2683398151915283105b8015611e3457508115155b8015611e6057507f7fffffff800000007fffffffffffffffde737d56d38bcf4279dce5617e3192a88211155b9392505050565b5f6040518681528560208201528460408201528360608201528260808201525f805260205f60a0836101005afa611e9a57fe5b50505f5195945050505050565b611eaf612691565b60405180606001604052805f81526020015f81526020015f815250815f60108110611edc57611edc612ade565b60200201819052506040518060600160405280848152602001838152602001600181525081600160108110611f1357611f13612ade565b602002018190525060405180606001604052807f6b17d1f2e12c4247f8bce6e563a440f277037d812deb33a0f4a13945d898c29681526020017f4fe342e2fe1a7f9b8ee7eb4a7c0f9e162bce33576b315ececbb6406837bf51f58152602001600181525081600460108110611f8a57611f8a612ade565b6020020152611fa08160015b6020020151612330565b6040820152611fb0816004611f96565b6101008201526020810151611fcd908260025b602002015161238c565b6060820152611fe68160015b6020020151826004611fc3565b60a0820152611ff6816002611fd9565b60c0820152612006816003611fd9565b60e082015261201f8160015b6020020151826008611fc3565b610120820152612030816002612012565b610140820152612041816003612012565b610160820152612052816004612012565b61018082015261206c8160015b602002015182600c611fc3565b6101a082015261207d81600261205f565b6101c082015261208e81600361205f565b6101e082015292915050565b5f611e608360028403846123ea565b5f805f805f805b60808110156121b15781156120e4576120ca84848461240b565b919550935091506120dc84848461240b565b919550935091505b600c60fc89901c1660fe88901c1789816010811061210457612104612ade565b6020020151604001511561219d57825f036121735789816010811061212b5761212b612ade565b6020020151518a826010811061214357612143612ade565b6020020151602001518b836010811061215e5761215e612ade565b6020020151604001519196509450925061219d565b6121958a826010811061218857612188612ade565b602002015186868661248e565b919650945092505b50600297881b979690961b956001016120b0565b506121bd8383836125ba565b945094505050505b935093915050565b60605f6121d983612607565b6040805160208082528183019092529192505f91906020820181803683375050509182525060208101929092525090565b6001600160a01b038316612234578060025f8282546122299190612a53565b909155506122a49050565b6001600160a01b0383165f90815260208190526040902054818110156122865760405163391434e360e21b81526001600160a01b038516600482015260248101829052604481018390526064016107f8565b6001600160a01b0384165f9081526020819052604090209082900390555b6001600160a01b0382166122c0576002805482900390556122de565b6001600160a01b0382165f9081526020819052604090208054820190555b816001600160a01b0316836001600160a01b03167fddf252ad1be2c89b69c2b068fc378daa952ba7f163c4a11628f55a4df523b3ef8360405161232391815260200190565b60405180910390a3505050565b61235160405180606001604052805f81526020015f81526020015f81525090565b5f805f61236a855f01518660200151876040015161240b565b6040805160608101825293845260208401929092529082015295945050505050565b6123ad60405180606001604052805f81526020015f81526020015f81525090565b5f805f6123c786865f01518760200151886040015161248e565b604080516060810182529384526020840192909252908201529695505050505050565b5f805f6123f886868661262e565b9150915081611499576114996012612680565b5f805f600160601b63ffffffff60c01b031980868709818687098283848384096003600160601b0363ffffffff60c01b03190984858c8d096003090890508283838b09600409838482600209850385848509089650838485858609600809850385868a880385088509089550505050808186880960020991505093509350939050565b5f805f600160601b63ffffffff60c01b0319604088015181818209828388858a8b090960208c0151098381850385868686098c090884858a8b098d51098581870387868f09089350811584151680156124ee5760018114612534576125a9565b868586098788898386096002098903898a848a098b038b88890908089a5087888983890987098903898a8e8c038c8689090887090899505086878c8809860997506125a9565b8c8c8c898283098a8283098b8c8d8384096003600160601b0363ffffffff60c01b0319098d8e8889096003090890508b8c83870960040994508b8c866002098d038d838409089e508b8c8384096008098c0391508b8f8d03860894508b828d878409089d505050898a8284096002099a505050505b505050505050509450945094915050565b5f80825f036125cd57505f9050806121c5565b600160601b63ffffffff60c01b03195f6125e7858361209a565b905081818209828189099450828383830988099350505050935093915050565b5f60ff8216601f81111561068e57604051632cd44ac360e21b815260040160405180910390fd5b5f80825f0361264157505f9050806121c5565b60405160208152602080820152602060408201528560608201528460808201528360a082015260205f60c08360055afa9250505f519050935093915050565b634e487b715f52806020526024601cfd5b6040518061020001604052806010905b6126c260405180606001604052805f81526020015f81526020015f81525090565b8152602001906001900390816126a15790505090565b80356001600160a01b03811681146126ee575f80fd5b919050565b5f60208284031215612703575f80fd5b611e60826126d8565b5f6020828403121561271c575f80fd5b81356001600160e01b031981168114611e60575f80fd5b5f81518084528060208401602086015e5f602082860101526020601f19601f83011685010191505092915050565b602081525f611e606020830184612733565b5f60208284031215612783575f80fd5b5035919050565b5f806040838503121561279b575f80fd5b6127a4836126d8565b946020939093013593505050565b5f805f606084860312156127c4575f80fd5b6127cd846126d8565b92506127db602085016126d8565b9150604084013590509250925092565b5f805f80608085870312156127fe575f80fd5b5050823594602084013594506040840135936060013592509050565b5f806040838503121561282b575f80fd5b8235915061283b602084016126d8565b90509250929050565b5f8083601f840112612854575f80fd5b50813567ffffffffffffffff81111561286b575f80fd5b6020830191508360208260051b8501011115612885575f80fd5b9250929050565b5f805f806040858703121561289f575f80fd5b843567ffffffffffffffff808211156128b6575f80fd5b6128c288838901612844565b909650945060208701359150808211156128da575f80fd5b506128e787828801612844565b95989497509550505050565b60ff60f81b881681525f602060e0602084015261291360e084018a612733565b8381036040850152612925818a612733565b606085018990526001600160a01b038816608086015260a0850187905284810360c0860152855180825260208088019350909101905f5b818110156129785783518352928401929184019160010161295c565b50909c9b505050505050505050505050565b5f805f805f805f60e0888a0312156129a0575f80fd5b6129a9886126d8565b96506129b7602089016126d8565b95506040880135945060608801359350608088013560ff811681146129da575f80fd5b9699959850939692959460a0840135945060c09093013592915050565b5f8060408385031215612a08575f80fd5b612a11836126d8565b915061283b602084016126d8565b5f8060408385031215612a30575f80fd5b50508035926020909101359150565b634e487b7160e01b5f52601160045260245ffd5b8082018082111561068e5761068e612a3f565b8181038181111561068e5761068e612a3f565b600181811c90821680612a8d57607f821691505b602082108103612aab57634e487b7160e01b5f52602260045260245ffd5b50919050565b60208082526013908201527213585e081cdd5c1c1b1e48195e18d959591959606a1b604082015260600190565b634e487b7160e01b5f52603260045260245ffd5b5f82612b0c57634e487b7160e01b5f52601260045260245ffd5b500690565b634e487b7160e01b5f52602160045260245ffdfeffffffff00000000ffffffffffffffffbce6faada7179e84f3b9cac2fc6325519b779b17422d0df92223018b32b4d1fa46e071723d6817e2486d003becc55f00a2646970667358221220eadb74ac3561aa65812491b4d952f366c3343ff932354523294dca203a2ac22964736f6c63430008190033","linkReferences":{}},"methodIdentifiers":{"DEFAULT_ADMIN_ROLE()":"a217fddf","DOMAIN_SEPARATOR()":"3644e515","FAUCET_AMOUNT()":"76697640","FAUCET_COOLDOWN()":"7d1d5d19","FAUCET_ROLE()":"45c7c793","INITIAL_SUPPLY()":"2ff2e9dc","MINTER_ROLE()":"d5391393","allowance(address,address)":"dd62ed3e","approve(address,uint256)":"095ea7b3","balanceOf(address)":"70a08231","batchMint(address[],uint256[])":"68573107","burn(uint256)":"42966c68","burnFrom(address,uint256)":"79cc6790","canClaimFaucet(address)":"01d8a296","claimFaucet()":"4fe15335","claimFaucetWithBiometric(bytes32,bytes32,bytes32,bytes32)":"29a24cd7","decimals()":"313ce567","eip712Domain()":"84b0196e","getRoleAdmin(bytes32)":"248a9ca3","grantRole(bytes32,address)":"2f2ff15d","hasClaimedFaucet(address)":"6db7494a","hasRole(bytes32,address)":"91d14854","lastFaucetClaim(address)":"8a877205","maxSupply()":"d5abeb01","mint(address,uint256)":"40c10f19","name()":"06fdde03","nonces(address)":"7ecebe00","pause()":"8456cb59","paused()":"5c975abb","permit(address,address,uint256,uint256,uint8,bytes32,bytes32)":"d505accf","registerSecp256r1Key(bytes32,bytes32)":"f35c220b","renounceRole(bytes32,address)":"36568abe","revokeRole(bytes32,address)":"d547741f","secp256r1ToAddress(bytes32)":"090955b2","setMaxSupply(uint256)":"6f8b44b0","supportsInterface(bytes4)":"01ffc9a7","symbol()":"95d89b41","totalSupply()":"18160ddd","transfer(address,uint256)":"a9059cbb","transferFrom(address,address,uint256)":"23b872dd","unpause()":"3f4ba83a"},"id":0}