{"abi":[{"type":"constructor","inputs":[],"stateMutability":"nonpayable"},{"type":"function","name":"DEFAULT_ADMIN_ROLE","inputs":[],"outputs":[{"name":"","type":"bytes32","internalType":"bytes32"}],"stateMutability":"view"},{"type":"function","name":"ENDORSER_ROLE","inputs":[],"outputs":[{"name":"","type":"bytes32","internalType":"bytes32"}],"stateMutability":"view"},{"type":"function","name":"MINTER_ROLE","inputs":[],"outputs":[{"name":"","type":"bytes32","internalType":"bytes32"}],"stateMutability":"view"},{"type":"function","name":"approve","inputs":[{"name":"to","type":"address","internalType":"address"},{"name":"tokenId","type":"uint256","internalType":"uint256"}],"outputs":[],"stateMutability":"nonpayable"},{"type":"function","name":"balanceOf","inputs":[{"name":"owner","type":"address","internalType":"address"}],"outputs":[{"name":"","type":"uint256","internalType":"uint256"}],"stateMutability":"view"},{"type":"function","name":"endorseProject","inputs":[{"name":"tokenId","type":"uint256","internalType":"uint256"}],"outputs":[],"stateMutability":"nonpayable"},{"type":"function","name":"endorseProjectWithBiometric","inputs":[{"name":"tokenId","type":"uint256","internalType":"uint256"},{"name":"r","type":"bytes32","internalType":"bytes32"},{"name":"s","type":"bytes32","internalType":"bytes32"},{"name":"publicKeyX","type":"bytes32","internalType":"bytes32"},{"name":"publicKeyY","type":"bytes32","internalType":"bytes32"}],"outputs":[],"stateMutability":"nonpayable"},{"type":"function","name":"endorsements","inputs":[{"name":"","type":"uint256","internalType":"uint256"},{"name":"","type":"address","internalType":"address"}],"outputs":[{"name":"","type":"bool","internalType":"bool"}],"stateMutability":"view"},{"type":"function","name":"getApproved","inputs":[{"name":"tokenId","type":"uint256","internalType":"uint256"}],"outputs":[{"name":"","type":"address","internalType":"address"}],"stateMutability":"view"},{"type":"function","name":"getProject","inputs":[{"name":"tokenId","type":"uint256","internalType":"uint256"}],"outputs":[{"name":"","type":"tuple","internalType":"struct ProjectNFT.Project","components":[{"name":"tokenId","type":"uint256","internalType":"uint256"},{"name":"name","type":"string","internalType":"string"},{"name":"ipfsMetadataURI","type":"string","internalType":"string"},{"name":"creator","type":"address","internalType":"address"},{"name":"createdAt","type":"uint256","internalType":"uint256"},{"name":"endorsementCount","type":"uint256","internalType":"uint256"}]}],"stateMutability":"view"},{"type":"function","name":"getRoleAdmin","inputs":[{"name":"role","type":"bytes32","internalType":"bytes32"}],"outputs":[{"name":"","type":"bytes32","internalType":"bytes32"}],"stateMutability":"view"},{"type":"function","name":"getTokenIdByProjectId","inputs":[{"name":"projectId","type":"string","internalType":"string"}],"outputs":[{"name":"","type":"uint256","internalType":"uint256"}],"stateMutability":"view"},{"type":"function","name":"grantRole","inputs":[{"name":"role","type":"bytes32","internalType":"bytes32"},{"name":"account","type":"address","internalType":"address"}],"outputs":[],"stateMutability":"nonpayable"},{"type":"function","name":"hasRole","inputs":[{"name":"role","type":"bytes32","internalType":"bytes32"},{"name":"account","type":"address","internalType":"address"}],"outputs":[{"name":"","type":"bool","internalType":"bool"}],"stateMutability":"view"},{"type":"function","name":"isApprovedForAll","inputs":[{"name":"owner","type":"address","internalType":"address"},{"name":"operator","type":"address","internalType":"address"}],"outputs":[{"name":"","type":"bool","internalType":"bool"}],"stateMutability":"view"},{"type":"function","name":"maxEndorsementsPerProject","inputs":[],"outputs":[{"name":"","type":"uint256","internalType":"uint256"}],"stateMutability":"view"},{"type":"function","name":"mintProject","inputs":[{"name":"to","type":"address","internalType":"address"},{"name":"projectId","type":"string","internalType":"string"},{"name":"projectName","type":"string","internalType":"string"},{"name":"ipfsMetadataURI","type":"string","internalType":"string"}],"outputs":[{"name":"","type":"uint256","internalType":"uint256"}],"stateMutability":"nonpayable"},{"type":"function","name":"name","inputs":[],"outputs":[{"name":"","type":"string","internalType":"string"}],"stateMutability":"view"},{"type":"function","name":"ownerOf","inputs":[{"name":"tokenId","type":"uint256","internalType":"uint256"}],"outputs":[{"name":"","type":"address","internalType":"address"}],"stateMutability":"view"},{"type":"function","name":"pause","inputs":[],"outputs":[],"stateMutability":"nonpayable"},{"type":"function","name":"paused","inputs":[],"outputs":[{"name":"","type":"bool","internalType":"bool"}],"stateMutability":"view"},{"type":"function","name":"projectIdToTokenId","inputs":[{"name":"","type":"string","internalType":"string"}],"outputs":[{"name":"","type":"uint256","internalType":"uint256"}],"stateMutability":"view"},{"type":"function","name":"projects","inputs":[{"name":"","type":"uint256","internalType":"uint256"}],"outputs":[{"name":"tokenId","type":"uint256","internalType":"uint256"},{"name":"name","type":"string","internalType":"string"},{"name":"ipfsMetadataURI","type":"string","internalType":"string"},{"name":"creator","type":"address","internalType":"address"},{"name":"createdAt","type":"uint256","internalType":"uint256"},{"name":"endorsementCount","type":"uint256","internalType":"uint256"}],"stateMutability":"view"},{"type":"function","name":"registerSecp256r1Key","inputs":[{"name":"publicKeyX","type":"bytes32","internalType":"bytes32"},{"name":"publicKeyY","type":"bytes32","internalType":"bytes32"}],"outputs":[],"stateMutability":"nonpayable"},{"type":"function","name":"renounceRole","inputs":[{"name":"role","type":"bytes32","internalType":"bytes32"},{"name":"callerConfirmation","type":"address","internalType":"address"}],"outputs":[],"stateMutability":"nonpayable"},{"type":"function","name":"revokeRole","inputs":[{"name":"role","type":"bytes32","internalType":"bytes32"},{"name":"account","type":"address","internalType":"address"}],"outputs":[],"stateMutability":"nonpayable"},{"type":"function","name":"safeTransferFrom","inputs":[{"name":"from","type":"address","internalType":"address"},{"name":"to","type":"address","internalType":"address"},{"name":"tokenId","type":"uint256","internalType":"uint256"}],"outputs":[],"stateMutability":"nonpayable"},{"type":"function","name":"safeTransferFrom","inputs":[{"name":"from","type":"address","internalType":"address"},{"name":"to","type":"address","internalType":"address"},{"name":"tokenId","type":"uint256","internalType":"uint256"},{"name":"data","type":"bytes","internalType":"bytes"}],"outputs":[],"stateMutability":"nonpayable"},{"type":"function","name":"secp256r1ToAddress","inputs":[{"name":"","type":"bytes32","internalType":"bytes32"}],"outputs":[{"name":"","type":"address","internalType":"address"}],"stateMutability":"view"},{"type":"function","name":"setApprovalForAll","inputs":[{"name":"operator","type":"address","internalType":"address"},{"name":"approved","type":"bool","internalType":"bool"}],"outputs":[],"stateMutability":"nonpayable"},{"type":"function","name":"setMaxEndorsements","inputs":[{"name":"newMax","type":"uint256","internalType":"uint256"}],"outputs":[],"stateMutability":"nonpayable"},{"type":"function","name":"supportsInterface","inputs":[{"name":"interfaceId","type":"bytes4","internalType":"bytes4"}],"outputs":[{"name":"","type":"bool","internalType":"bool"}],"stateMutability":"view"},{"type":"function","name":"symbol","inputs":[],"outputs":[{"name":"","type":"string","internalType":"string"}],"stateMutability":"view"},{"type":"function","name":"tokenByIndex","inputs":[{"name":"index","type":"uint256","internalType":"uint256"}],"outputs":[{"name":"","type":"uint256","internalType":"uint256"}],"stateMutability":"view"},{"type":"function","name":"tokenOfOwnerByIndex","inputs":[{"name":"owner","type":"address","internalType":"address"},{"name":"index","type":"uint256","internalType":"uint256"}],"outputs":[{"name":"","type":"uint256","internalType":"uint256"}],"stateMutability":"view"},{"type":"function","name":"tokenURI","inputs":[{"name":"tokenId","type":"uint256","internalType":"uint256"}],"outputs":[{"name":"","type":"string","internalType":"string"}],"stateMutability":"view"},{"type":"function","name":"totalSupply","inputs":[],"outputs":[{"name":"","type":"uint256","internalType":"uint256"}],"stateMutability":"view"},{"type":"function","name":"transferFrom","inputs":[{"name":"from","type":"address","internalType":"address"},{"name":"to","type":"address","internalType":"address"},{"name":"tokenId","type":"uint256","internalType":"uint256"}],"outputs":[],"stateMutability":"nonpayable"},{"type":"function","name":"unpause","inputs":[],"outputs":[],"stateMutability":"nonpayable"},{"type":"function","name":"updateProjectMetadata","inputs":[{"name":"tokenId","type":"uint256","internalType":"uint256"},{"name":"newMetadataURI","type":"string","internalType":"string"}],"outputs":[],"stateMutability":"nonpayable"},{"type":"event","name":"Approval","inputs":[{"name":"owner","type":"address","indexed":true,"internalType":"address"},{"name":"approved","type":"address","indexed":true,"internalType":"address"},{"name":"tokenId","type":"uint256","indexed":true,"internalType":"uint256"}],"anonymous":false},{"type":"event","name":"ApprovalForAll","inputs":[{"name":"owner","type":"address","indexed":true,"internalType":"address"},{"name":"operator","type":"address","indexed":true,"internalType":"address"},{"name":"approved","type":"bool","indexed":false,"internalType":"bool"}],"anonymous":false},{"type":"event","name":"BatchMetadataUpdate","inputs":[{"name":"_fromTokenId","type":"uint256","indexed":false,"internalType":"uint256"},{"name":"_toTokenId","type":"uint256","indexed":false,"internalType":"uint256"}],"anonymous":false},{"type":"event","name":"BiometricKeyRegistered","inputs":[{"name":"user","type":"address","indexed":true,"internalType":"address"},{"name":"publicKeyX","type":"bytes32","indexed":false,"internalType":"bytes32"},{"name":"publicKeyY","type":"bytes32","indexed":false,"internalType":"bytes32"}],"anonymous":false},{"type":"event","name":"MetadataUpdate","inputs":[{"name":"_tokenId","type":"uint256","indexed":false,"internalType":"uint256"}],"anonymous":false},{"type":"event","name":"Paused","inputs":[{"name":"account","type":"address","indexed":false,"internalType":"address"}],"anonymous":false},{"type":"event","name":"ProjectEndorsed","inputs":[{"name":"tokenId","type":"uint256","indexed":true,"internalType":"uint256"},{"name":"endorser","type":"address","indexed":true,"internalType":"address"},{"name":"newEndorsementCount","type":"uint256","indexed":false,"internalType":"uint256"}],"anonymous":false},{"type":"event","name":"ProjectMinted","inputs":[{"name":"tokenId","type":"uint256","indexed":true,"internalType":"uint256"},{"name":"projectId","type":"string","indexed":true,"internalType":"string"},{"name":"creator","type":"address","indexed":true,"internalType":"address"},{"name":"ipfsMetadataURI","type":"string","indexed":false,"internalType":"string"}],"anonymous":false},{"type":"event","name":"ProjectUpdated","inputs":[{"name":"tokenId","type":"uint256","indexed":true,"internalType":"uint256"},{"name":"newMetadataURI","type":"string","indexed":false,"internalType":"string"}],"anonymous":false},{"type":"event","name":"RoleAdminChanged","inputs":[{"name":"role","type":"bytes32","indexed":true,"internalType":"bytes32"},{"name":"previousAdminRole","type":"bytes32","indexed":true,"internalType":"bytes32"},{"name":"newAdminRole","type":"bytes32","indexed":true,"internalType":"bytes32"}],"anonymous":false},{"type":"event","name":"RoleGranted","inputs":[{"name":"role","type":"bytes32","indexed":true,"internalType":"bytes32"},{"name":"account","type":"address","indexed":true,"internalType":"address"},{"name":"sender","type":"address","indexed":true,"internalType":"address"}],"anonymous":false},{"type":"event","name":"RoleRevoked","inputs":[{"name":"role","type":"bytes32","indexed":true,"internalType":"bytes32"},{"name":"account","type":"address","indexed":true,"internalType":"address"},{"name":"sender","type":"address","indexed":true,"internalType":"address"}],"anonymous":false},{"type":"event","name":"Transfer","inputs":[{"name":"from","type":"address","indexed":true,"internalType":"address"},{"name":"to","type":"address","indexed":true,"internalType":"address"},{"name":"tokenId","type":"uint256","indexed":true,"internalType":"uint256"}],"anonymous":false},{"type":"event","name":"Unpaused","inputs":[{"name":"account","type":"address","indexed":false,"internalType":"address"}],"anonymous":false},{"type":"error","name":"AccessControlBadConfirmation","inputs":[]},{"type":"error","name":"AccessControlUnauthorizedAccount","inputs":[{"name":"account","type":"address","internalType":"address"},{"name":"neededRole","type":"bytes32","internalType":"bytes32"}]},{"type":"error","name":"ERC721EnumerableForbiddenBatchMint","inputs":[]},{"type":"error","name":"ERC721IncorrectOwner","inputs":[{"name":"sender","type":"address","internalType":"address"},{"name":"tokenId","type":"uint256","internalType":"uint256"},{"name":"owner","type":"address","internalType":"address"}]},{"type":"error","name":"ERC721InsufficientApproval","inputs":[{"name":"operator","type":"address","internalType":"address"},{"name":"tokenId","type":"uint256","internalType":"uint256"}]},{"type":"error","name":"ERC721InvalidApprover","inputs":[{"name":"approver","type":"address","internalType":"address"}]},{"type":"error","name":"ERC721InvalidOperator","inputs":[{"name":"operator","type":"address","internalType":"address"}]},{"type":"error","name":"ERC721InvalidOwner","inputs":[{"name":"owner","type":"address","internalType":"address"}]},{"type":"error","name":"ERC721InvalidReceiver","inputs":[{"name":"receiver","type":"address","internalType":"address"}]},{"type":"error","name":"ERC721InvalidSender","inputs":[{"name":"sender","type":"address","internalType":"address"}]},{"type":"error","name":"ERC721NonexistentToken","inputs":[{"name":"tokenId","type":"uint256","internalType":"uint256"}]},{"type":"error","name":"ERC721OutOfBoundsIndex","inputs":[{"name":"owner","type":"address","internalType":"address"},{"name":"index","type":"uint256","internalType":"uint256"}]},{"type":"error","name":"EnforcedPause","inputs":[]},{"type":"error","name":"ExpectedPause","inputs":[]},{"type":"error","name":"ReentrancyGuardReentrantCall","inputs":[]}],"bytecode":{"object":"0x60806040526103e8601155348015610015575f80fd5b506040518060400160405280600a815260200169141c9bda9958dd13919560b21b8152506040518060400160405280600381526020016228292560e91b815250815f9081610063919061022e565b506001610070828261022e565b50505060016100896100866100c560201b60201c565b90565b556100945f336100e9565b506100bf7f9f2df0fed2c77648de5860a4cc508cd0818c85b8b8a1ab4ceeef8d981c8956a6336100e9565b506102ed565b7f9b779b17422d0df92223018b32b4d1fa46e071723d6817e2486d003becc55f0090565b5f828152600b602090815260408083206001600160a01b038516845290915281205460ff1661018d575f838152600b602090815260408083206001600160a01b03861684529091529020805460ff191660011790556101453390565b6001600160a01b0316826001600160a01b0316847f2f8788117e7eff1d82e926ec794901d17c78024a50270940304540a733656f0d60405160405180910390a4506001610190565b505f5b92915050565b634e487b7160e01b5f52604160045260245ffd5b600181811c908216806101be57607f821691505b6020821081036101dc57634e487b7160e01b5f52602260045260245ffd5b50919050565b601f82111561022957805f5260205f20601f840160051c810160208510156102075750805b601f840160051c820191505b81811015610226575f8155600101610213565b50505b505050565b81516001600160401b0381111561024757610247610196565b61025b8161025584546101aa565b846101e2565b602080601f83116001811461028e575f84156102775750858301515b5f19600386901b1c1916600185901b1785556102e5565b5f85815260208120601f198616915b828110156102bc5788860151825594840194600190910190840161029d565b50858210156102d957878501515f19600388901b60f8161c191681555b505060018460011b0185555b505050505050565b61359a806102fa5f395ff3fe608060405234801561000f575f80fd5b506004361061023f575f3560e01c80636b0214bf11610135578063a22cb465116100b4578063df3c539211610079578063df3c53921461055d578063e985e9c514610570578063f0f3f2c814610583578063f1a68943146105a3578063f35c220b146105b6575f80fd5b8063a22cb465146104ea578063b88d4fde146104fd578063c87b56dd14610510578063d539139314610523578063d547741f1461054a575f80fd5b80638bbcf243116100fa5780638bbcf2431461048a57806391546c34146104b557806391d14854146104c857806395d89b41146104db578063a217fddf146104e3575f80fd5b80636b0214bf1461044057806370a082311461044957806380f453481461045c5780638456cb591461046f57806386a3250414610477575f80fd5b80632f2ff15d116101c15780634f6ccce7116101865780634f6ccce7146103d557806358cbcf54146103e85780635c975abb146103fb5780636352211e14610406578063673d56c714610419575f80fd5b80632f2ff15d146103815780632f745c591461039457806336568abe146103a75780633f4ba83a146103ba57806342842e0e146103c2575f80fd5b8063107046bd11610207578063107046bd146102e857806318160ddd1461030d57806323b872dd1461031f57806324596cec14610332578063248a9ca31461035f575f80fd5b806301ffc9a71461024357806306fdde031461026b578063081812fc14610280578063090955b2146102ab578063095ea7b3146102d3575b5f80fd5b610256610251366004612de2565b6105c9565b60405190151581526020015b60405180910390f35b6102736105d9565b6040516102629190612e2b565b61029361028e366004612e3d565b610668565b6040516001600160a01b039091168152602001610262565b6102936102b9366004612e3d565b60126020525f90815260409020546001600160a01b031681565b6102e66102e1366004612e6f565b61068f565b005b6102fb6102f6366004612e3d565b61069e565b60405161026296959493929190612e97565b600d545b604051908152602001610262565b6102e661032d366004612ee9565b6107ea565b610256610340366004612f22565b601060209081525f928352604080842090915290825290205460ff1681565b61031161036d366004612e3d565b5f908152600b602052604090206001015490565b6102e661038f366004612f22565b610878565b6103116103a2366004612e6f565b61089c565b6102e66103b5366004612f22565b6108ff565b6102e6610937565b6102e66103d0366004612ee9565b61094c565b6103116103e3366004612e3d565b610966565b6103116103f6366004612ff1565b6109bb565b600c5460ff16610256565b610293610414366004612e3d565b6109e2565b6103117fc6673a3a483412091345576f84c526ab2716c6e2fefbdda017e283fcca33571281565b61031160115481565b610311610457366004613023565b6109ec565b6102e661046a366004612e3d565b610a31565b6102e6610bd9565b61031161048536600461303c565b610beb565b610311610498366004612ff1565b8051602081830181018051600f8252928201919093012091525481565b6102e66104c33660046130cf565b610e9f565b6102566104d6366004612f22565b610f85565b610273610faf565b6103115f81565b6102e66104f8366004613113565b610fbe565b6102e661050b36600461314c565b610fc9565b61027361051e366004612e3d565b610fe1565b6103117f9f2df0fed2c77648de5860a4cc508cd0818c85b8b8a1ab4ceeef8d981c8956a681565b6102e6610558366004612f22565b610fec565b6102e661056b3660046131b7565b611010565b61025661057e3660046131ee565b611326565b610596610591366004612e3d565b611353565b6040516102629190613216565b6102e66105b1366004612e3d565b611537565b6102e66105c436600461328b565b611547565b5f6105d382611678565b92915050565b60605f80546105e7906132ab565b80601f0160208091040260200160405190810160405280929190818152602001828054610613906132ab565b801561065e5780601f106106355761010080835404028352916020019161065e565b820191905f5260205f20905b81548152906001019060200180831161064157829003601f168201915b5050505050905090565b5f6106728261169c565b505f828152600460205260409020546001600160a01b03166105d3565b61069a8282336116d4565b5050565b600e6020525f9081526040902080546001820180549192916106bf906132ab565b80601f01602080910402602001604051908101604052809291908181526020018280546106eb906132ab565b80156107365780601f1061070d57610100808354040283529160200191610736565b820191905f5260205f20905b81548152906001019060200180831161071957829003601f168201915b50505050509080600201805461074b906132ab565b80601f0160208091040260200160405190810160405280929190818152602001828054610777906132ab565b80156107c25780601f10610799576101008083540402835291602001916107c2565b820191905f5260205f20905b8154815290600101906020018083116107a557829003601f168201915b505050506003830154600484015460059094015492936001600160a01b039091169290915086565b6001600160a01b03821661081857604051633250574960e11b81525f60048201526024015b60405180910390fd5b5f6108248383336116e1565b9050836001600160a01b0316816001600160a01b031614610872576040516364283d7b60e01b81526001600160a01b038086166004830152602482018490528216604482015260640161080f565b50505050565b5f828152600b6020526040902060010154610892816116f5565b61087283836116ff565b5f6108a6836109ec565b82106108d75760405163295f44f760e21b81526001600160a01b03841660048201526024810183905260440161080f565b506001600160a01b03919091165f908152600760209081526040808320938352929052205490565b6001600160a01b03811633146109285760405163334bd91960e11b815260040160405180910390fd5b6109328282611790565b505050565b5f610941816116f5565b6109496117fb565b50565b61093283838360405180602001604052805f815250610fc9565b5f610970600d5490565b82106109985760405163295f44f760e21b81525f60048201526024810183905260440161080f565b600982815481106109ab576109ab6132e3565b905f5260205f2001549050919050565b5f600f826040516109cc919061330e565b9081526020016040518091039020549050919050565b5f6105d38261169c565b5f6001600160a01b038216610a16576040516322718ad960e21b81525f600482015260240161080f565b506001600160a01b03165f9081526003602052604090205490565b610a3961184d565b610a41611873565b5f818152600260205260409020546001600160a01b0316610a745760405162461bcd60e51b815260040161080f90613319565b5f81815260106020908152604080832033845290915290205460ff1615610add5760405162461bcd60e51b815260206004820152601d60248201527f416c726561647920656e646f7273656420746869732070726f6a656374000000604482015260640161080f565b6011545f828152600e602052604090206005015410610b395760405162461bcd60e51b815260206004820152601860248201527713585e08195b991bdc9cd95b595b9d1cc81c995858da195960421b604482015260640161080f565b5f8181526010602090815260408083203384528252808320805460ff19166001179055838352600e9091528120600501805491610b758361335b565b90915550505f818152600e6020908152604091829020600501549151918252339183917f5ed4e0b5b4290f49f0027b241ed00f7cf3ee99b2de575ba65d1bd3ab7a0b2631910160405180910390a361094960015f8051602061354583398151915255565b5f610be3816116f5565b61094961188e565b5f7f9f2df0fed2c77648de5860a4cc508cd0818c85b8b8a1ab4ceeef8d981c8956a6610c16816116f5565b610c1e61184d565b610c26611873565b600f85604051610c36919061330e565b9081526020016040518091039020545f14610c8c5760405162461bcd60e51b8152602060048201526016602482015275141c9bda9958dd08185b1c9958591e481b5a5b9d195960521b604482015260640161080f565b5f835111610cd35760405162461bcd60e51b8152602060048201526014602482015273496e76616c6964206d657461646174612055524960601b604482015260640161080f565b6001600160a01b038616610d295760405162461bcd60e51b815260206004820152601b60248201527f43616e6e6f74206d696e7420746f207a65726f20616464726573730000000000604482015260640161080f565b600d8054905f610d388361335b565b9091555050600d54610d4a87826118cb565b610d5481856118e4565b6040805160c08101825282815260208082018881528284018890526001600160a01b038b1660608401524260808401525f60a08401819052858152600e9092529290208151815591519091906001820190610daf90826133b7565b5060408201516002820190610dc490826133b7565b5060608201516003820180546001600160a01b0319166001600160a01b039092169190911790556080820151600482015560a0909101516005909101556040518190600f90610e1490899061330e565b908152602001604051809103902081905550866001600160a01b031686604051610e3e919061330e565b6040518091039020827f0c0a0c116863b8f09ee2443fb4a0ff53f5f06083fc501e030ff3406fbff347eb87604051610e769190612e2b565b60405180910390a49150610e9660015f8051602061354583398151915255565b50949350505050565b5f610ea9816116f5565b5f838152600260205260409020546001600160a01b0316610edc5760405162461bcd60e51b815260040161080f90613319565b5f825111610f235760405162461bcd60e51b8152602060048201526014602482015273496e76616c6964206d657461646174612055524960601b604482015260640161080f565b610f2d83836118e4565b5f838152600e60205260409020600201610f4783826133b7565b50827fd59ff490e419b5a72d916db4f77bc918cb64099584e8605b5a5aa543eacc0c0783604051610f789190612e2b565b60405180910390a2505050565b5f918252600b602090815260408084206001600160a01b0393909316845291905290205460ff1690565b6060600180546105e7906132ab565b61069a338383611933565b610fd48484846107ea565b61087233858585856119d1565b60606105d382611af8565b5f828152600b6020526040902060010154611006816116f5565b6108728383611790565b61101861184d565b611020611873565b5f858152600260205260409020546001600160a01b03166110535760405162461bcd60e51b815260040161080f90613319565b604080516020808201859052818301849052825180830384018152606090920183528151918101919091205f8181526012909252919020546001600160a01b0316806110e15760405162461bcd60e51b815260206004820152601960248201527f5075626c6963206b6579206e6f74207265676973746572656400000000000000604482015260640161080f565b6040516d195b991bdc9cd9541c9bda9958dd60921b602082015246602e8201526bffffffffffffffffffffffff1930606090811b8216604e84015283901b166062820152607681018890525f906096016040516020818303038152906040528051906020012090506111568188888888611bfb565b6111965760405162461bcd60e51b8152602060048201526011602482015270496e76616c6964207369676e617475726560781b604482015260640161080f565b5f8881526010602090815260408083206001600160a01b038616845290915290205460ff16156112085760405162461bcd60e51b815260206004820152601d60248201527f416c726561647920656e646f7273656420746869732070726f6a656374000000604482015260640161080f565b6011545f898152600e6020526040902060050154106112645760405162461bcd60e51b815260206004820152601860248201527713585e08195b991bdc9cd95b595b9d1cc81c995858da195960421b604482015260640161080f565b5f8881526010602090815260408083206001600160a01b03861684528252808320805460ff191660011790558a8352600e90915281206005018054916112a98361335b565b9190505550816001600160a01b0316887f5ed4e0b5b4290f49f0027b241ed00f7cf3ee99b2de575ba65d1bd3ab7a0b2631600e5f8c81526020019081526020015f20600501546040516112fe91815260200190565b60405180910390a350505061131f60015f8051602061354583398151915255565b5050505050565b6001600160a01b039182165f90815260056020908152604080832093909416825291909152205460ff1690565b6113916040518060c001604052805f815260200160608152602001606081526020015f6001600160a01b031681526020015f81526020015f81525090565b5f828152600260205260409020546001600160a01b03166113c45760405162461bcd60e51b815260040161080f90613319565b600e5f8381526020019081526020015f206040518060c00160405290815f82015481526020016001820180546113f9906132ab565b80601f0160208091040260200160405190810160405280929190818152602001828054611425906132ab565b80156114705780601f1061144757610100808354040283529160200191611470565b820191905f5260205f20905b81548152906001019060200180831161145357829003601f168201915b50505050508152602001600282018054611489906132ab565b80601f01602080910402602001604051908101604052809291908181526020018280546114b5906132ab565b80156115005780601f106114d757610100808354040283529160200191611500565b820191905f5260205f20905b8154815290600101906020018083116114e357829003601f168201915b505050918352505060038201546001600160a01b031660208201526004820154604082015260059091015460609091015292915050565b5f611541816116f5565b50601155565b6115518282611c36565b6115925760405162461bcd60e51b8152602060048201526012602482015271496e76616c6964207075626c6963206b657960701b604482015260640161080f565b604080516020808201859052818301849052825180830384018152606090920183528151918101919091205f8181526012909252919020546001600160a01b0316156116205760405162461bcd60e51b815260206004820152601d60248201527f5075626c6963206b657920616c72656164792072656769737465726564000000604482015260640161080f565b5f8181526012602090815260409182902080546001600160a01b031916339081179091558251868152918201859052917f31f399053bf9abf743a1c140700cb461b32859b3ea33d3b89b3d472c42dc18479101610f78565b5f6001600160e01b03198216637965db0b60e01b14806105d357506105d382611c9a565b5f818152600260205260408120546001600160a01b0316806105d357604051637e27328960e01b81526004810184905260240161080f565b6109328383836001611cbe565b5f6116ed848484611dc2565b949350505050565b6109498133611e8d565b5f61170a8383610f85565b611789575f838152600b602090815260408083206001600160a01b03861684529091529020805460ff191660011790556117413390565b6001600160a01b0316826001600160a01b0316847f2f8788117e7eff1d82e926ec794901d17c78024a50270940304540a733656f0d60405160405180910390a45060016105d3565b505f6105d3565b5f61179b8383610f85565b15611789575f838152600b602090815260408083206001600160a01b0386168085529252808320805460ff1916905551339286917ff6391f5c32d9c69d2a47ea670b442974b53935d1edc7fd64eb21e047a839171b9190a45060016105d3565b611803611ec6565b600c805460ff191690557f5db9ee0a495bf2e6ff9c91a7834c1ba4fdd244a5e8aa4e537bd38aeae4b073aa335b6040516001600160a01b03909116815260200160405180910390a1565b600c5460ff16156118715760405163d93c066560e01b815260040160405180910390fd5b565b61187b611ee9565b60025f8051602061354583398151915255565b61189661184d565b600c805460ff191660011790557f62e78cea01bee320cd4e420270b5ea74000d11b0c9f74754ebdbfc544b05a2586118303390565b61069a828260405180602001604052805f815250611f18565b5f8281526006602052604090206118fb82826133b7565b506040518281527ff8e1a15aba9398e019f0b49df1a4fde98ee17ae345cb5f6b5e2c27f5033e8ce79060200160405180910390a15050565b6001600160a01b03821661196557604051630b61174360e31b81526001600160a01b038316600482015260240161080f565b6001600160a01b038381165f81815260056020908152604080832094871680845294825291829020805460ff191686151590811790915591519182527f17307eab39ab6107e8899845ad3d59bd9653f200f220920489ca2b5937696c31910160405180910390a3505050565b6001600160a01b0383163b1561131f57604051630a85bd0160e11b81526001600160a01b0384169063150b7a0290611a13908890889087908790600401613473565b6020604051808303815f875af1925050508015611a4d575060408051601f3d908101601f19168201909252611a4a918101906134af565b60015b611ab4573d808015611a7a576040519150601f19603f3d011682016040523d82523d5f602084013e611a7f565b606091505b5080515f03611aac57604051633250574960e11b81526001600160a01b038516600482015260240161080f565b805160208201fd5b6001600160e01b03198116630a85bd0160e11b14611af057604051633250574960e11b81526001600160a01b038516600482015260240161080f565b505050505050565b6060611b038261169c565b505f8281526006602052604081208054611b1c906132ab565b80601f0160208091040260200160405190810160405280929190818152602001828054611b48906132ab565b8015611b935780601f10611b6a57610100808354040283529160200191611b93565b820191905f5260205f20905b815481529060010190602001808311611b7657829003601f168201915b505050505090505f611baf60408051602081019091525f815290565b905080515f03611bc0575092915050565b815115611bf2578082604051602001611bda9291906134ca565b60405160208183030381529060405292505050919050565b6116ed84611f2f565b5f805f611c0b8888888888611fa0565b9150915080611c2657611c21888888888861207b565b611c28565b815b925050505b95945050505050565b5f600160601b63ffffffff60c01b031980838409817f5ac635d8aa3a93e7b3ebbd55769886bc651d06b0cc53b0f63bce3c3e27d2604b8387856003600160601b0363ffffffff60c01b0319878b8c0908090894821191909310169190921416919050565b5f6001600160e01b0319821663780e9d6360e01b14806105d357506105d38261212b565b8080611cd257506001600160a01b03821615155b15611d93575f611ce18461169c565b90506001600160a01b03831615801590611d0d5750826001600160a01b0316816001600160a01b031614155b8015611d205750611d1e8184611326565b155b15611d495760405163a9fbf51f60e01b81526001600160a01b038416600482015260240161080f565b8115611d915783856001600160a01b0316826001600160a01b03167f8c5be1e5ebec7d5bd14f71427d1e84f3dd0314c0f7b2291e5b200ac8c7c3b92560405160405180910390a45b505b50505f90815260046020526040902080546001600160a01b0319166001600160a01b0392909216919091179055565b5f80611dcf85858561214f565b90506001600160a01b038116611e2b57611e2684600980545f838152600a60205260408120829055600182018355919091527f6e1540171b6c0c960b71a7020d9f60077f6af931a8bbf590da0223dacf75c7af0155565b611e4e565b846001600160a01b0316816001600160a01b031614611e4e57611e4e8185612241565b6001600160a01b038516611e6a57611e65846122be565b6116ed565b846001600160a01b0316816001600160a01b0316146116ed576116ed8585612365565b611e978282610f85565b61069a5760405163e2517d3f60e01b81526001600160a01b03821660048201526024810183905260440161080f565b600c5460ff1661187157604051638dfc202b60e01b815260040160405180910390fd5b5f805160206135458339815191525460020361187157604051633ee5aeb560e01b815260040160405180910390fd5b611f2283836123b3565b610932335f8585856119d1565b6060611f3a8261169c565b505f611f5060408051602081019091525f815290565b90505f815111611f6e5760405180602001604052805f815250611f99565b80611f7884612414565b604051602001611f899291906134ca565b6040516020818303038152906040525b9392505050565b5f80611fac86866124a4565b1580611fbf5750611fbd8484611c36565b155b15611fcf57505f90506001612071565b611fdc87878787876124fb565b15611fec57506001905080612071565b61205b7fbb5a52f42f9c9261ed4361f59422a1e30036e7c32b270c8807a419feca605023600560017fa71af64de5126a4a4e02b7922d66ce9415ce88a4c9d25514d91082c8725ac9577f5d47723c8fbe580bb369fec9c2665d8e30a435b9932645482e7c9f11e872296b6124fb565b1561206b57505f90506001612071565b505f9050805b9550959350505050565b5f61208685856124a4565b158061209957506120978383611c36565b155b156120a557505f611c2d565b5f6120b0848461253b565b90505f6120ca865f8051602061352583398151915261272e565b90505f5f80516020613525833981519152828a0990505f5f80516020613525833981519152838a0990505f61210085848461273d565b5090508961211b5f80516020613525833981519152836134de565b149b9a5050505050505050505050565b5f6001600160e01b03198216632483248360e11b14806105d357506105d382612861565b5f828152600260205260408120546001600160a01b039081169083161561217b5761217b8184866128b0565b6001600160a01b038116156121b5576121965f855f80611cbe565b6001600160a01b0381165f90815260036020526040902080545f190190555b6001600160a01b038516156121e3576001600160a01b0385165f908152600360205260409020805460010190555b5f8481526002602052604080822080546001600160a01b0319166001600160a01b0389811691821790925591518793918516917fddf252ad1be2c89b69c2b068fc378daa952ba7f163c4a11628f55a4df523b3ef91a4949350505050565b5f61224b836109ec565b5f838152600860209081526040808320546001600160a01b03881684526007909252909120919250908183146122a0575f83815260208281526040808320548584528184208190558352600890915290208290555b5f938452600860209081526040808620869055938552525081205550565b6009545f906122cf906001906134fd565b5f838152600a6020526040812054600980549394509092849081106122f6576122f66132e3565b905f5260205f20015490508060098381548110612315576123156132e3565b5f918252602080832090910192909255828152600a9091526040808220849055858252812055600980548061234c5761234c613510565b600190038181905f5260205f20015f9055905550505050565b5f6001612371846109ec565b61237b91906134fd565b6001600160a01b039093165f908152600760209081526040808320868452825280832085905593825260089052919091209190915550565b6001600160a01b0382166123dc57604051633250574960e11b81525f600482015260240161080f565b5f6123e883835f6116e1565b90506001600160a01b03811615610932576040516339e3563760e11b81525f600482015260240161080f565b60605f61242083612914565b60010190505f8167ffffffffffffffff81111561243f5761243f612f4c565b6040519080825280601f01601f191660200182016040528015612469576020820181803683370190505b5090508181016020015b5f19016f181899199a1a9b1b9c1cb0b131b232b360811b600a86061a8153600a850494508461247357509392505050565b5f82158015906124c057505f8051602061352583398151915283105b80156124cb57508115155b8015611f995750507f7fffffff800000007fffffffffffffffde737d56d38bcf4279dce5617e3192a81015919050565b5f6040518681528560208201528460408201528360608201528260808201525f805260205f60a0836101005afa61252e57fe5b50505f5195945050505050565b612543612d86565b60405180606001604052805f81526020015f81526020015f815250815f60108110612570576125706132e3565b602002018190525060405180606001604052808481526020018381526020016001815250816001601081106125a7576125a76132e3565b602002018190525060405180606001604052807f6b17d1f2e12c4247f8bce6e563a440f277037d812deb33a0f4a13945d898c29681526020017f4fe342e2fe1a7f9b8ee7eb4a7c0f9e162bce33576b315ececbb6406837bf51f5815260200160018152508160046010811061261e5761261e6132e3565b60200201526126348160015b60200201516129eb565b604082015261264481600461262a565b6101008201526020810151612661908260025b6020020151612a47565b606082015261267a8160015b6020020151826004612657565b60a082015261268a81600261266d565b60c082015261269a81600361266d565b60e08201526126b38160015b6020020151826008612657565b6101208201526126c48160026126a6565b6101408201526126d58160036126a6565b6101608201526126e68160046126a6565b6101808201526127008160015b602002015182600c612657565b6101a08201526127118160026126f3565b6101c08201526127228160036126f3565b6101e082015292915050565b5f611f99836002840384612aa5565b5f805f805f805b60808110156128455781156127785761275e848484612ac6565b91955093509150612770848484612ac6565b919550935091505b600c60fc89901c1660fe88901c17898160108110612798576127986132e3565b6020020151604001511561283157825f03612807578981601081106127bf576127bf6132e3565b6020020151518a82601081106127d7576127d76132e3565b6020020151602001518b83601081106127f2576127f26132e3565b60200201516040015191965094509250612831565b6128298a826010811061281c5761281c6132e3565b6020020151868686612b49565b919650945092505b50600297881b979690961b95600101612744565b50612851838383612c75565b945094505050505b935093915050565b5f6001600160e01b031982166380ac58cd60e01b148061289157506001600160e01b03198216635b5e139f60e01b145b806105d357506301ffc9a760e01b6001600160e01b03198316146105d3565b6128bb838383612cc2565b610932576001600160a01b0383166128e957604051637e27328960e01b81526004810182905260240161080f565b60405163177e802f60e01b81526001600160a01b03831660048201526024810182905260440161080f565b5f8072184f03e93ff9f4daa797ed6e38ed64bf6a1f0160401b83106129525772184f03e93ff9f4daa797ed6e38ed64bf6a1f0160401b830492506040015b6d04ee2d6d415b85acef8100000000831061297e576d04ee2d6d415b85acef8100000000830492506020015b662386f26fc10000831061299c57662386f26fc10000830492506010015b6305f5e10083106129b4576305f5e100830492506008015b61271083106129c857612710830492506004015b606483106129da576064830492506002015b600a83106105d35760010192915050565b612a0c60405180606001604052805f81526020015f81526020015f81525090565b5f805f612a25855f015186602001518760400151612ac6565b6040805160608101825293845260208401929092529082015295945050505050565b612a6860405180606001604052805f81526020015f81526020015f81525090565b5f805f612a8286865f015187602001518860400151612b49565b604080516060810182529384526020840192909252908201529695505050505050565b5f805f612ab3868686612d23565b9150915081611c2d57611c2d6012612d75565b5f805f600160601b63ffffffff60c01b031980868709818687098283848384096003600160601b0363ffffffff60c01b03190984858c8d096003090890508283838b09600409838482600209850385848509089650838485858609600809850385868a880385088509089550505050808186880960020991505093509350939050565b5f805f600160601b63ffffffff60c01b0319604088015181818209828388858a8b090960208c0151098381850385868686098c090884858a8b098d51098581870387868f0908935081158415168015612ba95760018114612bef57612c64565b868586098788898386096002098903898a848a098b038b88890908089a5087888983890987098903898a8e8c038c8689090887090899505086878c880986099750612c64565b8c8c8c898283098a8283098b8c8d8384096003600160601b0363ffffffff60c01b0319098d8e8889096003090890508b8c83870960040994508b8c866002098d038d838409089e508b8c8384096008098c0391508b8f8d03860894508b828d878409089d505050898a8284096002099a505050505b505050505050509450945094915050565b5f80825f03612c8857505f905080612859565b600160601b63ffffffff60c01b03195f612ca2858361272e565b905081818209828189099450828383830988099350505050935093915050565b5f6001600160a01b038316158015906116ed5750826001600160a01b0316846001600160a01b03161480612cfb5750612cfb8484611326565b806116ed5750505f908152600460205260409020546001600160a01b03908116911614919050565b5f80825f03612d3657505f905080612859565b60405160208152602080820152602060408201528560608201528460808201528360a082015260205f60c08360055afa9250505f519050935093915050565b634e487b715f52806020526024601cfd5b6040518061020001604052806010905b612db760405180606001604052805f81526020015f81526020015f81525090565b815260200190600190039081612d965790505090565b6001600160e01b031981168114610949575f80fd5b5f60208284031215612df2575f80fd5b8135611f9981612dcd565b5f81518084528060208401602086015e5f602082860101526020601f19601f83011685010191505092915050565b602081525f611f996020830184612dfd565b5f60208284031215612e4d575f80fd5b5035919050565b80356001600160a01b0381168114612e6a575f80fd5b919050565b5f8060408385031215612e80575f80fd5b612e8983612e54565b946020939093013593505050565b86815260c060208201525f612eaf60c0830188612dfd565b8281036040840152612ec18188612dfd565b6001600160a01b039690961660608401525050608081019290925260a0909101529392505050565b5f805f60608486031215612efb575f80fd5b612f0484612e54565b9250612f1260208501612e54565b9150604084013590509250925092565b5f8060408385031215612f33575f80fd5b82359150612f4360208401612e54565b90509250929050565b634e487b7160e01b5f52604160045260245ffd5b5f67ffffffffffffffff80841115612f7a57612f7a612f4c565b604051601f8501601f19908116603f01168101908282118183101715612fa257612fa2612f4c565b81604052809350858152868686011115612fba575f80fd5b858560208301375f602087830101525050509392505050565b5f82601f830112612fe2575f80fd5b611f9983833560208501612f60565b5f60208284031215613001575f80fd5b813567ffffffffffffffff811115613017575f80fd5b6116ed84828501612fd3565b5f60208284031215613033575f80fd5b611f9982612e54565b5f805f806080858703121561304f575f80fd5b61305885612e54565b9350602085013567ffffffffffffffff80821115613074575f80fd5b61308088838901612fd3565b94506040870135915080821115613095575f80fd5b6130a188838901612fd3565b935060608701359150808211156130b6575f80fd5b506130c387828801612fd3565b91505092959194509250565b5f80604083850312156130e0575f80fd5b82359150602083013567ffffffffffffffff8111156130fd575f80fd5b61310985828601612fd3565b9150509250929050565b5f8060408385031215613124575f80fd5b61312d83612e54565b915060208301358015158114613141575f80fd5b809150509250929050565b5f805f806080858703121561315f575f80fd5b61316885612e54565b935061317660208601612e54565b925060408501359150606085013567ffffffffffffffff811115613198575f80fd5b8501601f810187136131a8575f80fd5b6130c387823560208401612f60565b5f805f805f60a086880312156131cb575f80fd5b505083359560208501359550604085013594606081013594506080013592509050565b5f80604083850312156131ff575f80fd5b61320883612e54565b9150612f4360208401612e54565b60208152815160208201525f602083015160c0604084015261323b60e0840182612dfd565b90506040840151601f198483030160608501526132588282612dfd565b91505060018060a01b036060850151166080840152608084015160a084015260a084015160c08401528091505092915050565b5f806040838503121561329c575f80fd5b50508035926020909101359150565b600181811c908216806132bf57607f821691505b6020821081036132dd57634e487b7160e01b5f52602260045260245ffd5b50919050565b634e487b7160e01b5f52603260045260245ffd5b5f81518060208401855e5f93019283525090919050565b5f611f9982846132f7565b602080825260149082015273151bdad95b88191bd95cc81b9bdd08195e1a5cdd60621b604082015260600190565b634e487b7160e01b5f52601160045260245ffd5b5f6001820161336c5761336c613347565b5060010190565b601f82111561093257805f5260205f20601f840160051c810160208510156133985750805b601f840160051c820191505b8181101561131f575f81556001016133a4565b815167ffffffffffffffff8111156133d1576133d1612f4c565b6133e5816133df84546132ab565b84613373565b602080601f831160018114613418575f84156134015750858301515b5f19600386901b1c1916600185901b178555611af0565b5f85815260208120601f198616915b8281101561344657888601518255948401946001909101908401613427565b508582101561346357878501515f19600388901b60f8161c191681555b5050505050600190811b01905550565b6001600160a01b03858116825284166020820152604081018390526080606082018190525f906134a590830184612dfd565b9695505050505050565b5f602082840312156134bf575f80fd5b8151611f9981612dcd565b5f6116ed6134d883866132f7565b846132f7565b5f826134f857634e487b7160e01b5f52601260045260245ffd5b500690565b818103818111156105d3576105d3613347565b634e487b7160e01b5f52603160045260245ffdfeffffffff00000000ffffffffffffffffbce6faada7179e84f3b9cac2fc6325519b779b17422d0df92223018b32b4d1fa46e071723d6817e2486d003becc55f00a2646970667358221220eeaeaa93b8c47a076de6e31d70465aa6c9e46434e3b1b4e603fae35c39c4d48164736f6c63430008190033","linkReferences":{}},"methodIdentifiers":{"DEFAULT_ADMIN_ROLE()":"a217fddf","ENDORSER_ROLE()":"673d56c7","MINTER_ROLE()":"d5391393","approve(address,uint256)":"095ea7b3","balanceOf(address)":"70a08231","endorseProject(uint256)":"80f45348","endorseProjectWithBiometric(uint256,bytes32,bytes32,bytes32,bytes32)":"df3c5392","endorsements(uint256,address)":"24596cec","getApproved(uint256)":"081812fc","getProject(uint256)":"f0f3f2c8","getRoleAdmin(bytes32)":"248a9ca3","getTokenIdByProjectId(string)":"58cbcf54","grantRole(bytes32,address)":"2f2ff15d","hasRole(bytes32,address)":"91d14854","isApprovedForAll(address,address)":"e985e9c5","maxEndorsementsPerProject()":"6b0214bf","mintProject(address,string,string,string)":"86a32504","name()":"06fdde03","ownerOf(uint256)":"6352211e","pause()":"8456cb59","paused()":"5c975abb","projectIdToTokenId(string)":"8bbcf243","projects(uint256)":"107046bd","registerSecp256r1Key(bytes32,bytes32)":"f35c220b","renounceRole(bytes32,address)":"36568abe","revokeRole(bytes32,address)":"d547741f","safeTransferFrom(address,address,uint256)":"42842e0e","safeTransferFrom(address,address,uint256,bytes)":"b88d4fde","secp256r1ToAddress(bytes32)":"090955b2","setApprovalForAll(address,bool)":"a22cb465","setMaxEndorsements(uint256)":"f1a68943","supportsInterface(bytes4)":"01ffc9a7","symbol()":"95d89b41","tokenByIndex(uint256)":"4f6ccce7","tokenOfOwnerByIndex(address,uint256)":"2f745c59","tokenURI(uint256)":"c87b56dd","totalSupply()":"18160ddd","transferFrom(address,address,uint256)":"23b872dd","unpause()":"3f4ba83a","updateProjectMetadata(uint256,string)":"91546c34"},"id":1}