{"abi":[{"type":"constructor","inputs":[{"name":"_portfolioToken","type":"address","internalType":"address"}],"stateMutability":"nonpayable"},{"type":"function","name":"ADMIN_ROLE","inputs":[],"outputs":[{"name":"","type":"bytes32","internalType":"bytes32"}],"stateMutability":"view"},{"type":"function","name":"DEFAULT_ADMIN_ROLE","inputs":[],"outputs":[{"name":"","type":"bytes32","internalType":"bytes32"}],"stateMutability":"view"},{"type":"function","name":"checkVote","inputs":[{"name":"voter","type":"address","internalType":"address"},{"name":"projectId","type":"string","internalType":"string"}],"outputs":[{"name":"","type":"bool","internalType":"bool"}],"stateMutability":"view"},{"type":"function","name":"getRoleAdmin","inputs":[{"name":"role","type":"bytes32","internalType":"bytes32"}],"outputs":[{"name":"","type":"bytes32","internalType":"bytes32"}],"stateMutability":"view"},{"type":"function","name":"getTotalVotes","inputs":[],"outputs":[{"name":"","type":"uint256","internalType":"uint256"}],"stateMutability":"view"},{"type":"function","name":"getTotalVotesByAddress","inputs":[{"name":"voter","type":"address","internalType":"address"}],"outputs":[{"name":"","type":"uint256","internalType":"uint256"}],"stateMutability":"view"},{"type":"function","name":"getVote","inputs":[{"name":"index","type":"uint256","internalType":"uint256"}],"outputs":[{"name":"","type":"tuple","internalType":"struct ProjectVoting.Vote","components":[{"name":"voter","type":"address","internalType":"address"},{"name":"projectId","type":"string","internalType":"string"},{"name":"timestamp","type":"uint256","internalType":"uint256"},{"name":"tokensBurned","type":"uint256","internalType":"uint256"}]}],"stateMutability":"view"},{"type":"function","name":"getVotes","inputs":[{"name":"projectId","type":"string","internalType":"string"}],"outputs":[{"name":"","type":"uint256","internalType":"uint256"}],"stateMutability":"view"},{"type":"function","name":"grantRole","inputs":[{"name":"role","type":"bytes32","internalType":"bytes32"},{"name":"account","type":"address","internalType":"address"}],"outputs":[],"stateMutability":"nonpayable"},{"type":"function","name":"hasRole","inputs":[{"name":"role","type":"bytes32","internalType":"bytes32"},{"name":"account","type":"address","internalType":"address"}],"outputs":[{"name":"","type":"bool","internalType":"bool"}],"stateMutability":"view"},{"type":"function","name":"hasVoted","inputs":[{"name":"","type":"address","internalType":"address"},{"name":"","type":"string","internalType":"string"}],"outputs":[{"name":"","type":"bool","internalType":"bool"}],"stateMutability":"view"},{"type":"function","name":"maxVoteCost","inputs":[],"outputs":[{"name":"","type":"uint256","internalType":"uint256"}],"stateMutability":"view"},{"type":"function","name":"minVoteCost","inputs":[],"outputs":[{"name":"","type":"uint256","internalType":"uint256"}],"stateMutability":"view"},{"type":"function","name":"pause","inputs":[],"outputs":[],"stateMutability":"nonpayable"},{"type":"function","name":"paused","inputs":[],"outputs":[{"name":"","type":"bool","internalType":"bool"}],"stateMutability":"view"},{"type":"function","name":"portfolioToken","inputs":[],"outputs":[{"name":"","type":"address","internalType":"contract PortfolioToken"}],"stateMutability":"view"},{"type":"function","name":"projectVotes","inputs":[{"name":"","type":"string","internalType":"string"}],"outputs":[{"name":"","type":"uint256","internalType":"uint256"}],"stateMutability":"view"},{"type":"function","name":"registerSecp256r1Key","inputs":[{"name":"publicKeyX","type":"bytes32","internalType":"bytes32"},{"name":"publicKeyY","type":"bytes32","internalType":"bytes32"}],"outputs":[],"stateMutability":"nonpayable"},{"type":"function","name":"renounceRole","inputs":[{"name":"role","type":"bytes32","internalType":"bytes32"},{"name":"callerConfirmation","type":"address","internalType":"address"}],"outputs":[],"stateMutability":"nonpayable"},{"type":"function","name":"revokeRole","inputs":[{"name":"role","type":"bytes32","internalType":"bytes32"},{"name":"account","type":"address","internalType":"address"}],"outputs":[],"stateMutability":"nonpayable"},{"type":"function","name":"secp256r1ToAddress","inputs":[{"name":"","type":"bytes32","internalType":"bytes32"}],"outputs":[{"name":"","type":"address","internalType":"address"}],"stateMutability":"view"},{"type":"function","name":"setVoteCost","inputs":[{"name":"newCost","type":"uint256","internalType":"uint256"}],"outputs":[],"stateMutability":"nonpayable"},{"type":"function","name":"supportsInterface","inputs":[{"name":"interfaceId","type":"bytes4","internalType":"bytes4"}],"outputs":[{"name":"","type":"bool","internalType":"bool"}],"stateMutability":"view"},{"type":"function","name":"totalVotesByAddress","inputs":[{"name":"","type":"address","internalType":"address"}],"outputs":[{"name":"","type":"uint256","internalType":"uint256"}],"stateMutability":"view"},{"type":"function","name":"unpause","inputs":[],"outputs":[],"stateMutability":"nonpayable"},{"type":"function","name":"vote","inputs":[{"name":"projectId","type":"string","internalType":"string"}],"outputs":[],"stateMutability":"nonpayable"},{"type":"function","name":"voteCost","inputs":[],"outputs":[{"name":"","type":"uint256","internalType":"uint256"}],"stateMutability":"view"},{"type":"function","name":"voteWithBiometric","inputs":[{"name":"projectId","type":"string","internalType":"string"},{"name":"r","type":"bytes32","internalType":"bytes32"},{"name":"s","type":"bytes32","internalType":"bytes32"},{"name":"publicKeyX","type":"bytes32","internalType":"bytes32"},{"name":"publicKeyY","type":"bytes32","internalType":"bytes32"}],"outputs":[],"stateMutability":"nonpayable"},{"type":"function","name":"votes","inputs":[{"name":"","type":"uint256","internalType":"uint256"}],"outputs":[{"name":"voter","type":"address","internalType":"address"},{"name":"projectId","type":"string","internalType":"string"},{"name":"timestamp","type":"uint256","internalType":"uint256"},{"name":"tokensBurned","type":"uint256","internalType":"uint256"}],"stateMutability":"view"},{"type":"event","name":"BiometricKeyRegistered","inputs":[{"name":"user","type":"address","indexed":true,"internalType":"address"},{"name":"publicKeyX","type":"bytes32","indexed":false,"internalType":"bytes32"},{"name":"publicKeyY","type":"bytes32","indexed":false,"internalType":"bytes32"}],"anonymous":false},{"type":"event","name":"Paused","inputs":[{"name":"account","type":"address","indexed":false,"internalType":"address"}],"anonymous":false},{"type":"event","name":"RoleAdminChanged","inputs":[{"name":"role","type":"bytes32","indexed":true,"internalType":"bytes32"},{"name":"previousAdminRole","type":"bytes32","indexed":true,"internalType":"bytes32"},{"name":"newAdminRole","type":"bytes32","indexed":true,"internalType":"bytes32"}],"anonymous":false},{"type":"event","name":"RoleGranted","inputs":[{"name":"role","type":"bytes32","indexed":true,"internalType":"bytes32"},{"name":"account","type":"address","indexed":true,"internalType":"address"},{"name":"sender","type":"address","indexed":true,"internalType":"address"}],"anonymous":false},{"type":"event","name":"RoleRevoked","inputs":[{"name":"role","type":"bytes32","indexed":true,"internalType":"bytes32"},{"name":"account","type":"address","indexed":true,"internalType":"address"},{"name":"sender","type":"address","indexed":true,"internalType":"address"}],"anonymous":false},{"type":"event","name":"Unpaused","inputs":[{"name":"account","type":"address","indexed":false,"internalType":"address"}],"anonymous":false},{"type":"event","name":"VoteCast","inputs":[{"name":"voter","type":"address","indexed":true,"internalType":"address"},{"name":"projectId","type":"string","indexed":true,"internalType":"string"},{"name":"timestamp","type":"uint256","indexed":false,"internalType":"uint256"},{"name":"tokensBurned","type":"uint256","indexed":false,"internalType":"uint256"}],"anonymous":false},{"type":"event","name":"VoteCostUpdated","inputs":[{"name":"oldCost","type":"uint256","indexed":false,"internalType":"uint256"},{"name":"newCost","type":"uint256","indexed":false,"internalType":"uint256"}],"anonymous":false},{"type":"error","name":"AccessControlBadConfirmation","inputs":[]},{"type":"error","name":"AccessControlUnauthorizedAccount","inputs":[{"name":"account","type":"address","internalType":"address"},{"name":"neededRole","type":"bytes32","internalType":"bytes32"}]},{"type":"error","name":"EnforcedPause","inputs":[]},{"type":"error","name":"ExpectedPause","inputs":[]},{"type":"error","name":"ReentrancyGuardReentrantCall","inputs":[]}],"bytecode":{"object":"0x6080604052678ac7230489e80000600255670de0b6b3a7640000600755683635c9adc5dea00000600855348015610034575f80fd5b506040516125ec3803806125ec8339810160408190526100539161017c565b60017f9b779b17422d0df92223018b32b4d1fa46e071723d6817e2486d003becc55f005560018054610100600160a81b0319166101006001600160a01b038416021790556100a15f336100d3565b506100cc7fa49807205ce4d355092ef5a8a18f56e8913cf4a201fbe287825b095693c21775336100d3565b50506101a9565b5f828152602081815260408083206001600160a01b038516845290915281205460ff16610173575f838152602081815260408083206001600160a01b03861684529091529020805460ff1916600117905561012b3390565b6001600160a01b0316826001600160a01b0316847f2f8788117e7eff1d82e926ec794901d17c78024a50270940304540a733656f0d60405160405180910390a4506001610176565b505f5b92915050565b5f6020828403121561018c575f80fd5b81516001600160a01b03811681146101a2575f80fd5b9392505050565b612436806101b65f395ff3fe608060405234801561000f575f80fd5b50600436106101c6575f3560e01c80635ec2e196116100fe578063b14ee1401161009e578063c9d6143b1161006e578063c9d6143b1461044d578063d547741f14610460578063f35c220b14610473578063fc36e15b14610486575f80fd5b8063b14ee140146103bc578063b71a858f146103db578063c4c91110146103e4578063c68470601461040f575f80fd5b80638456cb59116100d95780638456cb591461039257806391d148541461039a5780639a0e7d66146103ad578063a217fddf146103b5575f80fd5b80635ec2e1961461034057806375b238fc14610358578063805265e51461037f575f80fd5b806336568abe1161016957806356bec45d1161014457806356bec45d146102ca5780635a55c1f0146102f25780635c975abb146103125780635df813301461031d575f80fd5b806336568abe146102a65780633f4ba83a146102b95780634c1b8ffd146102c1575f80fd5b8063248a9ca3116101a4578063248a9ca3146102475780632f2ff15d14610277578063308879bf1461028a5780633513f8fb1461029d575f80fd5b806301ffc9a7146101ca57806307da6127146101f2578063090955b214610207575b5f80fd5b6101dd6101d8366004611ec0565b610499565b60405190151581526020015b60405180910390f35b610205610200366004611f84565b6104cf565b005b61022f610215366004611fdc565b60096020525f90815260409020546001600160a01b031681565b6040516001600160a01b0390911681526020016101e9565b610269610255366004611fdc565b5f9081526020819052604090206001015490565b6040519081526020016101e9565b61020561028536600461200e565b6109cb565b610205610298366004611fdc565b6109f5565b61026960075481565b6102056102b436600461200e565b610ac5565b610205610afd565b61026960025481565b6102696102d8366004612038565b6001600160a01b03165f9081526005602052604090205490565b610305610300366004611fdc565b610b12565b6040516101e9919061207f565b60015460ff166101dd565b61033061032b366004611fdc565b610c77565b6040516101e994939291906120cc565b60015461022f9061010090046001600160a01b031681565b6102697fa49807205ce4d355092ef5a8a18f56e8913cf4a201fbe287825b095693c2177581565b61026961038d366004612102565b610d41565b610205610d68565b6101dd6103a836600461200e565b610d7a565b600654610269565b6102695f81565b6102696103ca366004612038565b60056020525f908152604090205481565b61026960085481565b6102696103f2366004612102565b805160208183018101805160038252928201919093012091525481565b6101dd61041d36600461213c565b600460209081525f9283526040909220815180830184018051928152908401929093019190912091525460ff1681565b6101dd61045b36600461213c565b610da2565b61020561046e36600461200e565b610de2565b610205610481366004612187565b610e06565b610205610494366004612102565b610f3f565b5f6001600160e01b03198216637965db0b60e01b14806104c957506301ffc9a760e01b6001600160e01b03198316145b92915050565b6104d76112f6565b6104df61131c565b5f8551116105345760405162461bcd60e51b815260206004820152601a60248201527f50726f6a6563742049442063616e6e6f7420626520656d70747900000000000060448201526064015b60405180910390fd5b604080516020808201859052818301849052825180830384018152606090920183528151918101919091205f8181526009909252919020546001600160a01b0316806105c25760405162461bcd60e51b815260206004820152601960248201527f5075626c6963206b6579206e6f74207265676973746572656400000000000000604482015260640161052b565b5f4630838a6040516020016105da94939291906121be565b6040516020818303038152906040528051906020012090506105ff8188888888611337565b61063f5760405162461bcd60e51b8152602060048201526011602482015270496e76616c6964207369676e617475726560781b604482015260640161052b565b6001600160a01b0382165f90815260046020526040908190209051610665908a9061220b565b9081526040519081900360200190205460ff16156106c55760405162461bcd60e51b815260206004820152601e60248201527f416c726561647920766f74656420666f7220746869732070726f6a6563740000604482015260640161052b565b6002546001546040516370a0823160e01b81526001600160a01b038581166004830152610100909204909116906370a0823190602401602060405180830381865afa158015610716573d5f803e3d5ffd5b505050506040513d601f19601f8201168201806040525081019061073a9190612216565b101561077e5760405162461bcd60e51b8152602060048201526013602482015272496e73756666696369656e7420746f6b656e7360681b604482015260640161052b565b60015460025460405163079cc67960e41b81526001600160a01b038581166004830152602482019290925261010090920416906379cc6790906044015f604051808303815f87803b1580156107d1575f80fd5b505af11580156107e3573d5f803e3d5ffd5b505050506003886040516107f7919061220b565b9081526040519081900360200190208054905f6108138361222d565b90915550506001600160a01b0382165f9081526004602052604090819020905160019190610842908b9061220b565b9081526040805160209281900383019020805460ff1916931515939093179092556001600160a01b0384165f90815260059091529081208054916108858361222d565b9091555050604080516080810182526001600160a01b038481168252602082018b815242938301939093526002546060830152600680546001810182555f9190915282517ff652222313e28459528d920b65115c16c04f3efc82aaedc97be59f3f377c0d3f600490920291820180546001600160a01b031916919093161782559251919290917ff652222313e28459528d920b65115c16c04f3efc82aaedc97be59f3f377c0d409091019061093a90826122cd565b50604082015181600201556060820151816003015550508760405161095f919061220b565b604080519182900382206002544284526020840152916001600160a01b038516917faca75e5e5ffb423956105dbf90eddb1cf12008b340f5a36c07086c1f74aa68d0910160405180910390a35050506109c460015f805160206123e183398151915255565b5050505050565b5f828152602081905260409020600101546109e581611372565b6109ef838361137c565b50505050565b7fa49807205ce4d355092ef5a8a18f56e8913cf4a201fbe287825b095693c21775610a1f81611372565b6007548210158015610a3357506008548211155b610a7f5760405162461bcd60e51b815260206004820152601760248201527f566f746520636f7374206f7574206f6620626f756e6473000000000000000000604482015260640161052b565b600280549083905560408051828152602081018590527f939ae121ae9565140bd177751444e68d1855cd2e61cd5b7fa141dbc3305c62fb910160405180910390a1505050565b6001600160a01b0381163314610aee5760405163334bd91960e11b815260040160405180910390fd5b610af8828261140b565b505050565b5f610b0781611372565b610b0f611474565b50565b610b4360405180608001604052805f6001600160a01b03168152602001606081526020015f81526020015f81525090565b6006548210610b8a5760405162461bcd60e51b8152602060048201526013602482015272496e646578206f7574206f6620626f756e647360681b604482015260640161052b565b60068281548110610b9d57610b9d61238d565b5f918252602091829020604080516080810190915260049092020180546001600160a01b031682526001810180549293919291840191610bdc90612251565b80601f0160208091040260200160405190810160405280929190818152602001828054610c0890612251565b8015610c535780601f10610c2a57610100808354040283529160200191610c53565b820191905f5260205f20905b815481529060010190602001808311610c3657829003601f168201915b50505050508152602001600282015481526020016003820154815250509050919050565b60068181548110610c86575f80fd5b5f918252602090912060049091020180546001820180546001600160a01b03909216935090610cb490612251565b80601f0160208091040260200160405190810160405280929190818152602001828054610ce090612251565b8015610d2b5780601f10610d0257610100808354040283529160200191610d2b565b820191905f5260205f20905b815481529060010190602001808311610d0e57829003601f168201915b5050505050908060020154908060030154905084565b5f600382604051610d52919061220b565b9081526020016040518091039020549050919050565b5f610d7281611372565b610b0f6114c6565b5f918252602082815260408084206001600160a01b0393909316845291905290205460ff1690565b6001600160a01b0382165f908152600460205260408082209051610dc790849061220b565b9081526040519081900360200190205460ff16905092915050565b5f82815260208190526040902060010154610dfc81611372565b6109ef838361140b565b610e108282611501565b610e515760405162461bcd60e51b8152602060048201526012602482015271496e76616c6964207075626c6963206b657960701b604482015260640161052b565b604080516020808201859052818301849052825180830384018152606090920183528151918101919091205f8181526009909252919020546001600160a01b031615610edf5760405162461bcd60e51b815260206004820152601d60248201527f5075626c6963206b657920616c72656164792072656769737465726564000000604482015260640161052b565b5f8181526009602090815260409182902080546001600160a01b031916339081179091558251868152918201859052917f31f399053bf9abf743a1c140700cb461b32859b3ea33d3b89b3d472c42dc1847910160405180910390a2505050565b610f476112f6565b610f4f61131c565b5f815111610f9f5760405162461bcd60e51b815260206004820152601a60248201527f50726f6a6563742049442063616e6e6f7420626520656d707479000000000000604482015260640161052b565b335f90815260046020526040908190209051610fbc90839061220b565b9081526040519081900360200190205460ff161561101c5760405162461bcd60e51b815260206004820152601e60248201527f416c726561647920766f74656420666f7220746869732070726f6a6563740000604482015260640161052b565b6002546001546040516370a0823160e01b81523360048201526101009091046001600160a01b0316906370a0823190602401602060405180830381865afa158015611069573d5f803e3d5ffd5b505050506040513d601f19601f8201168201806040525081019061108d9190612216565b10156110d15760405162461bcd60e51b8152602060048201526013602482015272496e73756666696369656e7420746f6b656e7360681b604482015260640161052b565b60015460025460405163079cc67960e41b815233600482015260248101919091526101009091046001600160a01b0316906379cc6790906044015f604051808303815f87803b158015611122575f80fd5b505af1158015611134573d5f803e3d5ffd5b50505050600381604051611148919061220b565b9081526040519081900360200190208054905f6111648361222d565b9091555050335f908152600460205260409081902090516001919061118a90849061220b565b9081526040805160209281900383019020805460ff191693151593909317909255335f90815260059091529081208054916111c48361222d565b9091555050604080516080810182523381526020810183815242928201929092526002546060820152600680546001810182555f9190915281517ff652222313e28459528d920b65115c16c04f3efc82aaedc97be59f3f377c0d3f600490920291820180546001600160a01b0319166001600160a01b0390921691909117815592519192917ff652222313e28459528d920b65115c16c04f3efc82aaedc97be59f3f377c0d409091019061127890826122cd565b50604082015181600201556060820151816003015550508060405161129d919061220b565b6040805191829003822060025442845260208401529133917faca75e5e5ffb423956105dbf90eddb1cf12008b340f5a36c07086c1f74aa68d0910160405180910390a3610b0f60015f805160206123e183398151915255565b60015460ff161561131a5760405163d93c066560e01b815260040160405180910390fd5b565b611324611565565b60025f805160206123e183398151915255565b5f805f6113478888888888611594565b91509150806113625761135d888888888861166f565b611364565b815b925050505b95945050505050565b610b0f813361171f565b5f6113878383610d7a565b611404575f838152602081815260408083206001600160a01b03861684529091529020805460ff191660011790556113bc3390565b6001600160a01b0316826001600160a01b0316847f2f8788117e7eff1d82e926ec794901d17c78024a50270940304540a733656f0d60405160405180910390a45060016104c9565b505f6104c9565b5f6114168383610d7a565b15611404575f838152602081815260408083206001600160a01b0386168085529252808320805460ff1916905551339286917ff6391f5c32d9c69d2a47ea670b442974b53935d1edc7fd64eb21e047a839171b9190a45060016104c9565b61147c61175c565b6001805460ff191690557f5db9ee0a495bf2e6ff9c91a7834c1ba4fdd244a5e8aa4e537bd38aeae4b073aa335b6040516001600160a01b03909116815260200160405180910390a1565b6114ce6112f6565b6001805460ff1916811790557f62e78cea01bee320cd4e420270b5ea74000d11b0c9f74754ebdbfc544b05a258336114a9565b5f600160601b63ffffffff60c01b031980838409817f5ac635d8aa3a93e7b3ebbd55769886bc651d06b0cc53b0f63bce3c3e27d2604b8387856003600160601b0363ffffffff60c01b0319878b8c0908090894821191909310169190921416919050565b5f805160206123e18339815191525460020361131a57604051633ee5aeb560e01b815260040160405180910390fd5b5f806115a0868661177f565b15806115b357506115b18484611501565b155b156115c357505f90506001611665565b6115d087878787876117d9565b156115e057506001905080611665565b61164f7fbb5a52f42f9c9261ed4361f59422a1e30036e7c32b270c8807a419feca605023600560017fa71af64de5126a4a4e02b7922d66ce9415ce88a4c9d25514d91082c8725ac9577f5d47723c8fbe580bb369fec9c2665d8e30a435b9932645482e7c9f11e872296b6117d9565b1561165f57505f90506001611665565b505f9050805b9550959350505050565b5f61167a858561177f565b158061168d575061168b8383611501565b155b1561169957505f611369565b5f6116a48484611819565b90505f6116be865f805160206123c1833981519152611a0c565b90505f5f805160206123c1833981519152828a0990505f5f805160206123c1833981519152838a0990505f6116f4858484611a1b565b5090508961170f5f805160206123c1833981519152836123a1565b149b9a5050505050505050505050565b6117298282610d7a565b6117585760405163e2517d3f60e01b81526001600160a01b03821660048201526024810183905260440161052b565b5050565b60015460ff1661131a57604051638dfc202b60e01b815260040160405180910390fd5b5f821580159061179b57505f805160206123c183398151915283105b80156117a657508115155b80156117d257507f7fffffff800000007fffffffffffffffde737d56d38bcf4279dce5617e3192a88211155b9392505050565b5f6040518681528560208201528460408201528360608201528260808201525f805260205f60a0836101005afa61180c57fe5b50505f5195945050505050565b611821611e79565b60405180606001604052805f81526020015f81526020015f815250815f6010811061184e5761184e61238d565b602002018190525060405180606001604052808481526020018381526020016001815250816001601081106118855761188561238d565b602002018190525060405180606001604052807f6b17d1f2e12c4247f8bce6e563a440f277037d812deb33a0f4a13945d898c29681526020017f4fe342e2fe1a7f9b8ee7eb4a7c0f9e162bce33576b315ececbb6406837bf51f581526020016001815250816004601081106118fc576118fc61238d565b60200201526119128160015b6020020151611b3f565b6040820152611922816004611908565b610100820152602081015161193f908260025b6020020151611b9b565b60608201526119588160015b6020020151826004611935565b60a082015261196881600261194b565b60c082015261197881600361194b565b60e08201526119918160015b6020020151826008611935565b6101208201526119a2816002611984565b6101408201526119b3816003611984565b6101608201526119c4816004611984565b6101808201526119de8160015b602002015182600c611935565b6101a08201526119ef8160026119d1565b6101c0820152611a008160036119d1565b6101e082015292915050565b5f6117d2836002840384611bf9565b5f805f805f805b6080811015611b23578115611a5657611a3c848484611c1a565b91955093509150611a4e848484611c1a565b919550935091505b600c60fc89901c1660fe88901c17898160108110611a7657611a7661238d565b60200201516040015115611b0f57825f03611ae557898160108110611a9d57611a9d61238d565b6020020151518a8260108110611ab557611ab561238d565b6020020151602001518b8360108110611ad057611ad061238d565b60200201516040015191965094509250611b0f565b611b078a8260108110611afa57611afa61238d565b6020020151868686611c9d565b919650945092505b50600297881b979690961b95600101611a22565b50611b2f838383611dc9565b945094505050505b935093915050565b611b6060405180606001604052805f81526020015f81526020015f81525090565b5f805f611b79855f015186602001518760400151611c1a565b6040805160608101825293845260208401929092529082015295945050505050565b611bbc60405180606001604052805f81526020015f81526020015f81525090565b5f805f611bd686865f015187602001518860400151611c9d565b604080516060810182529384526020840192909252908201529695505050505050565b5f805f611c07868686611e16565b9150915081611369576113696012611e68565b5f805f600160601b63ffffffff60c01b031980868709818687098283848384096003600160601b0363ffffffff60c01b03190984858c8d096003090890508283838b09600409838482600209850385848509089650838485858609600809850385868a880385088509089550505050808186880960020991505093509350939050565b5f805f600160601b63ffffffff60c01b0319604088015181818209828388858a8b090960208c0151098381850385868686098c090884858a8b098d51098581870387868f0908935081158415168015611cfd5760018114611d4357611db8565b868586098788898386096002098903898a848a098b038b88890908089a5087888983890987098903898a8e8c038c8689090887090899505086878c880986099750611db8565b8c8c8c898283098a8283098b8c8d8384096003600160601b0363ffffffff60c01b0319098d8e8889096003090890508b8c83870960040994508b8c866002098d038d838409089e508b8c8384096008098c0391508b8f8d03860894508b828d878409089d505050898a8284096002099a505050505b505050505050509450945094915050565b5f80825f03611ddc57505f905080611b37565b600160601b63ffffffff60c01b03195f611df68583611a0c565b905081818209828189099450828383830988099350505050935093915050565b5f80825f03611e2957505f905080611b37565b60405160208152602080820152602060408201528560608201528460808201528360a082015260205f60c08360055afa9250505f519050935093915050565b634e487b715f52806020526024601cfd5b6040518061020001604052806010905b611eaa60405180606001604052805f81526020015f81526020015f81525090565b815260200190600190039081611e895790505090565b5f60208284031215611ed0575f80fd5b81356001600160e01b0319811681146117d2575f80fd5b634e487b7160e01b5f52604160045260245ffd5b5f82601f830112611f0a575f80fd5b813567ffffffffffffffff80821115611f2557611f25611ee7565b604051601f8301601f19908116603f01168101908282118183101715611f4d57611f4d611ee7565b81604052838152866020858801011115611f65575f80fd5b836020870160208301375f602085830101528094505050505092915050565b5f805f805f60a08688031215611f98575f80fd5b853567ffffffffffffffff811115611fae575f80fd5b611fba88828901611efb565b9860208801359850604088013597606081013597506080013595509350505050565b5f60208284031215611fec575f80fd5b5035919050565b80356001600160a01b0381168114612009575f80fd5b919050565b5f806040838503121561201f575f80fd5b8235915061202f60208401611ff3565b90509250929050565b5f60208284031215612048575f80fd5b6117d282611ff3565b5f81518084528060208401602086015e5f602082860101526020601f19601f83011685010191505092915050565b602080825282516001600160a01b031682820152820151608060408301525f906120ac60a0840182612051565b905060408401516060840152606084015160808401528091505092915050565b6001600160a01b03851681526080602082018190525f906120ef90830186612051565b6040830194909452506060015292915050565b5f60208284031215612112575f80fd5b813567ffffffffffffffff811115612128575f80fd5b61213484828501611efb565b949350505050565b5f806040838503121561214d575f80fd5b61215683611ff3565b9150602083013567ffffffffffffffff811115612171575f80fd5b61217d85828601611efb565b9150509250929050565b5f8060408385031215612198575f80fd5b50508035926020909101359150565b5f81518060208401855e5f93019283525090919050565b63766f746560e01b81528460048201525f6bffffffffffffffffffffffff19808660601b166024840152808560601b16603884015250612201604c8301846121a7565b9695505050505050565b5f6117d282846121a7565b5f60208284031215612226575f80fd5b5051919050565b5f6001820161224a57634e487b7160e01b5f52601160045260245ffd5b5060010190565b600181811c9082168061226557607f821691505b60208210810361228357634e487b7160e01b5f52602260045260245ffd5b50919050565b601f821115610af857805f5260205f20601f840160051c810160208510156122ae5750805b601f840160051c820191505b818110156109c4575f81556001016122ba565b815167ffffffffffffffff8111156122e7576122e7611ee7565b6122fb816122f58454612251565b84612289565b602080601f83116001811461232e575f84156123175750858301515b5f19600386901b1c1916600185901b178555612385565b5f85815260208120601f198616915b8281101561235c5788860151825594840194600190910190840161233d565b508582101561237957878501515f19600388901b60f8161c191681555b505060018460011b0185555b505050505050565b634e487b7160e01b5f52603260045260245ffd5b5f826123bb57634e487b7160e01b5f52601260045260245ffd5b50069056feffffffff00000000ffffffffffffffffbce6faada7179e84f3b9cac2fc6325519b779b17422d0df92223018b32b4d1fa46e071723d6817e2486d003becc55f00a264697066735822122043fd6c164a82124c147f40d96aba0670413283a6eb1b6ac3610a74406685805864736f6c63430008190033","linkReferences":{}},"methodIdentifiers":{"ADMIN_ROLE()":"75b238fc","DEFAULT_ADMIN_ROLE()":"a217fddf","checkVote(address,string)":"c9d6143b","getRoleAdmin(bytes32)":"248a9ca3","getTotalVotes()":"9a0e7d66","getTotalVotesByAddress(address)":"56bec45d","getVote(uint256)":"5a55c1f0","getVotes(string)":"805265e5","grantRole(bytes32,address)":"2f2ff15d","hasRole(bytes32,address)":"91d14854","hasVoted(address,string)":"c6847060","maxVoteCost()":"b71a858f","minVoteCost()":"3513f8fb","pause()":"8456cb59","paused()":"5c975abb","portfolioToken()":"5ec2e196","projectVotes(string)":"c4c91110","registerSecp256r1Key(bytes32,bytes32)":"f35c220b","renounceRole(bytes32,address)":"36568abe","revokeRole(bytes32,address)":"d547741f","secp256r1ToAddress(bytes32)":"090955b2","setVoteCost(uint256)":"308879bf","supportsInterface(bytes4)":"01ffc9a7","totalVotesByAddress(address)":"b14ee140","unpause()":"3f4ba83a","vote(string)":"fc36e15b","voteCost()":"4c1b8ffd","voteWithBiometric(string,bytes32,bytes32,bytes32,bytes32)":"07da6127","votes(uint256)":"5df81330"},"id":2}