{"abi":[{"type":"constructor","inputs":[],"stateMutability":"nonpayable"},{"type":"function","name":"DEFAULT_ADMIN_ROLE","inputs":[],"outputs":[{"name":"","type":"bytes32","internalType":"bytes32"}],"stateMutability":"view"},{"type":"function","name":"MAX_SUPPLY","inputs":[],"outputs":[{"name":"","type":"uint256","internalType":"uint256"}],"stateMutability":"view"},{"type":"function","name":"MINTER_ROLE","inputs":[],"outputs":[{"name":"","type":"bytes32","internalType":"bytes32"}],"stateMutability":"view"},{"type":"function","name":"adminMint","inputs":[{"name":"to","type":"address","internalType":"address"}],"outputs":[],"stateMutability":"nonpayable"},{"type":"function","name":"approve","inputs":[{"name":"to","type":"address","internalType":"address"},{"name":"tokenId","type":"uint256","internalType":"uint256"}],"outputs":[],"stateMutability":"nonpayable"},{"type":"function","name":"balanceOf","inputs":[{"name":"owner","type":"address","internalType":"address"}],"outputs":[{"name":"","type":"uint256","internalType":"uint256"}],"stateMutability":"view"},{"type":"function","name":"baseURI","inputs":[],"outputs":[{"name":"","type":"string","internalType":"string"}],"stateMutability":"view"},{"type":"function","name":"getApproved","inputs":[{"name":"tokenId","type":"uint256","internalType":"uint256"}],"outputs":[{"name":"","type":"address","internalType":"address"}],"stateMutability":"view"},{"type":"function","name":"getMintTimestamp","inputs":[{"name":"tokenId","type":"uint256","internalType":"uint256"}],"outputs":[{"name":"","type":"uint256","internalType":"uint256"}],"stateMutability":"view"},{"type":"function","name":"getRoleAdmin","inputs":[{"name":"role","type":"bytes32","internalType":"bytes32"}],"outputs":[{"name":"","type":"bytes32","internalType":"bytes32"}],"stateMutability":"view"},{"type":"function","name":"grantRole","inputs":[{"name":"role","type":"bytes32","internalType":"bytes32"},{"name":"account","type":"address","internalType":"address"}],"outputs":[],"stateMutability":"nonpayable"},{"type":"function","name":"hasMinted","inputs":[{"name":"","type":"address","internalType":"address"}],"outputs":[{"name":"","type":"bool","internalType":"bool"}],"stateMutability":"view"},{"type":"function","name":"hasRole","inputs":[{"name":"role","type":"bytes32","internalType":"bytes32"},{"name":"account","type":"address","internalType":"address"}],"outputs":[{"name":"","type":"bool","internalType":"bool"}],"stateMutability":"view"},{"type":"function","name":"isApprovedForAll","inputs":[{"name":"owner","type":"address","internalType":"address"},{"name":"operator","type":"address","internalType":"address"}],"outputs":[{"name":"","type":"bool","internalType":"bool"}],"stateMutability":"view"},{"type":"function","name":"mintTimestamps","inputs":[{"name":"","type":"uint256","internalType":"uint256"}],"outputs":[{"name":"","type":"uint256","internalType":"uint256"}],"stateMutability":"view"},{"type":"function","name":"mintVisitNFT","inputs":[],"outputs":[],"stateMutability":"nonpayable"},{"type":"function","name":"mintVisitNFTWithBiometric","inputs":[{"name":"r","type":"bytes32","internalType":"bytes32"},{"name":"s","type":"bytes32","internalType":"bytes32"},{"name":"publicKeyX","type":"bytes32","internalType":"bytes32"},{"name":"publicKeyY","type":"bytes32","internalType":"bytes32"}],"outputs":[],"stateMutability":"nonpayable"},{"type":"function","name":"name","inputs":[],"outputs":[{"name":"","type":"string","internalType":"string"}],"stateMutability":"view"},{"type":"function","name":"ownerOf","inputs":[{"name":"tokenId","type":"uint256","internalType":"uint256"}],"outputs":[{"name":"","type":"address","internalType":"address"}],"stateMutability":"view"},{"type":"function","name":"pause","inputs":[],"outputs":[],"stateMutability":"nonpayable"},{"type":"function","name":"paused","inputs":[],"outputs":[{"name":"","type":"bool","internalType":"bool"}],"stateMutability":"view"},{"type":"function","name":"registerSecp256r1Key","inputs":[{"name":"publicKeyX","type":"bytes32","internalType":"bytes32"},{"name":"publicKeyY","type":"bytes32","internalType":"bytes32"}],"outputs":[],"stateMutability":"nonpayable"},{"type":"function","name":"remainingSupply","inputs":[],"outputs":[{"name":"","type":"uint256","internalType":"uint256"}],"stateMutability":"view"},{"type":"function","name":"renounceRole","inputs":[{"name":"role","type":"bytes32","internalType":"bytes32"},{"name":"callerConfirmation","type":"address","internalType":"address"}],"outputs":[],"stateMutability":"nonpayable"},{"type":"function","name":"revokeRole","inputs":[{"name":"role","type":"bytes32","internalType":"bytes32"},{"name":"account","type":"address","internalType":"address"}],"outputs":[],"stateMutability":"nonpayable"},{"type":"function","name":"safeTransferFrom","inputs":[{"name":"from","type":"address","internalType":"address"},{"name":"to","type":"address","internalType":"address"},{"name":"tokenId","type":"uint256","internalType":"uint256"}],"outputs":[],"stateMutability":"nonpayable"},{"type":"function","name":"safeTransferFrom","inputs":[{"name":"from","type":"address","internalType":"address"},{"name":"to","type":"address","internalType":"address"},{"name":"tokenId","type":"uint256","internalType":"uint256"},{"name":"data","type":"bytes","internalType":"bytes"}],"outputs":[],"stateMutability":"nonpayable"},{"type":"function","name":"secp256r1ToAddress","inputs":[{"name":"","type":"bytes32","internalType":"bytes32"}],"outputs":[{"name":"","type":"address","internalType":"address"}],"stateMutability":"view"},{"type":"function","name":"setApprovalForAll","inputs":[{"name":"operator","type":"address","internalType":"address"},{"name":"approved","type":"bool","internalType":"bool"}],"outputs":[],"stateMutability":"nonpayable"},{"type":"function","name":"setBaseURI","inputs":[{"name":"newBaseURI","type":"string","internalType":"string"}],"outputs":[],"stateMutability":"nonpayable"},{"type":"function","name":"supportsInterface","inputs":[{"name":"interfaceId","type":"bytes4","internalType":"bytes4"}],"outputs":[{"name":"","type":"bool","internalType":"bool"}],"stateMutability":"view"},{"type":"function","name":"symbol","inputs":[],"outputs":[{"name":"","type":"string","internalType":"string"}],"stateMutability":"view"},{"type":"function","name":"tokenByIndex","inputs":[{"name":"index","type":"uint256","internalType":"uint256"}],"outputs":[{"name":"","type":"uint256","internalType":"uint256"}],"stateMutability":"view"},{"type":"function","name":"tokenOfOwnerByIndex","inputs":[{"name":"owner","type":"address","internalType":"address"},{"name":"index","type":"uint256","internalType":"uint256"}],"outputs":[{"name":"","type":"uint256","internalType":"uint256"}],"stateMutability":"view"},{"type":"function","name":"tokenURI","inputs":[{"name":"tokenId","type":"uint256","internalType":"uint256"}],"outputs":[{"name":"","type":"string","internalType":"string"}],"stateMutability":"view"},{"type":"function","name":"totalSupply","inputs":[],"outputs":[{"name":"","type":"uint256","internalType":"uint256"}],"stateMutability":"view"},{"type":"function","name":"transferFrom","inputs":[{"name":"from","type":"address","internalType":"address"},{"name":"to","type":"address","internalType":"address"},{"name":"tokenId","type":"uint256","internalType":"uint256"}],"outputs":[],"stateMutability":"nonpayable"},{"type":"function","name":"unpause","inputs":[],"outputs":[],"stateMutability":"nonpayable"},{"type":"event","name":"Approval","inputs":[{"name":"owner","type":"address","indexed":true,"internalType":"address"},{"name":"approved","type":"address","indexed":true,"internalType":"address"},{"name":"tokenId","type":"uint256","indexed":true,"internalType":"uint256"}],"anonymous":false},{"type":"event","name":"ApprovalForAll","inputs":[{"name":"owner","type":"address","indexed":true,"internalType":"address"},{"name":"operator","type":"address","indexed":true,"internalType":"address"},{"name":"approved","type":"bool","indexed":false,"internalType":"bool"}],"anonymous":false},{"type":"event","name":"BaseURIUpdated","inputs":[{"name":"newBaseURI","type":"string","indexed":false,"internalType":"string"}],"anonymous":false},{"type":"event","name":"BatchMetadataUpdate","inputs":[{"name":"_fromTokenId","type":"uint256","indexed":false,"internalType":"uint256"},{"name":"_toTokenId","type":"uint256","indexed":false,"internalType":"uint256"}],"anonymous":false},{"type":"event","name":"BiometricKeyRegistered","inputs":[{"name":"user","type":"address","indexed":true,"internalType":"address"},{"name":"publicKeyX","type":"bytes32","indexed":false,"internalType":"bytes32"},{"name":"publicKeyY","type":"bytes32","indexed":false,"internalType":"bytes32"}],"anonymous":false},{"type":"event","name":"MetadataUpdate","inputs":[{"name":"_tokenId","type":"uint256","indexed":false,"internalType":"uint256"}],"anonymous":false},{"type":"event","name":"Paused","inputs":[{"name":"account","type":"address","indexed":false,"internalType":"address"}],"anonymous":false},{"type":"event","name":"RoleAdminChanged","inputs":[{"name":"role","type":"bytes32","indexed":true,"internalType":"bytes32"},{"name":"previousAdminRole","type":"bytes32","indexed":true,"internalType":"bytes32"},{"name":"newAdminRole","type":"bytes32","indexed":true,"internalType":"bytes32"}],"anonymous":false},{"type":"event","name":"RoleGranted","inputs":[{"name":"role","type":"bytes32","indexed":true,"internalType":"bytes32"},{"name":"account","type":"address","indexed":true,"internalType":"address"},{"name":"sender","type":"address","indexed":true,"internalType":"address"}],"anonymous":false},{"type":"event","name":"RoleRevoked","inputs":[{"name":"role","type":"bytes32","indexed":true,"internalType":"bytes32"},{"name":"account","type":"address","indexed":true,"internalType":"address"},{"name":"sender","type":"address","indexed":true,"internalType":"address"}],"anonymous":false},{"type":"event","name":"Transfer","inputs":[{"name":"from","type":"address","indexed":true,"internalType":"address"},{"name":"to","type":"address","indexed":true,"internalType":"address"},{"name":"tokenId","type":"uint256","indexed":true,"internalType":"uint256"}],"anonymous":false},{"type":"event","name":"Unpaused","inputs":[{"name":"account","type":"address","indexed":false,"internalType":"address"}],"anonymous":false},{"type":"event","name":"VisitNFTMinted","inputs":[{"name":"tokenId","type":"uint256","indexed":true,"internalType":"uint256"},{"name":"recipient","type":"address","indexed":true,"internalType":"address"},{"name":"timestamp","type":"uint256","indexed":false,"internalType":"uint256"}],"anonymous":false},{"type":"error","name":"AccessControlBadConfirmation","inputs":[]},{"type":"error","name":"AccessControlUnauthorizedAccount","inputs":[{"name":"account","type":"address","internalType":"address"},{"name":"neededRole","type":"bytes32","internalType":"bytes32"}]},{"type":"error","name":"ERC721EnumerableForbiddenBatchMint","inputs":[]},{"type":"error","name":"ERC721IncorrectOwner","inputs":[{"name":"sender","type":"address","internalType":"address"},{"name":"tokenId","type":"uint256","internalType":"uint256"},{"name":"owner","type":"address","internalType":"address"}]},{"type":"error","name":"ERC721InsufficientApproval","inputs":[{"name":"operator","type":"address","internalType":"address"},{"name":"tokenId","type":"uint256","internalType":"uint256"}]},{"type":"error","name":"ERC721InvalidApprover","inputs":[{"name":"approver","type":"address","internalType":"address"}]},{"type":"error","name":"ERC721InvalidOperator","inputs":[{"name":"operator","type":"address","internalType":"address"}]},{"type":"error","name":"ERC721InvalidOwner","inputs":[{"name":"owner","type":"address","internalType":"address"}]},{"type":"error","name":"ERC721InvalidReceiver","inputs":[{"name":"receiver","type":"address","internalType":"address"}]},{"type":"error","name":"ERC721InvalidSender","inputs":[{"name":"sender","type":"address","internalType":"address"}]},{"type":"error","name":"ERC721NonexistentToken","inputs":[{"name":"tokenId","type":"uint256","internalType":"uint256"}]},{"type":"error","name":"ERC721OutOfBoundsIndex","inputs":[{"name":"owner","type":"address","internalType":"address"},{"name":"index","type":"uint256","internalType":"uint256"}]},{"type":"error","name":"EnforcedPause","inputs":[]},{"type":"error","name":"ExpectedPause","inputs":[]},{"type":"error","name":"ReentrancyGuardReentrantCall","inputs":[]}],"bytecode":{"object":"0x60c0604052602060809081527f697066733a2f2f516d596f757244656661756c744d657461646174614349442f60a052600d9061003c9082610276565b50348015610048575f80fd5b506040518060400160405280601381526020017f506f7274666f6c696f205669736974204e46540000000000000000000000000081525060405180604001604052806005815260200164159254d25560da1b815250815f90816100ab9190610276565b5060016100b88282610276565b50505060016100d16100ce61010d60201b60201c565b90565b556100dc5f33610131565b506101077f9f2df0fed2c77648de5860a4cc508cd0818c85b8b8a1ab4ceeef8d981c8956a633610131565b50610335565b7f9b779b17422d0df92223018b32b4d1fa46e071723d6817e2486d003becc55f0090565b5f828152600b602090815260408083206001600160a01b038516845290915281205460ff166101d5575f838152600b602090815260408083206001600160a01b03861684529091529020805460ff1916600117905561018d3390565b6001600160a01b0316826001600160a01b0316847f2f8788117e7eff1d82e926ec794901d17c78024a50270940304540a733656f0d60405160405180910390a45060016101d8565b505f5b92915050565b634e487b7160e01b5f52604160045260245ffd5b600181811c9082168061020657607f821691505b60208210810361022457634e487b7160e01b5f52602260045260245ffd5b50919050565b601f82111561027157805f5260205f20601f840160051c8101602085101561024f5750805b601f840160051c820191505b8181101561026e575f815560010161025b565b50505b505050565b81516001600160401b0381111561028f5761028f6101de565b6102a38161029d84546101f2565b8461022a565b602080601f8311600181146102d6575f84156102bf5750858301515b5f19600386901b1c1916600185901b17855561032d565b5f85815260208120601f198616915b82811015610304578886015182559484019460019091019084016102e5565b508582101561032157878501515f19600388901b60f8161c191681555b505060018460011b0185555b505050505050565b612fde806103425f395ff3fe608060405234801561000f575f80fd5b5060043610610229575f3560e01c80636352211e1161012a578063a22cb465116100b4578063d539139311610079578063d5391393146104b9578063d547741f146104e0578063da0239a6146104f3578063e985e9c5146104fb578063f35c220b1461050e575f80fd5b8063a22cb46514610459578063b88d4fde1461046c578063bb77f7491461047f578063c2118e791461049e578063c87b56dd146104a6575f80fd5b80638456cb59116100fa5780638456cb591461041c57806391d148541461042457806395d89b41146104375780639769dc0e1461043f578063a217fddf14610452575f80fd5b80636352211e146103db5780636c0360eb146103ee5780636c360923146103f657806370a0823114610409575f80fd5b80632f2ff15d116101b65780633f4ba83a1161017b5780633f4ba83a1461038f57806342842e0e146103975780634f6ccce7146103aa57806355f804b3146103bd5780635c975abb146103d0575f80fd5b80632f2ff15d1461032c5780632f745c591461033f57806332cb6b0c1461035257806336568abe1461035a57806338e21cce1461036d575f80fd5b8063095ea7b3116101fc578063095ea7b3146102bd5780630ed87cad146102d257806318160ddd146102e557806323b872dd146102f7578063248a9ca31461030a575f80fd5b806301ffc9a71461022d57806306fdde0314610255578063081812fc1461026a578063090955b214610295575b5f80fd5b61024061023b366004612936565b610521565b60405190151581526020015b60405180910390f35b61025d610531565b60405161024c919061297f565b61027d610278366004612991565b6105c0565b6040516001600160a01b03909116815260200161024c565b61027d6102a3366004612991565b60116020525f90815260409020546001600160a01b031681565b6102d06102cb3660046129c3565b6105e7565b005b6102d06102e03660046129eb565b6105f6565b600e545b60405190815260200161024c565b6102d0610305366004612a1a565b6108a9565b6102e9610318366004612991565b5f908152600b602052604090206001015490565b6102d061033a366004612a53565b61092c565b6102e961034d3660046129c3565b610950565b6102e9606481565b6102d0610368366004612a53565b6109b3565b61024061037b366004612a7d565b600f6020525f908152604090205460ff1681565b6102d06109eb565b6102d06103a5366004612a1a565b610a00565b6102e96103b8366004612991565b610a1a565b6102d06103cb366004612b1d565b610a6f565b600c5460ff16610240565b61027d6103e9366004612991565b610aff565b61025d610b09565b6102e9610404366004612991565b610b95565b6102e9610417366004612a7d565b610c01565b6102d0610c46565b610240610432366004612a53565b610c58565b61025d610c82565b6102d061044d366004612a7d565b610c91565b6102e95f81565b6102d0610467366004612b62565b610ddd565b6102d061047a366004612b9b565b610de8565b6102e961048d366004612991565b60106020525f908152604090205481565b6102d0610e00565b61025d6104b4366004612991565b610f2d565b6102e97f9f2df0fed2c77648de5860a4cc508cd0818c85b8b8a1ab4ceeef8d981c8956a681565b6102d06104ee366004612a53565b610f38565b6102e9610f5c565b610240610509366004612c12565b610f71565b6102d061051c366004612c3a565b610f9e565b5f61052b826110d7565b92915050565b60605f805461053f90612c5a565b80601f016020809104026020016040519081016040528092919081815260200182805461056b90612c5a565b80156105b65780601f1061058d576101008083540402835291602001916105b6565b820191905f5260205f20905b81548152906001019060200180831161059957829003601f168201915b5050505050905090565b5f6105ca826110fb565b505f828152600460205260409020546001600160a01b031661052b565b6105f2828233611133565b5050565b6105fe611140565b610606611164565b604080516020808201859052818301849052825180830384018152606090920183528151918101919091205f8181526011909252919020546001600160a01b0316806106995760405162461bcd60e51b815260206004820152601960248201527f5075626c6963206b6579206e6f7420726567697374657265640000000000000060448201526064015b60405180910390fd5b6040516b1b5a5b9d159a5cda5d13919560a21b602082015246602c82015230606090811b6bffffffffffffffffffffffff19908116604c84015283821b16908201525f90607401604051602081830303815290604052805190602001209050610705818888888861117f565b6107455760405162461bcd60e51b8152602060048201526011602482015270496e76616c6964207369676e617475726560781b6044820152606401610690565b6001600160a01b0382165f908152600f602052604090205460ff161561079e5760405162461bcd60e51b815260206004820152600e60248201526d105b1c9958591e481b5a5b9d195960921b6044820152606401610690565b6064600e54106107c05760405162461bcd60e51b815260040161069090612c92565b6001600160a01b0382165f908152600f60205260408120805460ff19166001179055600e8054916107f083612cd2565b9091555050600e5461080283826111ba565b61083681600d610811846111d3565b604051602001610822929190612d01565b6040516020818303038152906040526112d8565b5f81815260106020908152604091829020429081905591519182526001600160a01b0385169183917fbe2543b1941b918c80b310b81469e5fd6467dfe66432cf046b81a6c2251b28a9910160405180910390a3505050506108a360015f80516020612f8983398151915255565b50505050565b6001600160a01b0382166108d257604051633250574960e11b81525f6004820152602401610690565b5f6108de838333611320565b9050836001600160a01b0316816001600160a01b0316146108a3576040516364283d7b60e01b81526001600160a01b0380861660048301526024820184905282166044820152606401610690565b5f828152600b60205260409020600101546109468161132c565b6108a38383611336565b5f61095a83610c01565b821061098b5760405163295f44f760e21b81526001600160a01b038416600482015260248101839052604401610690565b506001600160a01b03919091165f908152600760209081526040808320938352929052205490565b6001600160a01b03811633146109dc5760405163334bd91960e11b815260040160405180910390fd5b6109e682826113c7565b505050565b5f6109f58161132c565b6109fd611432565b50565b6109e683838360405180602001604052805f815250610de8565b5f610a24600e5490565b8210610a4c5760405163295f44f760e21b81525f600482015260248101839052604401610690565b60098281548110610a5f57610a5f612d75565b905f5260205f2001549050919050565b5f610a798161132c565b5f825111610ab75760405162461bcd60e51b815260206004820152600b60248201526a496e76616c69642055524960a81b6044820152606401610690565b600d610ac38382612dcd565b507f6741b2fc379fad678116fe3d4d4b9a1a184ab53ba36b86ad0fa66340b1ab41ad82604051610af3919061297f565b60405180910390a15050565b5f61052b826110fb565b600d8054610b1690612c5a565b80601f0160208091040260200160405190810160405280929190818152602001828054610b4290612c5a565b8015610b8d5780601f10610b6457610100808354040283529160200191610b8d565b820191905f5260205f20905b815481529060010190602001808311610b7057829003601f168201915b505050505081565b5f818152600260205260408120546001600160a01b0316610bef5760405162461bcd60e51b8152602060048201526014602482015273151bdad95b88191bd95cc81b9bdd08195e1a5cdd60621b6044820152606401610690565b505f9081526010602052604090205490565b5f6001600160a01b038216610c2b576040516322718ad960e21b81525f6004820152602401610690565b506001600160a01b03165f9081526003602052604090205490565b5f610c508161132c565b6109fd611484565b5f918252600b602090815260408084206001600160a01b0393909316845291905290205460ff1690565b60606001805461053f90612c5a565b7f9f2df0fed2c77648de5860a4cc508cd0818c85b8b8a1ab4ceeef8d981c8956a6610cbb8161132c565b610cc3611140565b610ccb611164565b6001600160a01b038216610d215760405162461bcd60e51b815260206004820152601b60248201527f43616e6e6f74206d696e7420746f207a65726f206164647265737300000000006044820152606401610690565b6064600e5410610d435760405162461bcd60e51b815260040161069090612c92565b600e8054905f610d5283612cd2565b9091555050600e54610d6483826111ba565b610d7381600d610811846111d3565b5f81815260106020908152604091829020429081905591519182526001600160a01b0385169183917fbe2543b1941b918c80b310b81469e5fd6467dfe66432cf046b81a6c2251b28a9910160405180910390a3506105f260015f80516020612f8983398151915255565b6105f23383836114c1565b610df38484846108a9565b6108a3338585858561155f565b610e08611140565b610e10611164565b335f908152600f602052604090205460ff1615610e605760405162461bcd60e51b815260206004820152600e60248201526d105b1c9958591e481b5a5b9d195960921b6044820152606401610690565b6064600e5410610e825760405162461bcd60e51b815260040161069090612c92565b335f908152600f60205260408120805460ff19166001179055600e805491610ea983612cd2565b9091555050600e54610ebb33826111ba565b610eca81600d610811846111d3565b5f8181526010602090815260409182902042908190559151918252339183917fbe2543b1941b918c80b310b81469e5fd6467dfe66432cf046b81a6c2251b28a9910160405180910390a350610f2b60015f80516020612f8983398151915255565b565b606061052b82611687565b5f828152600b6020526040902060010154610f528161132c565b6108a383836113c7565b5f600e546064610f6c9190612e89565b905090565b6001600160a01b039182165f90815260056020908152604080832093909416825291909152205460ff1690565b610fa8828261178a565b610fe95760405162461bcd60e51b8152602060048201526012602482015271496e76616c6964207075626c6963206b657960701b6044820152606401610690565b604080516020808201859052818301849052825180830384018152606090920183528151918101919091205f8181526011909252919020546001600160a01b0316156110775760405162461bcd60e51b815260206004820152601d60248201527f5075626c6963206b657920616c726561647920726567697374657265640000006044820152606401610690565b5f8181526011602090815260409182902080546001600160a01b031916339081179091558251868152918201859052917f31f399053bf9abf743a1c140700cb461b32859b3ea33d3b89b3d472c42dc1847910160405180910390a2505050565b5f6001600160e01b03198216637965db0b60e01b148061052b575061052b826117ee565b5f818152600260205260408120546001600160a01b03168061052b57604051637e27328960e01b815260048101849052602401610690565b6109e68383836001611812565b600c5460ff1615610f2b5760405163d93c066560e01b815260040160405180910390fd5b61116c611916565b60025f80516020612f8983398151915255565b5f805f61118f8888888888611945565b91509150806111aa576111a58888888888611a20565b6111ac565b815b925050505b95945050505050565b6105f2828260405180602001604052805f815250611ad0565b6060815f036111f95750506040805180820190915260018152600360fc1b602082015290565b815f5b8115611222578061120c81612cd2565b915061121b9050600a83612eb0565b91506111fc565b5f8167ffffffffffffffff81111561123c5761123c612a96565b6040519080825280601f01601f191660200182016040528015611266576020820181803683370190505b5090505b84156112d05761127b600183612e89565b9150611288600a86612ec3565b611293906030612ed6565b60f81b8183815181106112a8576112a8612d75565b60200101906001600160f81b03191690815f1a9053506112c9600a86612eb0565b945061126a565b949350505050565b5f8281526006602052604090206112ef8282612dcd565b506040518281527ff8e1a15aba9398e019f0b49df1a4fde98ee17ae345cb5f6b5e2c27f5033e8ce790602001610af3565b5f6112d0848484611ae7565b6109fd8133611bb2565b5f6113418383610c58565b6113c0575f838152600b602090815260408083206001600160a01b03861684529091529020805460ff191660011790556113783390565b6001600160a01b0316826001600160a01b0316847f2f8788117e7eff1d82e926ec794901d17c78024a50270940304540a733656f0d60405160405180910390a450600161052b565b505f61052b565b5f6113d28383610c58565b156113c0575f838152600b602090815260408083206001600160a01b0386168085529252808320805460ff1916905551339286917ff6391f5c32d9c69d2a47ea670b442974b53935d1edc7fd64eb21e047a839171b9190a450600161052b565b61143a611beb565b600c805460ff191690557f5db9ee0a495bf2e6ff9c91a7834c1ba4fdd244a5e8aa4e537bd38aeae4b073aa335b6040516001600160a01b03909116815260200160405180910390a1565b61148c611140565b600c805460ff191660011790557f62e78cea01bee320cd4e420270b5ea74000d11b0c9f74754ebdbfc544b05a2586114673390565b6001600160a01b0382166114f357604051630b61174360e31b81526001600160a01b0383166004820152602401610690565b6001600160a01b038381165f81815260056020908152604080832094871680845294825291829020805460ff191686151590811790915591519182527f17307eab39ab6107e8899845ad3d59bd9653f200f220920489ca2b5937696c31910160405180910390a3505050565b6001600160a01b0383163b1561168057604051630a85bd0160e11b81526001600160a01b0384169063150b7a02906115a1908890889087908790600401612ee9565b6020604051808303815f875af19250505080156115db575060408051601f3d908101601f191682019092526115d891810190612f25565b60015b611642573d808015611608576040519150601f19603f3d011682016040523d82523d5f602084013e61160d565b606091505b5080515f0361163a57604051633250574960e11b81526001600160a01b0385166004820152602401610690565b805160208201fd5b6001600160e01b03198116630a85bd0160e11b1461167e57604051633250574960e11b81526001600160a01b0385166004820152602401610690565b505b5050505050565b6060611692826110fb565b505f82815260066020526040812080546116ab90612c5a565b80601f01602080910402602001604051908101604052809291908181526020018280546116d790612c5a565b80156117225780601f106116f957610100808354040283529160200191611722565b820191905f5260205f20905b81548152906001019060200180831161170557829003601f168201915b505050505090505f61173e60408051602081019091525f815290565b905080515f0361174f575092915050565b815115611781578082604051602001611769929190612f40565b60405160208183030381529060405292505050919050565b6112d084611c0e565b5f600160601b63ffffffff60c01b031980838409817f5ac635d8aa3a93e7b3ebbd55769886bc651d06b0cc53b0f63bce3c3e27d2604b8387856003600160601b0363ffffffff60c01b0319878b8c0908090894821191909310169190921416919050565b5f6001600160e01b0319821663780e9d6360e01b148061052b575061052b82611c7f565b808061182657506001600160a01b03821615155b156118e7575f611835846110fb565b90506001600160a01b038316158015906118615750826001600160a01b0316816001600160a01b031614155b801561187457506118728184610f71565b155b1561189d5760405163a9fbf51f60e01b81526001600160a01b0384166004820152602401610690565b81156118e55783856001600160a01b0316826001600160a01b03167f8c5be1e5ebec7d5bd14f71427d1e84f3dd0314c0f7b2291e5b200ac8c7c3b92560405160405180910390a45b505b50505f90815260046020526040902080546001600160a01b0319166001600160a01b0392909216919091179055565b5f80516020612f8983398151915254600203610f2b57604051633ee5aeb560e01b815260040160405180910390fd5b5f806119518686611ca3565b15806119645750611962848461178a565b155b1561197457505f90506001611a16565b6119818787878787611cfa565b1561199157506001905080611a16565b611a007fbb5a52f42f9c9261ed4361f59422a1e30036e7c32b270c8807a419feca605023600560017fa71af64de5126a4a4e02b7922d66ce9415ce88a4c9d25514d91082c8725ac9577f5d47723c8fbe580bb369fec9c2665d8e30a435b9932645482e7c9f11e872296b611cfa565b15611a1057505f90506001611a16565b505f9050805b9550959350505050565b5f611a2b8585611ca3565b1580611a3e5750611a3c838361178a565b155b15611a4a57505f6111b1565b5f611a558484611d3a565b90505f611a6f865f80516020612f69833981519152611f2d565b90505f5f80516020612f69833981519152828a0990505f5f80516020612f69833981519152838a0990505f611aa5858484611f3c565b50905089611ac05f80516020612f6983398151915283612ec3565b149b9a5050505050505050505050565b611ada8383612060565b6109e6335f85858561155f565b5f80611af48585856120c1565b90506001600160a01b038116611b5057611b4b84600980545f838152600a60205260408120829055600182018355919091527f6e1540171b6c0c960b71a7020d9f60077f6af931a8bbf590da0223dacf75c7af0155565b611b73565b846001600160a01b0316816001600160a01b031614611b7357611b7381856121b3565b6001600160a01b038516611b8f57611b8a84612230565b6112d0565b846001600160a01b0316816001600160a01b0316146112d0576112d085856122d7565b611bbc8282610c58565b6105f25760405163e2517d3f60e01b81526001600160a01b038216600482015260248101839052604401610690565b600c5460ff16610f2b57604051638dfc202b60e01b815260040160405180910390fd5b6060611c19826110fb565b505f611c2f60408051602081019091525f815290565b90505f815111611c4d5760405180602001604052805f815250611c78565b80611c5784612325565b604051602001611c68929190612f40565b6040516020818303038152906040525b9392505050565b5f6001600160e01b03198216632483248360e11b148061052b575061052b826123b5565b5f8215801590611cbf57505f80516020612f6983398151915283105b8015611cca57508115155b8015611c785750507f7fffffff800000007fffffffffffffffde737d56d38bcf4279dce5617e3192a81015919050565b5f6040518681528560208201528460408201528360608201528260808201525f805260205f60a0836101005afa611d2d57fe5b50505f5195945050505050565b611d426128da565b60405180606001604052805f81526020015f81526020015f815250815f60108110611d6f57611d6f612d75565b60200201819052506040518060600160405280848152602001838152602001600181525081600160108110611da657611da6612d75565b602002018190525060405180606001604052807f6b17d1f2e12c4247f8bce6e563a440f277037d812deb33a0f4a13945d898c29681526020017f4fe342e2fe1a7f9b8ee7eb4a7c0f9e162bce33576b315ececbb6406837bf51f58152602001600181525081600460108110611e1d57611e1d612d75565b6020020152611e338160015b6020020151612404565b6040820152611e43816004611e29565b6101008201526020810151611e60908260025b6020020151612460565b6060820152611e798160015b6020020151826004611e56565b60a0820152611e89816002611e6c565b60c0820152611e99816003611e6c565b60e0820152611eb28160015b6020020151826008611e56565b610120820152611ec3816002611ea5565b610140820152611ed4816003611ea5565b610160820152611ee5816004611ea5565b610180820152611eff8160015b602002015182600c611e56565b6101a0820152611f10816002611ef2565b6101c0820152611f21816003611ef2565b6101e082015292915050565b5f611c788360028403846124be565b5f805f805f805b6080811015612044578115611f7757611f5d8484846124df565b91955093509150611f6f8484846124df565b919550935091505b600c60fc89901c1660fe88901c17898160108110611f9757611f97612d75565b6020020151604001511561203057825f0361200657898160108110611fbe57611fbe612d75565b6020020151518a8260108110611fd657611fd6612d75565b6020020151602001518b8360108110611ff157611ff1612d75565b60200201516040015191965094509250612030565b6120288a826010811061201b5761201b612d75565b6020020151868686612562565b919650945092505b50600297881b979690961b95600101611f43565b5061205083838361268e565b945094505050505b935093915050565b6001600160a01b03821661208957604051633250574960e11b81525f6004820152602401610690565b5f61209583835f611320565b90506001600160a01b038116156109e6576040516339e3563760e11b81525f6004820152602401610690565b5f828152600260205260408120546001600160a01b03908116908316156120ed576120ed8184866126db565b6001600160a01b03811615612127576121085f855f80611812565b6001600160a01b0381165f90815260036020526040902080545f190190555b6001600160a01b03851615612155576001600160a01b0385165f908152600360205260409020805460010190555b5f8481526002602052604080822080546001600160a01b0319166001600160a01b0389811691821790925591518793918516917fddf252ad1be2c89b69c2b068fc378daa952ba7f163c4a11628f55a4df523b3ef91a4949350505050565b5f6121bd83610c01565b5f838152600860209081526040808320546001600160a01b0388168452600790925290912091925090818314612212575f83815260208281526040808320548584528184208190558352600890915290208290555b5f938452600860209081526040808620869055938552525081205550565b6009545f9061224190600190612e89565b5f838152600a60205260408120546009805493945090928490811061226857612268612d75565b905f5260205f2001549050806009838154811061228757612287612d75565b5f918252602080832090910192909255828152600a909152604080822084905585825281205560098054806122be576122be612f54565b600190038181905f5260205f20015f9055905550505050565b5f60016122e384610c01565b6122ed9190612e89565b6001600160a01b039093165f908152600760209081526040808320868452825280832085905593825260089052919091209190915550565b60605f6123318361273f565b60010190505f8167ffffffffffffffff81111561235057612350612a96565b6040519080825280601f01601f19166020018201604052801561237a576020820181803683370190505b5090508181016020015b5f19016f181899199a1a9b1b9c1cb0b131b232b360811b600a86061a8153600a850494508461238457509392505050565b5f6001600160e01b031982166380ac58cd60e01b14806123e557506001600160e01b03198216635b5e139f60e01b145b8061052b57506301ffc9a760e01b6001600160e01b031983161461052b565b61242560405180606001604052805f81526020015f81526020015f81525090565b5f805f61243e855f0151866020015187604001516124df565b6040805160608101825293845260208401929092529082015295945050505050565b61248160405180606001604052805f81526020015f81526020015f81525090565b5f805f61249b86865f015187602001518860400151612562565b604080516060810182529384526020840192909252908201529695505050505050565b5f805f6124cc868686612816565b91509150816111b1576111b16012612868565b5f805f600160601b63ffffffff60c01b031980868709818687098283848384096003600160601b0363ffffffff60c01b03190984858c8d096003090890508283838b09600409838482600209850385848509089650838485858609600809850385868a880385088509089550505050808186880960020991505093509350939050565b5f805f600160601b63ffffffff60c01b0319604088015181818209828388858a8b090960208c0151098381850385868686098c090884858a8b098d51098581870387868f09089350811584151680156125c257600181146126085761267d565b868586098788898386096002098903898a848a098b038b88890908089a5087888983890987098903898a8e8c038c8689090887090899505086878c88098609975061267d565b8c8c8c898283098a8283098b8c8d8384096003600160601b0363ffffffff60c01b0319098d8e8889096003090890508b8c83870960040994508b8c866002098d038d838409089e508b8c8384096008098c0391508b8f8d03860894508b828d878409089d505050898a8284096002099a505050505b505050505050509450945094915050565b5f80825f036126a157505f905080612058565b600160601b63ffffffff60c01b03195f6126bb8583611f2d565b905081818209828189099450828383830988099350505050935093915050565b6126e6838383612879565b6109e6576001600160a01b03831661271457604051637e27328960e01b815260048101829052602401610690565b60405163177e802f60e01b81526001600160a01b038316600482015260248101829052604401610690565b5f8072184f03e93ff9f4daa797ed6e38ed64bf6a1f0160401b831061277d5772184f03e93ff9f4daa797ed6e38ed64bf6a1f0160401b830492506040015b6d04ee2d6d415b85acef810000000083106127a9576d04ee2d6d415b85acef8100000000830492506020015b662386f26fc1000083106127c757662386f26fc10000830492506010015b6305f5e10083106127df576305f5e100830492506008015b61271083106127f357612710830492506004015b60648310612805576064830492506002015b600a831061052b5760010192915050565b5f80825f0361282957505f905080612058565b60405160208152602080820152602060408201528560608201528460808201528360a082015260205f60c08360055afa9250505f519050935093915050565b634e487b715f52806020526024601cfd5b5f6001600160a01b038316158015906112d05750826001600160a01b0316846001600160a01b031614806128b257506128b28484610f71565b806112d05750505f908152600460205260409020546001600160a01b03908116911614919050565b6040518061020001604052806010905b61290b60405180606001604052805f81526020015f81526020015f81525090565b8152602001906001900390816128ea5790505090565b6001600160e01b0319811681146109fd575f80fd5b5f60208284031215612946575f80fd5b8135611c7881612921565b5f81518084528060208401602086015e5f602082860101526020601f19601f83011685010191505092915050565b602081525f611c786020830184612951565b5f602082840312156129a1575f80fd5b5035919050565b80356001600160a01b03811681146129be575f80fd5b919050565b5f80604083850312156129d4575f80fd5b6129dd836129a8565b946020939093013593505050565b5f805f80608085870312156129fe575f80fd5b5050823594602084013594506040840135936060013592509050565b5f805f60608486031215612a2c575f80fd5b612a35846129a8565b9250612a43602085016129a8565b9150604084013590509250925092565b5f8060408385031215612a64575f80fd5b82359150612a74602084016129a8565b90509250929050565b5f60208284031215612a8d575f80fd5b611c78826129a8565b634e487b7160e01b5f52604160045260245ffd5b5f67ffffffffffffffff80841115612ac457612ac4612a96565b604051601f8501601f19908116603f01168101908282118183101715612aec57612aec612a96565b81604052809350858152868686011115612b04575f80fd5b858560208301375f602087830101525050509392505050565b5f60208284031215612b2d575f80fd5b813567ffffffffffffffff811115612b43575f80fd5b8201601f81018413612b53575f80fd5b6112d084823560208401612aaa565b5f8060408385031215612b73575f80fd5b612b7c836129a8565b915060208301358015158114612b90575f80fd5b809150509250929050565b5f805f8060808587031215612bae575f80fd5b612bb7856129a8565b9350612bc5602086016129a8565b925060408501359150606085013567ffffffffffffffff811115612be7575f80fd5b8501601f81018713612bf7575f80fd5b612c0687823560208401612aaa565b91505092959194509250565b5f8060408385031215612c23575f80fd5b612c2c836129a8565b9150612a74602084016129a8565b5f8060408385031215612c4b575f80fd5b50508035926020909101359150565b600181811c90821680612c6e57607f821691505b602082108103612c8c57634e487b7160e01b5f52602260045260245ffd5b50919050565b60208082526012908201527113585e081cdd5c1c1b1e481c995858da195960721b604082015260600190565b634e487b7160e01b5f52601160045260245ffd5b5f60018201612ce357612ce3612cbe565b5060010190565b5f81518060208401855e5f93019283525090919050565b5f808454612d0e81612c5a565b60018281168015612d265760018114612d3b57612d67565b60ff1984168752821515830287019450612d67565b885f526020805f205f5b85811015612d5e5781548a820152908401908201612d45565b50505082870194505b505050506111b18185612cea565b634e487b7160e01b5f52603260045260245ffd5b601f8211156109e657805f5260205f20601f840160051c81016020851015612dae5750805b601f840160051c820191505b81811015611680575f8155600101612dba565b815167ffffffffffffffff811115612de757612de7612a96565b612dfb81612df58454612c5a565b84612d89565b602080601f831160018114612e2e575f8415612e175750858301515b5f19600386901b1c1916600185901b17855561167e565b5f85815260208120601f198616915b82811015612e5c57888601518255948401946001909101908401612e3d565b5085821015612e7957878501515f19600388901b60f8161c191681555b5050505050600190811b01905550565b8181038181111561052b5761052b612cbe565b634e487b7160e01b5f52601260045260245ffd5b5f82612ebe57612ebe612e9c565b500490565b5f82612ed157612ed1612e9c565b500690565b8082018082111561052b5761052b612cbe565b6001600160a01b03858116825284166020820152604081018390526080606082018190525f90612f1b90830184612951565b9695505050505050565b5f60208284031215612f35575f80fd5b8151611c7881612921565b5f6112d0612f4e8386612cea565b84612cea565b634e487b7160e01b5f52603160045260245ffdfeffffffff00000000ffffffffffffffffbce6faada7179e84f3b9cac2fc6325519b779b17422d0df92223018b32b4d1fa46e071723d6817e2486d003becc55f00a2646970667358221220912670f7bdb8855dd637ac1309974f28776f84f3daf336b8256f9729c02d068164736f6c63430008190033","linkReferences":{}},"methodIdentifiers":{"DEFAULT_ADMIN_ROLE()":"a217fddf","MAX_SUPPLY()":"32cb6b0c","MINTER_ROLE()":"d5391393","adminMint(address)":"9769dc0e","approve(address,uint256)":"095ea7b3","balanceOf(address)":"70a08231","baseURI()":"6c0360eb","getApproved(uint256)":"081812fc","getMintTimestamp(uint256)":"6c360923","getRoleAdmin(bytes32)":"248a9ca3","grantRole(bytes32,address)":"2f2ff15d","hasMinted(address)":"38e21cce","hasRole(bytes32,address)":"91d14854","isApprovedForAll(address,address)":"e985e9c5","mintTimestamps(uint256)":"bb77f749","mintVisitNFT()":"c2118e79","mintVisitNFTWithBiometric(bytes32,bytes32,bytes32,bytes32)":"0ed87cad","name()":"06fdde03","ownerOf(uint256)":"6352211e","pause()":"8456cb59","paused()":"5c975abb","registerSecp256r1Key(bytes32,bytes32)":"f35c220b","remainingSupply()":"da0239a6","renounceRole(bytes32,address)":"36568abe","revokeRole(bytes32,address)":"d547741f","safeTransferFrom(address,address,uint256)":"42842e0e","safeTransferFrom(address,address,uint256,bytes)":"b88d4fde","secp256r1ToAddress(bytes32)":"090955b2","setApprovalForAll(address,bool)":"a22cb465","setBaseURI(string)":"55f804b3","supportsInterface(bytes4)":"01ffc9a7","symbol()":"95d89b41","tokenByIndex(uint256)":"4f6ccce7","tokenOfOwnerByIndex(address,uint256)":"2f745c59","tokenURI(uint256)":"c87b56dd","totalSupply()":"18160ddd","transferFrom(address,address,uint256)":"23b872dd","unpause()":"3f4ba83a"},"id":3}