{"abi":[{"type":"constructor","inputs":[],"stateMutability":"nonpayable"},{"type":"function","name":"DEFAULT_ADMIN_ROLE","inputs":[],"outputs":[{"name":"","type":"bytes32","internalType":"bytes32"}],"stateMutability":"view"},{"type":"function","name":"MODERATOR_ROLE","inputs":[],"outputs":[{"name":"","type":"bytes32","internalType":"bytes32"}],"stateMutability":"view"},{"type":"function","name":"eip712Domain","inputs":[],"outputs":[{"name":"fields","type":"bytes1","internalType":"bytes1"},{"name":"name","type":"string","internalType":"string"},{"name":"version","type":"string","internalType":"string"},{"name":"chainId","type":"uint256","internalType":"uint256"},{"name":"verifyingContract","type":"address","internalType":"address"},{"name":"salt","type":"bytes32","internalType":"bytes32"},{"name":"extensions","type":"uint256[]","internalType":"uint256[]"}],"stateMutability":"view"},{"type":"function","name":"getRoleAdmin","inputs":[{"name":"role","type":"bytes32","internalType":"bytes32"}],"outputs":[{"name":"","type":"bytes32","internalType":"bytes32"}],"stateMutability":"view"},{"type":"function","name":"getTotalVisitors","inputs":[],"outputs":[{"name":"","type":"uint256","internalType":"uint256"}],"stateMutability":"view"},{"type":"function","name":"getVisitCount","inputs":[{"name":"visitor","type":"address","internalType":"address"}],"outputs":[{"name":"","type":"uint256","internalType":"uint256"}],"stateMutability":"view"},{"type":"function","name":"getVisitor","inputs":[{"name":"index","type":"uint256","internalType":"uint256"}],"outputs":[{"name":"","type":"tuple","internalType":"struct VisitorBook.Visitor","components":[{"name":"visitor","type":"address","internalType":"address"},{"name":"message","type":"string","internalType":"string"},{"name":"timestamp","type":"uint256","internalType":"uint256"}]}],"stateMutability":"view"},{"type":"function","name":"getVisitors","inputs":[{"name":"offset","type":"uint256","internalType":"uint256"},{"name":"limit","type":"uint256","internalType":"uint256"}],"outputs":[{"name":"","type":"tuple[]","internalType":"struct VisitorBook.Visitor[]","components":[{"name":"visitor","type":"address","internalType":"address"},{"name":"message","type":"string","internalType":"string"},{"name":"timestamp","type":"uint256","internalType":"uint256"}]}],"stateMutability":"view"},{"type":"function","name":"grantRole","inputs":[{"name":"role","type":"bytes32","internalType":"bytes32"},{"name":"account","type":"address","internalType":"address"}],"outputs":[],"stateMutability":"nonpayable"},{"type":"function","name":"hasRole","inputs":[{"name":"role","type":"bytes32","internalType":"bytes32"},{"name":"account","type":"address","internalType":"address"}],"outputs":[{"name":"","type":"bool","internalType":"bool"}],"stateMutability":"view"},{"type":"function","name":"hasVisited","inputs":[{"name":"","type":"address","internalType":"address"}],"outputs":[{"name":"","type":"bool","internalType":"bool"}],"stateMutability":"view"},{"type":"function","name":"maxMessageLength","inputs":[],"outputs":[{"name":"","type":"uint256","internalType":"uint256"}],"stateMutability":"view"},{"type":"function","name":"minMessageLength","inputs":[],"outputs":[{"name":"","type":"uint256","internalType":"uint256"}],"stateMutability":"view"},{"type":"function","name":"pause","inputs":[],"outputs":[],"stateMutability":"nonpayable"},{"type":"function","name":"paused","inputs":[],"outputs":[{"name":"","type":"bool","internalType":"bool"}],"stateMutability":"view"},{"type":"function","name":"registerSecp256r1Key","inputs":[{"name":"publicKeyX","type":"bytes32","internalType":"bytes32"},{"name":"publicKeyY","type":"bytes32","internalType":"bytes32"}],"outputs":[],"stateMutability":"nonpayable"},{"type":"function","name":"removeVisitor","inputs":[{"name":"index","type":"uint256","internalType":"uint256"}],"outputs":[],"stateMutability":"nonpayable"},{"type":"function","name":"renounceRole","inputs":[{"name":"role","type":"bytes32","internalType":"bytes32"},{"name":"callerConfirmation","type":"address","internalType":"address"}],"outputs":[],"stateMutability":"nonpayable"},{"type":"function","name":"revokeRole","inputs":[{"name":"role","type":"bytes32","internalType":"bytes32"},{"name":"account","type":"address","internalType":"address"}],"outputs":[],"stateMutability":"nonpayable"},{"type":"function","name":"secp256r1ToAddress","inputs":[{"name":"","type":"bytes32","internalType":"bytes32"}],"outputs":[{"name":"","type":"address","internalType":"address"}],"stateMutability":"view"},{"type":"function","name":"setMaxMessageLength","inputs":[{"name":"newLength","type":"uint256","internalType":"uint256"}],"outputs":[],"stateMutability":"nonpayable"},{"type":"function","name":"signVisitorBook","inputs":[{"name":"message","type":"string","internalType":"string"}],"outputs":[],"stateMutability":"nonpayable"},{"type":"function","name":"signVisitorBookWithBiometric","inputs":[{"name":"message","type":"string","internalType":"string"},{"name":"r","type":"bytes32","internalType":"bytes32"},{"name":"s","type":"bytes32","internalType":"bytes32"},{"name":"publicKeyX","type":"bytes32","internalType":"bytes32"},{"name":"publicKeyY","type":"bytes32","internalType":"bytes32"}],"outputs":[],"stateMutability":"nonpayable"},{"type":"function","name":"signVisitorBookWithSignature","inputs":[{"name":"message","type":"string","internalType":"string"},{"name":"signature","type":"bytes","internalType":"bytes"}],"outputs":[],"stateMutability":"nonpayable"},{"type":"function","name":"supportsInterface","inputs":[{"name":"interfaceId","type":"bytes4","internalType":"bytes4"}],"outputs":[{"name":"","type":"bool","internalType":"bool"}],"stateMutability":"view"},{"type":"function","name":"unpause","inputs":[],"outputs":[],"stateMutability":"nonpayable"},{"type":"function","name":"usedSignatures","inputs":[{"name":"","type":"bytes32","internalType":"bytes32"}],"outputs":[{"name":"","type":"bool","internalType":"bool"}],"stateMutability":"view"},{"type":"function","name":"visitCount","inputs":[{"name":"","type":"address","internalType":"address"}],"outputs":[{"name":"","type":"uint256","internalType":"uint256"}],"stateMutability":"view"},{"type":"function","name":"visitors","inputs":[{"name":"","type":"uint256","internalType":"uint256"}],"outputs":[{"name":"visitor","type":"address","internalType":"address"},{"name":"message","type":"string","internalType":"string"},{"name":"timestamp","type":"uint256","internalType":"uint256"}],"stateMutability":"view"},{"type":"event","name":"BiometricKeyRegistered","inputs":[{"name":"user","type":"address","indexed":true,"internalType":"address"},{"name":"publicKeyX","type":"bytes32","indexed":false,"internalType":"bytes32"},{"name":"publicKeyY","type":"bytes32","indexed":false,"internalType":"bytes32"}],"anonymous":false},{"type":"event","name":"EIP712DomainChanged","inputs":[],"anonymous":false},{"type":"event","name":"MessageLengthUpdated","inputs":[{"name":"oldLength","type":"uint256","indexed":false,"internalType":"uint256"},{"name":"newLength","type":"uint256","indexed":false,"internalType":"uint256"}],"anonymous":false},{"type":"event","name":"Paused","inputs":[{"name":"account","type":"address","indexed":false,"internalType":"address"}],"anonymous":false},{"type":"event","name":"RoleAdminChanged","inputs":[{"name":"role","type":"bytes32","indexed":true,"internalType":"bytes32"},{"name":"previousAdminRole","type":"bytes32","indexed":true,"internalType":"bytes32"},{"name":"newAdminRole","type":"bytes32","indexed":true,"internalType":"bytes32"}],"anonymous":false},{"type":"event","name":"RoleGranted","inputs":[{"name":"role","type":"bytes32","indexed":true,"internalType":"bytes32"},{"name":"account","type":"address","indexed":true,"internalType":"address"},{"name":"sender","type":"address","indexed":true,"internalType":"address"}],"anonymous":false},{"type":"event","name":"RoleRevoked","inputs":[{"name":"role","type":"bytes32","indexed":true,"internalType":"bytes32"},{"name":"account","type":"address","indexed":true,"internalType":"address"},{"name":"sender","type":"address","indexed":true,"internalType":"address"}],"anonymous":false},{"type":"event","name":"Unpaused","inputs":[{"name":"account","type":"address","indexed":false,"internalType":"address"}],"anonymous":false},{"type":"event","name":"VisitorRemoved","inputs":[{"name":"visitor","type":"address","indexed":true,"internalType":"address"},{"name":"index","type":"uint256","indexed":false,"internalType":"uint256"}],"anonymous":false},{"type":"event","name":"VisitorSigned","inputs":[{"name":"visitor","type":"address","indexed":true,"internalType":"address"},{"name":"message","type":"string","indexed":false,"internalType":"string"},{"name":"timestamp","type":"uint256","indexed":false,"internalType":"uint256"},{"name":"visitNumber","type":"uint256","indexed":false,"internalType":"uint256"}],"anonymous":false},{"type":"error","name":"AccessControlBadConfirmation","inputs":[]},{"type":"error","name":"AccessControlUnauthorizedAccount","inputs":[{"name":"account","type":"address","internalType":"address"},{"name":"neededRole","type":"bytes32","internalType":"bytes32"}]},{"type":"error","name":"ECDSAInvalidSignature","inputs":[]},{"type":"error","name":"ECDSAInvalidSignatureLength","inputs":[{"name":"length","type":"uint256","internalType":"uint256"}]},{"type":"error","name":"ECDSAInvalidSignatureS","inputs":[{"name":"s","type":"bytes32","internalType":"bytes32"}]},{"type":"error","name":"EnforcedPause","inputs":[]},{"type":"error","name":"ExpectedPause","inputs":[]},{"type":"error","name":"InvalidShortString","inputs":[]},{"type":"error","name":"ReentrancyGuardReentrantCall","inputs":[]},{"type":"error","name":"StringTooLong","inputs":[{"name":"str","type":"string","internalType":"string"}]}],"bytecode":{"object":"0x6101606040526101f4600855600160095534801561001b575f80fd5b506040518060400160405280600b81526020016a56697369746f72426f6f6b60a81b815250604051806040016040528060018152602001603160f81b815250600161007061006d61015b60201b60201c565b90565b5561007c82600261017f565b6101205261008b81600361017f565b61014052815160208084019190912060e052815190820120610100524660a05261011760e05161010051604080517f8b73c3c69bb8fe3d512ecc4cf759cc79239f7b179b0ffacaa9a75d522b39400f60208201529081019290925260608201524660808201523060a08201525f9060c00160405160208183030381529060405280519060200120905090565b60805250503060c05261012a5f336101b1565b506101557f71f3d55856e4058ed06ee057d79ada615f65cdf5f9ee88181b914225088f834f336101b1565b5061044d565b7f9b779b17422d0df92223018b32b4d1fa46e071723d6817e2486d003becc55f0090565b5f60208351101561019a5761019383610258565b90506101ab565b816101a58482610336565b5060ff90505b92915050565b5f828152602081815260408083206001600160a01b038516845290915281205460ff16610251575f838152602081815260408083206001600160a01b03861684529091529020805460ff191660011790556102093390565b6001600160a01b0316826001600160a01b0316847f2f8788117e7eff1d82e926ec794901d17c78024a50270940304540a733656f0d60405160405180910390a45060016101ab565b505f6101ab565b5f80829050601f8151111561028b578260405163305a27a960e01b815260040161028291906103f5565b60405180910390fd5b80516102968261042a565b179392505050565b634e487b7160e01b5f52604160045260245ffd5b600181811c908216806102c657607f821691505b6020821081036102e457634e487b7160e01b5f52602260045260245ffd5b50919050565b601f82111561033157805f5260205f20601f840160051c8101602085101561030f5750805b601f840160051c820191505b8181101561032e575f815560010161031b565b50505b505050565b81516001600160401b0381111561034f5761034f61029e565b6103638161035d84546102b2565b846102ea565b602080601f831160018114610396575f841561037f5750858301515b5f19600386901b1c1916600185901b1785556103ed565b5f85815260208120601f198616915b828110156103c4578886015182559484019460019091019084016103a5565b50858210156103e157878501515f19600388901b60f8161c191681555b505060018460011b0185555b505050505050565b602081525f82518060208401528060208501604085015e5f604082850101526040601f19601f83011684010191505092915050565b805160208083015191908110156102e4575f1960209190910360031b1b16919050565b60805160a05160c05160e051610100516101205161014051612d3161049e5f395f61172001525f6116ee01525f611b9601525f611b6e01525f611ac901525f611af301525f611b1d0152612d315ff3fe608060405234801561000f575f80fd5b50600436106101c6575f3560e01c80639c11bc30116100fe578063b60057501161009e578063f35c220b1161006e578063f35c220b14610430578063f8138e9514610443578063f978fd6114610463578063fcfcf44014610485575f80fd5b8063b6005750146103d7578063cfa28513146103f7578063d0a618af1461040a578063d547741f1461041d575f80fd5b8063a99463ef116100d9578063a99463ef1461035b578063ab4114671461037a578063ac08bb531461038d578063ac440a9f146103af575f80fd5b80639c11bc30146103385780639e5075ae1461034b578063a217fddf14610354575f80fd5b806342b71a3611610169578063797669c911610144578063797669c9146102db5780638456cb591461030257806384b0196e1461030a57806391d1485414610325575f80fd5b806342b71a361461029b5780635c975abb146102bd57806372f061a9146102c8575f80fd5b8063248a9ca3116101a4578063248a9ca3146102495780632f2ff15d1461026b57806336568abe146102805780633f4ba83a14610293575f80fd5b806301ffc9a7146101ca578063090955b2146101f25780631d1d4e2914610232575b5f80fd5b6101dd6101d83660046125a3565b61048d565b60405190151581526020015b60405180910390f35b61021a6102003660046125ca565b600a6020525f90815260409020546001600160a01b031681565b6040516001600160a01b0390911681526020016101e9565b61023b60085481565b6040519081526020016101e9565b61023b6102573660046125ca565b5f9081526020819052604090206001015490565b61027e6102793660046125fc565b6104c3565b005b61027e61028e3660046125fc565b6104ed565b61027e610525565b6102ae6102a93660046125ca565b61053a565b6040516101e993929190612654565b60015460ff166101dd565b61027e6102d636600461272c565b6105fe565b61023b7f71f3d55856e4058ed06ee057d79ada615f65cdf5f9ee88181b914225088f834f81565b61027e610904565b610312610916565b6040516101e99796959493929190612784565b6101dd6103333660046125fc565b610958565b61027e6103463660046125ca565b610980565b61023b60095481565b61023b5f81565b61023b61036936600461281b565b60066020525f908152604090205481565b61027e610388366004612834565b610a14565b6101dd61039b36600461281b565b60056020525f908152604090205460ff1681565b61023b6103bd36600461281b565b6001600160a01b03165f9081526006602052604090205490565b6103ea6103e536600461286e565b610b9d565b6040516101e991906128c8565b61027e61040536600461292a565b610da9565b61027e6104183660046125ca565b611073565b61027e61042b3660046125fc565b611232565b61027e61043e36600461286e565b611256565b6104566104513660046125ca565b611387565b6040516101e9919061299d565b6101dd6104713660046125ca565b60076020525f908152604090205460ff1681565b60045461023b565b5f6001600160e01b03198216637965db0b60e01b14806104bd57506301ffc9a760e01b6001600160e01b03198316145b92915050565b5f828152602081905260409020600101546104dd816114dc565b6104e783836114e6565b50505050565b6001600160a01b03811633146105165760405163334bd91960e11b815260040160405180910390fd5b6105208282611575565b505050565b5f61052f816114dc565b6105376115de565b50565b60048181548110610549575f80fd5b5f918252602090912060039091020180546001820180546001600160a01b03909216935090610577906129af565b80601f01602080910402602001604051908101604052809291908181526020018280546105a3906129af565b80156105ee5780601f106105c5576101008083540402835291602001916105ee565b820191905f5260205f20905b8154815290600101906020018083116105d157829003601f168201915b5050505050908060020154905083565b610606611630565b61060e611656565b8451600954811080159061062457506008548111155b6106495760405162461bcd60e51b8152600401610640906129e7565b60405180910390fd5b604080516020808201869052818301859052825180830384018152606090920183528151918101919091205f818152600a909252919020546001600160a01b0316806106d75760405162461bcd60e51b815260206004820152601960248201527f5075626c6963206b6579206e6f742072656769737465726564000000000000006044820152606401610640565b87516020808a01919091206040516e7369676e56697369746f72426f6f6b60881b9281019290925246602f8301526bffffffffffffffffffffffff1930606090811b8216604f85015284901b16606383015260778201524260978201819052905f9060b701604051602081830303815290604052805190602001209050610761818a8a8a8a611671565b6107a15760405162461bcd60e51b8152602060048201526011602482015270496e76616c6964207369676e617475726560781b6044820152606401610640565b604080516060810182526001600160a01b038581168252602082018d8152928201859052600480546001810182555f9190915282517f8a35acfbc15ff81a39ae7d344fd709f28e8600b4aa8c65c6b64bfe7fe36bd19b600390920291820180546001600160a01b031916919093161782559251919290917f8a35acfbc15ff81a39ae7d344fd709f28e8600b4aa8c65c6b64bfe7fe36bd19c909101906108479082612a5b565b506040918201516002909101556001600160a01b0384165f90815260056020908152828220805460ff191660011790556006905290812080549161088a83612b2f565b90915550506001600160a01b0383165f81815260066020526040908190205490517ffd38fc82db397368926cbad97556c4ed75f5b5265c56187cf6c92829c8081761916108da918e918791612b47565b60405180910390a250505050506108fd60015f80516020612cdc83398151915255565b5050505050565b5f61090e816114dc565b6105376116ac565b5f6060805f805f60606109276116e7565b61092f611719565b604080515f80825260208201909252600f60f81b9b939a50919850469750309650945092509050565b5f918252602082815260408084206001600160a01b0393909316845291905290205460ff1690565b5f61098a816114dc565b5f82116109ce5760405162461bcd60e51b815260206004820152601260248201527104c656e677468206d757374206265203e20360741b6044820152606401610640565b600880549083905560408051828152602081018590527f7a1976d576fa6157143e795ba9c2b0f6b661766d9f29266dce278b0feacb27d8910160405180910390a1505050565b610a1c611630565b610a24611656565b80516009548110801590610a3a57506008548111155b610a565760405162461bcd60e51b8152600401610640906129e7565b60408051606081018252338152602081018481524292820192909252600480546001810182555f9190915281517f8a35acfbc15ff81a39ae7d344fd709f28e8600b4aa8c65c6b64bfe7fe36bd19b600390920291820180546001600160a01b0319166001600160a01b0390921691909117815592519192917f8a35acfbc15ff81a39ae7d344fd709f28e8600b4aa8c65c6b64bfe7fe36bd19c90910190610afd9082612a5b565b50604091820151600290910155335f90815260056020908152828220805460ff1916600117905560069052908120805491610b3783612b2f565b9091555050335f81815260066020526040908190205490517ffd38fc82db397368926cbad97556c4ed75f5b5265c56187cf6c92829c808176191610b7e9186914291612b47565b60405180910390a25061053760015f80516020612cdc83398151915255565b6004546060908310610be85760405162461bcd60e51b81526020600482015260146024820152734f6666736574206f7574206f6620626f756e647360601b6044820152606401610640565b5f610bf38385612b6b565b600454909150811115610c0557506004545b5f610c108583612b7e565b90505f8167ffffffffffffffff811115610c2c57610c2c612687565b604051908082528060200260200182016040528015610c8857816020015b610c7560405180606001604052805f6001600160a01b03168152602001606081526020015f81525090565b815260200190600190039081610c4a5790505b5090505f5b82811015610d9f576004610ca18289612b6b565b81548110610cb157610cb1612b91565b5f918252602091829020604080516060810190915260039092020180546001600160a01b031682526001810180549293919291840191610cf0906129af565b80601f0160208091040260200160405190810160405280929190818152602001828054610d1c906129af565b8015610d675780601f10610d3e57610100808354040283529160200191610d67565b820191905f5260205f20905b815481529060010190602001808311610d4a57829003601f168201915b50505050508152602001600282015481525050828281518110610d8c57610d8c612b91565b6020908102919091010152600101610c8d565b5095945050505050565b610db1611630565b610db9611656565b81516009548110801590610dcf57506008548111155b610deb5760405162461bcd60e51b8152600401610640906129e7565b8251602080850191909120604080517fe9d400ffa961df704419a65dc444c14c06295724ef8b3f8a29f808e9a16ba27593810193909352339083015260608201524260808201525f9060a0016040516020818303038152906040528051906020012090505f610e5982611746565b90505f610e668286611772565b90506001600160a01b0381163314610eb45760405162461bcd60e51b8152602060048201526011602482015270496e76616c6964207369676e617475726560781b6044820152606401610640565b5f8281526007602052604090205460ff1615610f0b5760405162461bcd60e51b815260206004820152601660248201527514da59db985d1d5c9948185b1c9958591e481d5cd95960521b6044820152606401610640565b5f828152600760209081526040808320805460ff1916600190811790915581516060810183523381529283018a81524292840192909252600480549182018155909352815160039093027f8a35acfbc15ff81a39ae7d344fd709f28e8600b4aa8c65c6b64bfe7fe36bd19b810180546001600160a01b03959095166001600160a01b031990951694909417845590519192917f8a35acfbc15ff81a39ae7d344fd709f28e8600b4aa8c65c6b64bfe7fe36bd19c90910190610fcc9082612a5b565b50604091820151600290910155335f90815260056020908152828220805460ff191660011790556006905290812080549161100683612b2f565b9091555050335f81815260066020526040908190205490517ffd38fc82db397368926cbad97556c4ed75f5b5265c56187cf6c92829c80817619161104d918a914291612b47565b60405180910390a25050505061106f60015f80516020612cdc83398151915255565b5050565b7f71f3d55856e4058ed06ee057d79ada615f65cdf5f9ee88181b914225088f834f61109d816114dc565b60045482106110e45760405162461bcd60e51b8152602060048201526013602482015272496e646578206f7574206f6620626f756e647360681b6044820152606401610640565b5f600483815481106110f8576110f8612b91565b5f918252602090912060039091020154600480546001600160a01b0390921692509061112690600190612b7e565b8154811061113657611136612b91565b905f5260205f2090600302016004848154811061115557611155612b91565b5f9182526020909120825460039092020180546001600160a01b0319166001600160a01b0390921691909117815560018082019061119590840182612ba5565b5060029182015491015560048054806111b0576111b0612c74565b5f8281526020812060035f199093019283020180546001600160a01b0319168155906111df600183018261250d565b600282015f905550509055806001600160a01b03167fe04c37add81181a7eaeeb701dc128e7bf152e79522b2d19d9eb181465ce440018460405161122591815260200190565b60405180910390a2505050565b5f8281526020819052604090206001015461124c816114dc565b6104e78383611575565b611260828261179a565b6112a15760405162461bcd60e51b8152602060048201526012602482015271496e76616c6964207075626c6963206b657960701b6044820152606401610640565b604080516020808201859052818301849052825180830384018152606090920183528151918101919091205f818152600a909252919020546001600160a01b03161561132f5760405162461bcd60e51b815260206004820152601d60248201527f5075626c6963206b657920616c726561647920726567697374657265640000006044820152606401610640565b5f818152600a602090815260409182902080546001600160a01b031916339081179091558251868152918201859052917f31f399053bf9abf743a1c140700cb461b32859b3ea33d3b89b3d472c42dc18479101611225565b6113b260405180606001604052805f6001600160a01b03168152602001606081526020015f81525090565b60045482106113f95760405162461bcd60e51b8152602060048201526013602482015272496e646578206f7574206f6620626f756e647360681b6044820152606401610640565b6004828154811061140c5761140c612b91565b5f918252602091829020604080516060810190915260039092020180546001600160a01b03168252600181018054929391929184019161144b906129af565b80601f0160208091040260200160405190810160405280929190818152602001828054611477906129af565b80156114c25780601f10611499576101008083540402835291602001916114c2565b820191905f5260205f20905b8154815290600101906020018083116114a557829003601f168201915b505050505081526020016002820154815250509050919050565b61053781336117fe565b5f6114f18383610958565b61156e575f838152602081815260408083206001600160a01b03861684529091529020805460ff191660011790556115263390565b6001600160a01b0316826001600160a01b0316847f2f8788117e7eff1d82e926ec794901d17c78024a50270940304540a733656f0d60405160405180910390a45060016104bd565b505f6104bd565b5f6115808383610958565b1561156e575f838152602081815260408083206001600160a01b0386168085529252808320805460ff1916905551339286917ff6391f5c32d9c69d2a47ea670b442974b53935d1edc7fd64eb21e047a839171b9190a45060016104bd565b6115e6611837565b6001805460ff191690557f5db9ee0a495bf2e6ff9c91a7834c1ba4fdd244a5e8aa4e537bd38aeae4b073aa335b6040516001600160a01b03909116815260200160405180910390a1565b60015460ff16156116545760405163d93c066560e01b815260040160405180910390fd5b565b61165e61185a565b60025f80516020612cdc83398151915255565b5f805f6116818888888888611889565b915091508061169c576116978888888888611964565b61169e565b815b925050505b95945050505050565b6116b4611630565b6001805460ff1916811790557f62e78cea01bee320cd4e420270b5ea74000d11b0c9f74754ebdbfc544b05a25833611613565b60606117147f00000000000000000000000000000000000000000000000000000000000000006002611a14565b905090565b60606117147f00000000000000000000000000000000000000000000000000000000000000006003611a14565b5f6104bd611752611abd565b8360405161190160f01b8152600281019290925260228201526042902090565b5f805f806117808686611be6565b9250925092506117908282611c2f565b5090949350505050565b5f600160601b63ffffffff60c01b031980838409817f5ac635d8aa3a93e7b3ebbd55769886bc651d06b0cc53b0f63bce3c3e27d2604b8387856003600160601b0363ffffffff60c01b0319878b8c0908090894821191909310169190921416919050565b6118088282610958565b61106f5760405163e2517d3f60e01b81526001600160a01b038216600482015260248101839052604401610640565b60015460ff1661165457604051638dfc202b60e01b815260040160405180910390fd5b5f80516020612cdc8339815191525460020361165457604051633ee5aeb560e01b815260040160405180910390fd5b5f806118958686611ce7565b15806118a857506118a6848461179a565b155b156118b857505f9050600161195a565b6118c58787878787611d41565b156118d55750600190508061195a565b6119447fbb5a52f42f9c9261ed4361f59422a1e30036e7c32b270c8807a419feca605023600560017fa71af64de5126a4a4e02b7922d66ce9415ce88a4c9d25514d91082c8725ac9577f5d47723c8fbe580bb369fec9c2665d8e30a435b9932645482e7c9f11e872296b611d41565b1561195457505f9050600161195a565b505f9050805b9550959350505050565b5f61196f8585611ce7565b15806119825750611980838361179a565b155b1561198e57505f6116a3565b5f6119998484611d81565b90505f6119b3865f80516020612cbc833981519152611f74565b90505f5f80516020612cbc833981519152828a0990505f5f80516020612cbc833981519152838a0990505f6119e9858484611f83565b50905089611a045f80516020612cbc83398151915283612c88565b149b9a5050505050505050505050565b606060ff8314611a2e57611a27836120a7565b90506104bd565b818054611a3a906129af565b80601f0160208091040260200160405190810160405280929190818152602001828054611a66906129af565b8015611ab15780601f10611a8857610100808354040283529160200191611ab1565b820191905f5260205f20905b815481529060010190602001808311611a9457829003601f168201915b505050505090506104bd565b5f306001600160a01b037f000000000000000000000000000000000000000000000000000000000000000016148015611b1557507f000000000000000000000000000000000000000000000000000000000000000046145b15611b3f57507f000000000000000000000000000000000000000000000000000000000000000090565b611714604080517f8b73c3c69bb8fe3d512ecc4cf759cc79239f7b179b0ffacaa9a75d522b39400f60208201527f0000000000000000000000000000000000000000000000000000000000000000918101919091527f000000000000000000000000000000000000000000000000000000000000000060608201524660808201523060a08201525f9060c00160405160208183030381529060405280519060200120905090565b5f805f8351604103611c1d576020840151604085015160608601515f1a611c0f888285856120e4565b955095509550505050611c28565b505081515f91506002905b9250925092565b5f826003811115611c4257611c42612ca7565b03611c4b575050565b6001826003811115611c5f57611c5f612ca7565b03611c7d5760405163f645eedf60e01b815260040160405180910390fd5b6002826003811115611c9157611c91612ca7565b03611cb25760405163fce698f760e01b815260048101829052602401610640565b6003826003811115611cc657611cc6612ca7565b0361106f576040516335e2f38360e21b815260048101829052602401610640565b5f8215801590611d0357505f80516020612cbc83398151915283105b8015611d0e57508115155b8015611d3a57507f7fffffff800000007fffffffffffffffde737d56d38bcf4279dce5617e3192a88211155b9392505050565b5f6040518681528560208201528460408201528360608201528260808201525f805260205f60a0836101005afa611d7457fe5b50505f5195945050505050565b611d89612544565b60405180606001604052805f81526020015f81526020015f815250815f60108110611db657611db6612b91565b60200201819052506040518060600160405280848152602001838152602001600181525081600160108110611ded57611ded612b91565b602002018190525060405180606001604052807f6b17d1f2e12c4247f8bce6e563a440f277037d812deb33a0f4a13945d898c29681526020017f4fe342e2fe1a7f9b8ee7eb4a7c0f9e162bce33576b315ececbb6406837bf51f58152602001600181525081600460108110611e6457611e64612b91565b6020020152611e7a8160015b60200201516121ac565b6040820152611e8a816004611e70565b6101008201526020810151611ea7908260025b6020020151612208565b6060820152611ec08160015b6020020151826004611e9d565b60a0820152611ed0816002611eb3565b60c0820152611ee0816003611eb3565b60e0820152611ef98160015b6020020151826008611e9d565b610120820152611f0a816002611eec565b610140820152611f1b816003611eec565b610160820152611f2c816004611eec565b610180820152611f468160015b602002015182600c611e9d565b6101a0820152611f57816002611f39565b6101c0820152611f68816003611f39565b6101e082015292915050565b5f611d3a836002840384612266565b5f805f805f805b608081101561208b578115611fbe57611fa4848484612287565b91955093509150611fb6848484612287565b919550935091505b600c60fc89901c1660fe88901c17898160108110611fde57611fde612b91565b6020020151604001511561207757825f0361204d5789816010811061200557612005612b91565b6020020151518a826010811061201d5761201d612b91565b6020020151602001518b836010811061203857612038612b91565b60200201516040015191965094509250612077565b61206f8a826010811061206257612062612b91565b602002015186868661230a565b919650945092505b50600297881b979690961b95600101611f8a565b50612097838383612436565b945094505050505b935093915050565b60605f6120b383612483565b6040805160208082528183019092529192505f91906020820181803683375050509182525060208101929092525090565b5f80807f7fffffffffffffffffffffffffffffff5d576e7357a4501ddfe92f46681b20a084111561211d57505f915060039050826121a2565b604080515f808252602082018084528a905260ff891692820192909252606081018790526080810186905260019060a0016020604051602081039080840390855afa15801561216e573d5f803e3d5ffd5b5050604051601f1901519150506001600160a01b03811661219957505f9250600191508290506121a2565b92505f91508190505b9450945094915050565b6121cd60405180606001604052805f81526020015f81526020015f81525090565b5f805f6121e6855f015186602001518760400151612287565b6040805160608101825293845260208401929092529082015295945050505050565b61222960405180606001604052805f81526020015f81526020015f81525090565b5f805f61224386865f01518760200151886040015161230a565b604080516060810182529384526020840192909252908201529695505050505050565b5f805f6122748686866124aa565b91509150816116a3576116a360126124fc565b5f805f600160601b63ffffffff60c01b031980868709818687098283848384096003600160601b0363ffffffff60c01b03190984858c8d096003090890508283838b09600409838482600209850385848509089650838485858609600809850385868a880385088509089550505050808186880960020991505093509350939050565b5f805f600160601b63ffffffff60c01b0319604088015181818209828388858a8b090960208c0151098381850385868686098c090884858a8b098d51098581870387868f090893508115841516801561236a57600181146123b057612425565b868586098788898386096002098903898a848a098b038b88890908089a5087888983890987098903898a8e8c038c8689090887090899505086878c880986099750612425565b8c8c8c898283098a8283098b8c8d8384096003600160601b0363ffffffff60c01b0319098d8e8889096003090890508b8c83870960040994508b8c866002098d038d838409089e508b8c8384096008098c0391508b8f8d03860894508b828d878409089d505050898a8284096002099a505050505b505050505050509450945094915050565b5f80825f0361244957505f90508061209f565b600160601b63ffffffff60c01b03195f6124638583611f74565b905081818209828189099450828383830988099350505050935093915050565b5f60ff8216601f8111156104bd57604051632cd44ac360e21b815260040160405180910390fd5b5f80825f036124bd57505f90508061209f565b60405160208152602080820152602060408201528560608201528460808201528360a082015260205f60c08360055afa9250505f519050935093915050565b634e487b715f52806020526024601cfd5b508054612519906129af565b5f825580601f10612528575050565b601f0160209004905f5260205f2090810190610537919061258b565b6040518061020001604052806010905b61257560405180606001604052805f81526020015f81526020015f81525090565b8152602001906001900390816125545790505090565b5b8082111561259f575f815560010161258c565b5090565b5f602082840312156125b3575f80fd5b81356001600160e01b031981168114611d3a575f80fd5b5f602082840312156125da575f80fd5b5035919050565b80356001600160a01b03811681146125f7575f80fd5b919050565b5f806040838503121561260d575f80fd5b8235915061261d602084016125e1565b90509250929050565b5f81518084528060208401602086015e5f602082860101526020601f19601f83011685010191505092915050565b6001600160a01b03841681526060602082018190525f9061267790830185612626565b9050826040830152949350505050565b634e487b7160e01b5f52604160045260245ffd5b5f67ffffffffffffffff808411156126b5576126b5612687565b604051601f8501601f19908116603f011681019082821181831017156126dd576126dd612687565b816040528093508581528686860111156126f5575f80fd5b858560208301375f602087830101525050509392505050565b5f82601f83011261271d575f80fd5b611d3a8383356020850161269b565b5f805f805f60a08688031215612740575f80fd5b853567ffffffffffffffff811115612756575f80fd5b6127628882890161270e565b9860208801359850604088013597606081013597506080013595509350505050565b60ff60f81b881681525f602060e060208401526127a460e084018a612626565b83810360408501526127b6818a612626565b606085018990526001600160a01b038816608086015260a0850187905284810360c0860152855180825260208088019350909101905f5b81811015612809578351835292840192918401916001016127ed565b50909c9b505050505050505050505050565b5f6020828403121561282b575f80fd5b611d3a826125e1565b5f60208284031215612844575f80fd5b813567ffffffffffffffff81111561285a575f80fd5b6128668482850161270e565b949350505050565b5f806040838503121561287f575f80fd5b50508035926020909101359150565b60018060a01b0381511682525f6020820151606060208501526128b46060850182612626565b604093840151949093019390935250919050565b5f60208083016020845280855180835260408601915060408160051b8701019250602087015f5b8281101561291d57603f1988860301845261290b85835161288e565b945092850192908501906001016128ef565b5092979650505050505050565b5f806040838503121561293b575f80fd5b823567ffffffffffffffff80821115612952575f80fd5b61295e8683870161270e565b93506020850135915080821115612973575f80fd5b508301601f81018513612984575f80fd5b6129938582356020840161269b565b9150509250929050565b602081525f611d3a602083018461288e565b600181811c908216806129c357607f821691505b6020821081036129e157634e487b7160e01b5f52602260045260245ffd5b50919050565b60208082526016908201527513595cdcd859d9481b195b99dd1a081a5b9d985b1a5960521b604082015260600190565b601f82111561052057805f5260205f20601f840160051c81016020851015612a3c5750805b601f840160051c820191505b818110156108fd575f8155600101612a48565b815167ffffffffffffffff811115612a7557612a75612687565b612a8981612a8384546129af565b84612a17565b602080601f831160018114612abc575f8415612aa55750858301515b5f19600386901b1c1916600185901b178555612b13565b5f85815260208120601f198616915b82811015612aea57888601518255948401946001909101908401612acb565b5085821015612b0757878501515f19600388901b60f8161c191681555b505060018460011b0185555b505050505050565b634e487b7160e01b5f52601160045260245ffd5b5f60018201612b4057612b40612b1b565b5060010190565b606081525f612b596060830186612626565b60208301949094525060400152919050565b808201808211156104bd576104bd612b1b565b818103818111156104bd576104bd612b1b565b634e487b7160e01b5f52603260045260245ffd5b818103612bb0575050565b612bba82546129af565b67ffffffffffffffff811115612bd257612bd2612687565b612be081612a8384546129af565b5f601f821160018114612c11575f8315612bfa5750848201545b5f19600385901b1c1916600184901b1784556108fd565b5f8581526020808220868352908220601f198616925b83811015612c475782860154825560019586019590910190602001612c27565b5085831015612c6457818501545f19600388901b60f8161c191681555b5050505050600190811b01905550565b634e487b7160e01b5f52603160045260245ffd5b5f82612ca257634e487b7160e01b5f52601260045260245ffd5b500690565b634e487b7160e01b5f52602160045260245ffdfeffffffff00000000ffffffffffffffffbce6faada7179e84f3b9cac2fc6325519b779b17422d0df92223018b32b4d1fa46e071723d6817e2486d003becc55f00a26469706673582212208ccb436087aee034f00e21b66610bee7ef93ebfc402d641b3a3ed6364ebe33aa64736f6c63430008190033","linkReferences":{}},"methodIdentifiers":{"DEFAULT_ADMIN_ROLE()":"a217fddf","MODERATOR_ROLE()":"797669c9","eip712Domain()":"84b0196e","getRoleAdmin(bytes32)":"248a9ca3","getTotalVisitors()":"fcfcf440","getVisitCount(address)":"ac440a9f","getVisitor(uint256)":"f8138e95","getVisitors(uint256,uint256)":"b6005750","grantRole(bytes32,address)":"2f2ff15d","hasRole(bytes32,address)":"91d14854","hasVisited(address)":"ac08bb53","maxMessageLength()":"1d1d4e29","minMessageLength()":"9e5075ae","pause()":"8456cb59","paused()":"5c975abb","registerSecp256r1Key(bytes32,bytes32)":"f35c220b","removeVisitor(uint256)":"d0a618af","renounceRole(bytes32,address)":"36568abe","revokeRole(bytes32,address)":"d547741f","secp256r1ToAddress(bytes32)":"090955b2","setMaxMessageLength(uint256)":"9c11bc30","signVisitorBook(string)":"ab411467","signVisitorBookWithBiometric(string,bytes32,bytes32,bytes32,bytes32)":"72f061a9","signVisitorBookWithSignature(string,bytes)":"cfa28513","supportsInterface(bytes4)":"01ffc9a7","unpause()":"3f4ba83a","usedSignatures(bytes32)":"f978fd61","visitCount(address)":"a99463ef","visitors(uint256)":"42b71a36"},"id":4}